{
  "address": "0xe7f1725E7734CE288F8367e1Bb143E90bb3F0512",
  "abi": [
    {
      "inputs": [
        {
          "internalType": "address",
          "name": "_proxyRegistryAddress",
          "type": "address"
        },
        {
          "internalType": "address",
          "name": "_creator",
          "type": "address"
        },
        {
          "internalType": "address",
          "name": "_weth",
          "type": "address"
        }
      ],
      "stateMutability": "nonpayable",
      "type": "constructor"
    },
    {
      "inputs": [],
      "name": "NotAuthorized",
      "type": "error"
    },
    {
      "anonymous": false,
      "inputs": [
        {
          "indexed": true,
          "internalType": "address",
          "name": "owner",
          "type": "address"
        },
        {
          "indexed": true,
          "internalType": "address",
          "name": "approved",
          "type": "address"
        },
        {
          "indexed": true,
          "internalType": "uint256",
          "name": "tokenId",
          "type": "uint256"
        }
      ],
      "name": "Approval",
      "type": "event"
    },
    {
      "anonymous": false,
      "inputs": [
        {
          "indexed": true,
          "internalType": "address",
          "name": "owner",
          "type": "address"
        },
        {
          "indexed": true,
          "internalType": "address",
          "name": "operator",
          "type": "address"
        },
        {
          "indexed": false,
          "internalType": "bool",
          "name": "approved",
          "type": "bool"
        }
      ],
      "name": "ApprovalForAll",
      "type": "event"
    },
    {
      "anonymous": false,
      "inputs": [
        {
          "indexed": true,
          "internalType": "address",
          "name": "signer",
          "type": "address"
        },
        {
          "indexed": false,
          "internalType": "uint256",
          "name": "amount",
          "type": "uint256"
        },
        {
          "indexed": true,
          "internalType": "uint256",
          "name": "tokenId",
          "type": "uint256"
        },
        {
          "indexed": false,
          "internalType": "string",
          "name": "uri",
          "type": "string"
        }
      ],
      "name": "SignCreated",
      "type": "event"
    },
    {
      "anonymous": false,
      "inputs": [
        {
          "indexed": true,
          "internalType": "address",
          "name": "from",
          "type": "address"
        },
        {
          "indexed": true,
          "internalType": "address",
          "name": "to",
          "type": "address"
        },
        {
          "indexed": true,
          "internalType": "uint256",
          "name": "tokenId",
          "type": "uint256"
        }
      ],
      "name": "Transfer",
      "type": "event"
    },
    {
      "inputs": [
        {
          "internalType": "address",
          "name": "to",
          "type": "address"
        },
        {
          "internalType": "uint256",
          "name": "tokenId",
          "type": "uint256"
        }
      ],
      "name": "approve",
      "outputs": [],
      "stateMutability": "nonpayable",
      "type": "function"
    },
    {
      "inputs": [],
      "name": "arweaveBase",
      "outputs": [
        {
          "internalType": "string",
          "name": "",
          "type": "string"
        }
      ],
      "stateMutability": "view",
      "type": "function"
    },
    {
      "inputs": [
        {
          "internalType": "address",
          "name": "owner",
          "type": "address"
        }
      ],
      "name": "balanceOf",
      "outputs": [
        {
          "internalType": "uint256",
          "name": "",
          "type": "uint256"
        }
      ],
      "stateMutability": "view",
      "type": "function"
    },
    {
      "inputs": [],
      "name": "contractURI",
      "outputs": [
        {
          "internalType": "string",
          "name": "",
          "type": "string"
        }
      ],
      "stateMutability": "pure",
      "type": "function"
    },
    {
      "inputs": [
        {
          "internalType": "string",
          "name": "selectedNFT",
          "type": "string"
        }
      ],
      "name": "createSign",
      "outputs": [],
      "stateMutability": "payable",
      "type": "function"
    },
    {
      "inputs": [],
      "name": "creator",
      "outputs": [
        {
          "internalType": "address",
          "name": "",
          "type": "address"
        }
      ],
      "stateMutability": "view",
      "type": "function"
    },
    {
      "inputs": [
        {
          "internalType": "uint256",
          "name": "tokenId",
          "type": "uint256"
        }
      ],
      "name": "getApproved",
      "outputs": [
        {
          "internalType": "address",
          "name": "",
          "type": "address"
        }
      ],
      "stateMutability": "view",
      "type": "function"
    },
    {
      "inputs": [
        {
          "internalType": "address",
          "name": "owner",
          "type": "address"
        },
        {
          "internalType": "address",
          "name": "operator",
          "type": "address"
        }
      ],
      "name": "isApprovedForAll",
      "outputs": [
        {
          "internalType": "bool",
          "name": "",
          "type": "bool"
        }
      ],
      "stateMutability": "view",
      "type": "function"
    },
    {
      "inputs": [],
      "name": "name",
      "outputs": [
        {
          "internalType": "string",
          "name": "",
          "type": "string"
        }
      ],
      "stateMutability": "view",
      "type": "function"
    },
    {
      "inputs": [
        {
          "internalType": "uint256",
          "name": "tokenId",
          "type": "uint256"
        }
      ],
      "name": "ownerOf",
      "outputs": [
        {
          "internalType": "address",
          "name": "",
          "type": "address"
        }
      ],
      "stateMutability": "view",
      "type": "function"
    },
    {
      "inputs": [
        {
          "internalType": "uint256",
          "name": "",
          "type": "uint256"
        },
        {
          "internalType": "uint256",
          "name": "value",
          "type": "uint256"
        }
      ],
      "name": "royaltyInfo",
      "outputs": [
        {
          "internalType": "address",
          "name": "receiver",
          "type": "address"
        },
        {
          "internalType": "uint256",
          "name": "royaltyAmount",
          "type": "uint256"
        }
      ],
      "stateMutability": "view",
      "type": "function"
    },
    {
      "inputs": [
        {
          "internalType": "address",
          "name": "from",
          "type": "address"
        },
        {
          "internalType": "address",
          "name": "to",
          "type": "address"
        },
        {
          "internalType": "uint256",
          "name": "tokenId",
          "type": "uint256"
        }
      ],
      "name": "safeTransferFrom",
      "outputs": [],
      "stateMutability": "nonpayable",
      "type": "function"
    },
    {
      "inputs": [
        {
          "internalType": "address",
          "name": "from",
          "type": "address"
        },
        {
          "internalType": "address",
          "name": "to",
          "type": "address"
        },
        {
          "internalType": "uint256",
          "name": "tokenId",
          "type": "uint256"
        },
        {
          "internalType": "bytes",
          "name": "_data",
          "type": "bytes"
        }
      ],
      "name": "safeTransferFrom",
      "outputs": [],
      "stateMutability": "nonpayable",
      "type": "function"
    },
    {
      "inputs": [
        {
          "internalType": "address",
          "name": "operator",
          "type": "address"
        },
        {
          "internalType": "bool",
          "name": "approved",
          "type": "bool"
        }
      ],
      "name": "setApprovalForAll",
      "outputs": [],
      "stateMutability": "nonpayable",
      "type": "function"
    },
    {
      "inputs": [
        {
          "internalType": "string",
          "name": "newUrl",
          "type": "string"
        }
      ],
      "name": "setArweave",
      "outputs": [],
      "stateMutability": "nonpayable",
      "type": "function"
    },
    {
      "inputs": [
        {
          "internalType": "address",
          "name": "recipient",
          "type": "address"
        },
        {
          "internalType": "uint256",
          "name": "value",
          "type": "uint256"
        }
      ],
      "name": "setRoyalties",
      "outputs": [],
      "stateMutability": "nonpayable",
      "type": "function"
    },
    {
      "inputs": [
        {
          "internalType": "uint256[2]",
          "name": "newValues",
          "type": "uint256[2]"
        }
      ],
      "name": "setValues",
      "outputs": [],
      "stateMutability": "nonpayable",
      "type": "function"
    },
    {
      "inputs": [
        {
          "internalType": "bytes4",
          "name": "interfaceId",
          "type": "bytes4"
        }
      ],
      "name": "supportsInterface",
      "outputs": [
        {
          "internalType": "bool",
          "name": "",
          "type": "bool"
        }
      ],
      "stateMutability": "view",
      "type": "function"
    },
    {
      "inputs": [],
      "name": "symbol",
      "outputs": [
        {
          "internalType": "string",
          "name": "",
          "type": "string"
        }
      ],
      "stateMutability": "view",
      "type": "function"
    },
    {
      "inputs": [
        {
          "internalType": "uint256",
          "name": "tokenId",
          "type": "uint256"
        }
      ],
      "name": "tokenURI",
      "outputs": [
        {
          "internalType": "string",
          "name": "",
          "type": "string"
        }
      ],
      "stateMutability": "view",
      "type": "function"
    },
    {
      "inputs": [
        {
          "internalType": "address",
          "name": "from",
          "type": "address"
        },
        {
          "internalType": "address",
          "name": "to",
          "type": "address"
        },
        {
          "internalType": "uint256",
          "name": "tokenId",
          "type": "uint256"
        }
      ],
      "name": "transferFrom",
      "outputs": [],
      "stateMutability": "nonpayable",
      "type": "function"
    },
    {
      "inputs": [],
      "name": "weth",
      "outputs": [
        {
          "internalType": "address",
          "name": "",
          "type": "address"
        }
      ],
      "stateMutability": "view",
      "type": "function"
    }
  ],
  "transactionHash": "0xce2de7e57581ce11e0a57d43577b1ccc3d98ae0c187d81971abb15e427a64961",
  "args": [
    "0xa5409ec958c83c3f309868babaca7c86dcb077c1",
    "0x70997970C51812dc3A010C7d01b50e0d17dc79C8",
    "0x5FbDB2315678afecb367f032d93F642f64180aa3"
  ],
  "numDeployments": 1,
  "solcInputHash": "1952e2495aa77bd5d0dde1b8d8f2f769",
  "bytecode": "0x60e06040908152608081815290620026ba60a03980516200002991600a916020909101906200014f565b5060408051808201909152670de0b6b3a76400008152678ac7230489e8000060208201526200005d90600b906002620001de565b503480156200006b57600080fd5b50604051620026fa380380620026fa8339810160408190526200008e916200024e565b6040518060400160405280600e81526020016d14da59db985d1d5c9948119d5b9960921b8152506040518060400160405280600481526020016353494e4760e01b8152508482828160009080519060200190620000ed9291906200014f565b508051620001039060019060208401906200014f565b5050600880546001600160a01b03199081166001600160a01b0394851617909155600d805482169784169790971790965550600e805490951693169290921790925550620002d5915050565b8280546200015d9062000298565b90600052602060002090601f016020900481019282620001815760008555620001cc565b82601f106200019c57805160ff1916838001178555620001cc565b82800160010185558215620001cc579182015b82811115620001cc578251825591602001919060010190620001af565b50620001da9291506200021a565b5090565b8260028101928215620001cc579160200282015b82811115620001cc57825182906001600160401b0316905591602001919060010190620001f2565b5b80821115620001da57600081556001016200021b565b80516001600160a01b03811681146200024957600080fd5b919050565b6000806000606084860312156200026457600080fd5b6200026f8462000231565b92506200027f6020850162000231565b91506200028f6040850162000231565b90509250925092565b600181811c90821680620002ad57607f821691505b60208210811415620002cf57634e487b7160e01b600052602260045260246000fd5b50919050565b6123d580620002e56000396000f3fe6080604052600436106101355760003560e01c806370a08231116100ab578063bcfa249e1161006f578063bcfa249e14610382578063c75eafb3146103a2578063c87b56dd146103c2578063d241c71a146103e2578063e8a3d485146103f5578063e985e9c51461040a57600080fd5b806370a08231146102df5780638c7ea24b1461030d57806395d89b411461032d578063a22cb46514610342578063b88d4fde1461036257600080fd5b806323b872dd116100fd57806323b872dd1461020b5780632a55205a1461022b5780633fc8cef31461026a57806342842e0e1461028a57806356a419e6146102aa5780636352211e146102bf57600080fd5b806301ffc9a71461013a57806302d05d3f1461016f57806306fdde03146101a7578063081812fc146101c9578063095ea7b3146101e9575b600080fd5b34801561014657600080fd5b5061015a610155366004611e2d565b61042a565b60405190151581526020015b60405180910390f35b34801561017b57600080fd5b50600d5461018f906001600160a01b031681565b6040516001600160a01b039091168152602001610166565b3480156101b357600080fd5b506101bc61043b565b6040516101669190612108565b3480156101d557600080fd5b5061018f6101e4366004611ecd565b6104cd565b3480156101f557600080fd5b50610209610204366004611d5c565b61055a565b005b34801561021757600080fd5b50610209610226366004611c6d565b610670565b34801561023757600080fd5b5061024b610246366004611ee6565b6106a1565b604080516001600160a01b039093168352602083019190915201610166565b34801561027657600080fd5b50600e5461018f906001600160a01b031681565b34801561029657600080fd5b506102096102a5366004611c6d565b6106f6565b3480156102b657600080fd5b506101bc610711565b3480156102cb57600080fd5b5061018f6102da366004611ecd565b61079f565b3480156102eb57600080fd5b506102ff6102fa366004611c17565b610816565b604051908152602001610166565b34801561031957600080fd5b50610209610328366004611d5c565b61089d565b34801561033957600080fd5b506101bc6108d6565b34801561034e57600080fd5b5061020961035d366004611d2e565b6108e5565b34801561036e57600080fd5b5061020961037d366004611cae565b6109aa565b34801561038e57600080fd5b5061020961039d366004611d88565b6109e2565b3480156103ae57600080fd5b506102096103bd366004611e84565b610a1a565b3480156103ce57600080fd5b506101bc6103dd366004611ecd565b610a58565b6102096103f0366004611e84565b610a63565b34801561040157600080fd5b506101bc610be1565b34801561041657600080fd5b5061015a610425366004611c34565b610c01565b600061043582610cd1565b92915050565b60606000805461044a90612265565b80601f016020809104026020016040519081016040528092919081815260200182805461047690612265565b80156104c35780601f10610498576101008083540402835291602001916104c3565b820191906000526020600020905b8154815290600101906020018083116104a657829003601f168201915b5050505050905090565b60006104d882610cf6565b61053e5760405162461bcd60e51b815260206004820152602c60248201527f4552433732313a20617070726f76656420717565727920666f72206e6f6e657860448201526b34b9ba32b73a103a37b5b2b760a11b60648201526084015b60405180910390fd5b506000908152600460205260409020546001600160a01b031690565b60006105658261079f565b9050806001600160a01b0316836001600160a01b031614156105d35760405162461bcd60e51b815260206004820152602160248201527f4552433732313a20617070726f76616c20746f2063757272656e74206f776e656044820152603960f91b6064820152608401610535565b336001600160a01b03821614806105ef57506105ef8133610c01565b6106615760405162461bcd60e51b815260206004820152603860248201527f4552433732313a20617070726f76652063616c6c6572206973206e6f74206f7760448201527f6e6572206e6f7220617070726f76656420666f7220616c6c00000000000000006064820152608401610535565b61066b8383610d13565b505050565b61067a3382610d81565b6106965760405162461bcd60e51b81526004016105359061216d565b61066b838383610e43565b604080518082019091526007546001600160a01b038116808352600160a01b90910462ffffff16602083018190529091600091612710906106e29086612203565b6106ec91906121ef565b9150509250929050565b61066b838383604051806020016040528060008152506109aa565b600a805461071e90612265565b80601f016020809104026020016040519081016040528092919081815260200182805461074a90612265565b80156107975780601f1061076c57610100808354040283529160200191610797565b820191906000526020600020905b81548152906001019060200180831161077a57829003601f168201915b505050505081565b6000818152600260205260408120546001600160a01b0316806104355760405162461bcd60e51b815260206004820152602960248201527f4552433732313a206f776e657220717565727920666f72206e6f6e657869737460448201526832b73a103a37b5b2b760b91b6064820152608401610535565b60006001600160a01b0382166108815760405162461bcd60e51b815260206004820152602a60248201527f4552433732313a2062616c616e636520717565727920666f7220746865207a65604482015269726f206164647265737360b01b6064820152608401610535565b506001600160a01b031660009081526003602052604090205490565b600d546001600160a01b031633146108c85760405163ea8e4eb560e01b815260040160405180910390fd5b6108d28282610fe3565b5050565b60606001805461044a90612265565b6001600160a01b03821633141561093e5760405162461bcd60e51b815260206004820152601960248201527f4552433732313a20617070726f766520746f2063616c6c6572000000000000006044820152606401610535565b3360008181526005602090815260408083206001600160a01b03871680855290835292819020805460ff191686151590811790915590519081529192917f17307eab39ab6107e8899845ad3d59bd9653f200f220920489ca2b5937696c31910160405180910390a35050565b6109b43383610d81565b6109d05760405162461bcd60e51b81526004016105359061216d565b6109dc8484848461107f565b50505050565b600d546001600160a01b03163314610a0d5760405163ea8e4eb560e01b815260040160405180910390fd5b6108d2600b826002611adb565b600d546001600160a01b03163314610a455760405163ea8e4eb560e01b815260040160405180910390fd5b80516108d290600a906020840190611b19565b6060610435826110b2565b662386f26fc10000341015610ace5760405162461bcd60e51b815260206004820152602b60248201527f5369676e617475726546756e643a204d696e696d756d20646f6e6174696f6e2060448201526a0d2e640605c6062408aa8960ab1b6064820152608401610535565b600b54606090341015610b0557600a82604051602001610aef9291906120a4565b6040516020818303038152906040529050610b57565b600b543410801590610b185750600c5434105b15610b3157600a82604051602001610aef929190612019565b600a82604051602001610b4592919061205e565b60405160208183030381529060405290505b6000610b6260095490565b600d54909150610b7c906001600160a01b03163383611221565b610b86818361123c565b610b94600980546001019055565b80336001600160a01b03167f7b36cfa17a6d82b134b5acccdcaa6520bfda10ef841e3761108d817c4ac379173485604051610bd09291906121be565b60405180910390a361066b346112c7565b60606040518060600160405280603f8152602001612361603f9139905090565b60085460405163c455279160e01b81526001600160a01b03848116600483015260009281169190841690829063c45527919060240160206040518083038186803b158015610c4e57600080fd5b505afa158015610c62573d6000803e3d6000fd5b505050506040513d601f19601f82011682018060405250810190610c869190611e67565b6001600160a01b03161415610c9f576001915050610435565b6001600160a01b0380851660009081526005602090815260408083209387168352929052205460ff165b949350505050565b60006001600160e01b0319821663152a902d60e11b148061043557506104358261135e565b6000908152600260205260409020546001600160a01b0316151590565b600081815260046020526040902080546001600160a01b0319166001600160a01b0384169081179091558190610d488261079f565b6001600160a01b03167f8c5be1e5ebec7d5bd14f71427d1e84f3dd0314c0f7b2291e5b200ac8c7c3b92560405160405180910390a45050565b6000610d8c82610cf6565b610ded5760405162461bcd60e51b815260206004820152602c60248201527f4552433732313a206f70657261746f7220717565727920666f72206e6f6e657860448201526b34b9ba32b73a103a37b5b2b760a11b6064820152608401610535565b6000610df88361079f565b9050806001600160a01b0316846001600160a01b03161480610e335750836001600160a01b0316610e28846104cd565b6001600160a01b0316145b80610cc95750610cc98185610c01565b826001600160a01b0316610e568261079f565b6001600160a01b031614610ebe5760405162461bcd60e51b815260206004820152602960248201527f4552433732313a207472616e73666572206f6620746f6b656e2074686174206960448201526839903737ba1037bbb760b91b6064820152608401610535565b6001600160a01b038216610f205760405162461bcd60e51b8152602060048201526024808201527f4552433732313a207472616e7366657220746f20746865207a65726f206164646044820152637265737360e01b6064820152608401610535565b610f2b600082610d13565b6001600160a01b0383166000908152600360205260408120805460019290610f54908490612222565b90915550506001600160a01b0382166000908152600360205260408120805460019290610f829084906121d7565b909155505060008181526002602052604080822080546001600160a01b0319166001600160a01b0386811691821790925591518493918716917fddf252ad1be2c89b69c2b068fc378daa952ba7f163c4a11628f55a4df523b3ef91a4505050565b6127108111156110355760405162461bcd60e51b815260206004820152601a60248201527f45524332393831526f79616c746965733a20546f6f20686967680000000000006044820152606401610535565b604080518082019091526001600160a01b0390921680835262ffffff909116602090920182905260078054600160a01b9093026001600160b81b0319909316909117919091179055565b61108a848484610e43565b611096848484846113ae565b6109dc5760405162461bcd60e51b81526004016105359061211b565b60606110bd82610cf6565b6111235760405162461bcd60e51b815260206004820152603160248201527f45524337323155524953746f726167653a2055524920717565727920666f72206044820152703737b732bc34b9ba32b73a103a37b5b2b760791b6064820152608401610535565b6000828152600660205260408120805461113c90612265565b80601f016020809104026020016040519081016040528092919081815260200182805461116890612265565b80156111b55780601f1061118a576101008083540402835291602001916111b5565b820191906000526020600020905b81548152906001019060200180831161119857829003601f168201915b5050505050905060006111d360408051602081019091526000815290565b90508051600014156111e6575092915050565b815115611218578082604051602001611200929190611fea565b60405160208183030381529060405292505050919050565b610cc9846114bb565b61066b83838360405180602001604052806000815250611593565b61124582610cf6565b6112a85760405162461bcd60e51b815260206004820152602e60248201527f45524337323155524953746f726167653a2055524920736574206f66206e6f6e60448201526d32bc34b9ba32b73a103a37b5b2b760911b6064820152608401610535565b6000828152600660209081526040909120825161066b92840190611b19565b6112d0816115ab565b61135b57600e60009054906101000a90046001600160a01b03166001600160a01b031663d0e30db0826040518263ffffffff1660e01b81526004016000604051808303818588803b15801561132457600080fd5b505af1158015611338573d6000803e3d6000fd5b5050600d54600e5461135b94506001600160a01b0390811693501690508361162a565b50565b60006001600160e01b031982166380ac58cd60e01b148061138f57506001600160e01b03198216635b5e139f60e01b145b8061043557506301ffc9a760e01b6001600160e01b0319831614610435565b60006001600160a01b0384163b156114b057604051630a85bd0160e11b81526001600160a01b0385169063150b7a02906113f29033908990889088906004016120cb565b602060405180830381600087803b15801561140c57600080fd5b505af192505050801561143c575060408051601f3d908101601f1916820190925261143991810190611e4a565b60015b611496573d80801561146a576040519150601f19603f3d011682016040523d82523d6000602084013e61146f565b606091505b50805161148e5760405162461bcd60e51b81526004016105359061211b565b805181602001fd5b6001600160e01b031916630a85bd0160e11b149050610cc9565b506001949350505050565b60606114c682610cf6565b61152a5760405162461bcd60e51b815260206004820152602f60248201527f4552433732314d657461646174613a2055524920717565727920666f72206e6f60448201526e3732bc34b9ba32b73a103a37b5b2b760891b6064820152608401610535565b600061154160408051602081019091526000815290565b90506000815111611561576040518060200160405280600081525061158c565b8061156b8461167c565b60405160200161157c929190611fea565b6040516020818303038152906040525b9392505050565b61159e84848461177a565b61109660008484846113ae565b600d5460408051600080825260208201928390529283926001600160a01b03909116916175309186916115dd91611fce565b600060405180830381858888f193505050503d806000811461161b576040519150601f19603f3d011682016040523d82523d6000602084013e611620565b606091505b5090949350505050565b604080516001600160a01b038416602482015260448082018490528251808303909101815260649091019091526020810180516001600160e01b031663a9059cbb60e01b17905261066b9084906118f5565b6060816116a05750506040805180820190915260018152600360fc1b602082015290565b8160005b81156116ca57806116b4816122a0565b91506116c39050600a836121ef565b91506116a4565b60008167ffffffffffffffff8111156116e5576116e5612311565b6040519080825280601f01601f19166020018201604052801561170f576020820181803683370190505b5090505b8415610cc957611724600183612222565b9150611731600a866122bb565b61173c9060306121d7565b60f81b818381518110611751576117516122fb565b60200101906001600160f81b031916908160001a905350611773600a866121ef565b9450611713565b6001600160a01b0382166117d05760405162461bcd60e51b815260206004820181905260248201527f4552433732313a206d696e7420746f20746865207a65726f20616464726573736044820152606401610535565b6117d981610cf6565b156118265760405162461bcd60e51b815260206004820152601c60248201527f4552433732313a20746f6b656e20616c7265616479206d696e746564000000006044820152606401610535565b6001600160a01b038216600090815260036020526040812080546001929061184f9084906121d7565b909155505060008181526002602052604080822080546001600160a01b0319166001600160a01b03868116919091179091559051839291861691907fddf252ad1be2c89b69c2b068fc378daa952ba7f163c4a11628f55a4df523b3ef908290a480826001600160a01b0316846001600160a01b03167fddf252ad1be2c89b69c2b068fc378daa952ba7f163c4a11628f55a4df523b3ef60405160405180910390a4505050565b600061194a826040518060400160405280602081526020017f5361666545524332303a206c6f772d6c6576656c2063616c6c206661696c6564815250856001600160a01b03166119c79092919063ffffffff16565b80519091501561066b57808060200190518101906119689190611e10565b61066b5760405162461bcd60e51b815260206004820152602a60248201527f5361666545524332303a204552433230206f7065726174696f6e20646964206e6044820152691bdd081cdd58d8d9595960b21b6064820152608401610535565b6060610cc98484600085856001600160a01b0385163b611a295760405162461bcd60e51b815260206004820152601d60248201527f416464726573733a2063616c6c20746f206e6f6e2d636f6e74726163740000006044820152606401610535565b600080866001600160a01b03168587604051611a459190611fce565b60006040518083038185875af1925050503d8060008114611a82576040519150601f19603f3d011682016040523d82523d6000602084013e611a87565b606091505b5091509150611a97828286611aa2565b979650505050505050565b60608315611ab157508161158c565b825115611ac15782518084602001fd5b8160405162461bcd60e51b81526004016105359190612108565b8260028101928215611b09579160200282015b82811115611b09578251825591602001919060010190611aee565b50611b15929150611b8c565b5090565b828054611b2590612265565b90600052602060002090601f016020900481019282611b475760008555611b09565b82601f10611b6057805160ff1916838001178555611b09565b82800160010185558215611b095791820182811115611b09578251825591602001919060010190611aee565b5b80821115611b155760008155600101611b8d565b600067ffffffffffffffff80841115611bbc57611bbc612311565b604051601f8501601f19908116603f01168101908282118183101715611be457611be4612311565b81604052809350858152868686011115611bfd57600080fd5b858560208301376000602087830101525050509392505050565b600060208284031215611c2957600080fd5b813561158c81612327565b60008060408385031215611c4757600080fd5b8235611c5281612327565b91506020830135611c6281612327565b809150509250929050565b600080600060608486031215611c8257600080fd5b8335611c8d81612327565b92506020840135611c9d81612327565b929592945050506040919091013590565b60008060008060808587031215611cc457600080fd5b8435611ccf81612327565b93506020850135611cdf81612327565b925060408501359150606085013567ffffffffffffffff811115611d0257600080fd5b8501601f81018713611d1357600080fd5b611d2287823560208401611ba1565b91505092959194509250565b60008060408385031215611d4157600080fd5b8235611d4c81612327565b91506020830135611c628161233c565b60008060408385031215611d6f57600080fd5b8235611d7a81612327565b946020939093013593505050565b600060408284031215611d9a57600080fd5b82601f830112611da957600080fd5b6040516040810181811067ffffffffffffffff82111715611dcc57611dcc612311565b8060405250808385604086011115611de357600080fd5b60005b6002811015611e05578135835260209283019290910190600101611de6565b509195945050505050565b600060208284031215611e2257600080fd5b815161158c8161233c565b600060208284031215611e3f57600080fd5b813561158c8161234a565b600060208284031215611e5c57600080fd5b815161158c8161234a565b600060208284031215611e7957600080fd5b815161158c81612327565b600060208284031215611e9657600080fd5b813567ffffffffffffffff811115611ead57600080fd5b8201601f81018413611ebe57600080fd5b610cc984823560208401611ba1565b600060208284031215611edf57600080fd5b5035919050565b60008060408385031215611ef957600080fd5b50508035926020909101359150565b60008151808452611f20816020860160208601612239565b601f01601f19169290920160200192915050565b8054600090600181811c9080831680611f4e57607f831692505b6020808410821415611f7057634e487b7160e01b600052602260045260246000fd5b818015611f845760018114611f9557611fc2565b60ff19861689528489019650611fc2565b60008881526020902060005b86811015611fba5781548b820152908501908301611fa1565b505084890196505b50505050505092915050565b60008251611fe0818460208701612239565b9190910192915050565b60008351611ffc818460208801612239565b835190830190612010818360208801612239565b01949350505050565b60006120258285611f34565b61312f60f01b81528351612040816002840160208801612239565b64173539b7b760d91b60029290910191820152600701949350505050565b600061206a8285611f34565b6231302f60e81b81528351612086816003840160208801612239565b64173539b7b760d91b60039290910191820152600801949350505050565b60006120b08285611f34565b61302f60f01b81528351612040816002840160208801612239565b6001600160a01b03858116825284166020820152604081018390526080606082018190526000906120fe90830184611f08565b9695505050505050565b60208152600061158c6020830184611f08565b60208082526032908201527f4552433732313a207472616e7366657220746f206e6f6e20455243373231526560408201527131b2b4bb32b91034b6b83632b6b2b73a32b960711b606082015260800190565b60208082526031908201527f4552433732313a207472616e736665722063616c6c6572206973206e6f74206f6040820152701ddb995c881b9bdc88185c1c1c9bdd9959607a1b606082015260800190565b828152604060208201526000610cc96040830184611f08565b600082198211156121ea576121ea6122cf565b500190565b6000826121fe576121fe6122e5565b500490565b600081600019048311821515161561221d5761221d6122cf565b500290565b600082821015612234576122346122cf565b500390565b60005b8381101561225457818101518382015260200161223c565b838111156109dc5750506000910152565b600181811c9082168061227957607f821691505b6020821081141561229a57634e487b7160e01b600052602260045260246000fd5b50919050565b60006000198214156122b4576122b46122cf565b5060010190565b6000826122ca576122ca6122e5565b500690565b634e487b7160e01b600052601160045260246000fd5b634e487b7160e01b600052601260045260246000fd5b634e487b7160e01b600052603260045260246000fd5b634e487b7160e01b600052604160045260246000fd5b6001600160a01b038116811461135b57600080fd5b801515811461135b57600080fd5b6001600160e01b03198116811461135b57600080fdfe68747470733a2f2f617277656176652e6e65742f4a4230393677496d473370564c504c51566530746d67694a48556a724e5343745764692d6f6a7854455467a26469706673582212206e99c6ebc54d6084b162c2924f63232f2061f626f17aa165a0654058a5275d5564736f6c6343000807003368747470733a2f2f617277656176652e6e65742f786837496a6245675276634d64645f34513862756b596b51446d355a51735174374d78352d3054784231512f",
  "devdoc": {
    "kind": "dev",
    "methods": {
      "approve(address,uint256)": {
        "details": "See {IERC721-approve}."
      },
      "balanceOf(address)": {
        "details": "See {IERC721-balanceOf}."
      },
      "createSign(string)": {
        "details": "Receives donation and mints new NFT for donor",
        "params": {
          "selectedNFT": "a string that allows us to determine which NFT at which level to mint and return to the donor"
        }
      },
      "getApproved(uint256)": {
        "details": "See {IERC721-getApproved}."
      },
      "name()": {
        "details": "See {IERC721Metadata-name}."
      },
      "ownerOf(uint256)": {
        "details": "See {IERC721-ownerOf}."
      },
      "royaltyInfo(uint256,uint256)": {
        "params": {
          "_tokenId": "- the NFT asset queried for royalty information",
          "_value": "- the sale price of the NFT asset specified by _tokenId"
        },
        "returns": {
          "receiver": "- address of who should be sent the royalty payment",
          "royaltyAmount": "- the royalty payment amount for value sale price"
        }
      },
      "safeTransferFrom(address,address,uint256)": {
        "details": "See {IERC721-safeTransferFrom}."
      },
      "safeTransferFrom(address,address,uint256,bytes)": {
        "details": "See {IERC721-safeTransferFrom}."
      },
      "setApprovalForAll(address,bool)": {
        "details": "See {IERC721-setApprovalForAll}."
      },
      "setArweave(string)": {
        "params": {
          "newUrl": "a new arweave url which hosts new metadata to keep things lively"
        }
      },
      "setRoyalties(address,uint256)": {
        "params": {
          "recipient": "the royalties recipient - will always be pr1s0nart, for regulatory reasons.",
          "value": "royalties value (between 0 and 10000)"
        }
      },
      "setValues(uint256[2])": {
        "params": {
          "newValues": "a new arrray of values to go along with new metadata in case we wish to change the game and keep things infinite                  \"This idea of continued discourse, or play, can be found underneath everything we do at Kernel.                   We do not spurn rules or convention; we just contextualise them appropriately. Rules are not followed                   as a means of gaining control or power, and we do not care whose turn it is next. Rules exist in order                   to continue playing increasingly principled games with one another, always in the light of the common knowledge                   that any rule, any boundary, is just a convention, inviting ever more creative, dramatic kinds of play.\""
        }
      },
      "symbol()": {
        "details": "See {IERC721Metadata-symbol}."
      },
      "tokenURI(uint256)": {
        "details": "See {IERC721Metadata-tokenURI}."
      },
      "transferFrom(address,address,uint256)": {
        "details": "See {IERC721-transferFrom}."
      }
    },
    "version": 1
  },
  "userdoc": {
    "kind": "user",
    "methods": {
      "contractURI()": {
        "notice": "Link to contract metadata"
      },
      "isApprovedForAll(address,address)": {
        "notice": "Override isApprovedForAll to whitelist user's OpenSea proxy accounts to enable gas-less listings."
      },
      "setArweave(string)": {
        "notice": "allows the creator to update the arweave base url to change images that get minted from this point onwards"
      },
      "setRoyalties(address,uint256)": {
        "notice": "Set the royalties for the whole contract. Our intention is to set it to 10% in perpetuity."
      },
      "setValues(uint256[2])": {
        "notice": "allows the creator to update the values which determine what kind of image gets minted"
      }
    },
    "version": 1
  },
  "storageLayout": {
    "storage": [
      {
        "astId": 1855,
        "contract": "contracts/SignatureFund.sol:SignatureFund",
        "label": "_name",
        "offset": 0,
        "slot": "0",
        "type": "t_string_storage"
      },
      {
        "astId": 1857,
        "contract": "contracts/SignatureFund.sol:SignatureFund",
        "label": "_symbol",
        "offset": 0,
        "slot": "1",
        "type": "t_string_storage"
      },
      {
        "astId": 1861,
        "contract": "contracts/SignatureFund.sol:SignatureFund",
        "label": "_owners",
        "offset": 0,
        "slot": "2",
        "type": "t_mapping(t_uint256,t_address)"
      },
      {
        "astId": 1865,
        "contract": "contracts/SignatureFund.sol:SignatureFund",
        "label": "_balances",
        "offset": 0,
        "slot": "3",
        "type": "t_mapping(t_address,t_uint256)"
      },
      {
        "astId": 1869,
        "contract": "contracts/SignatureFund.sol:SignatureFund",
        "label": "_tokenApprovals",
        "offset": 0,
        "slot": "4",
        "type": "t_mapping(t_uint256,t_address)"
      },
      {
        "astId": 1875,
        "contract": "contracts/SignatureFund.sol:SignatureFund",
        "label": "_operatorApprovals",
        "offset": 0,
        "slot": "5",
        "type": "t_mapping(t_address,t_mapping(t_address,t_bool))"
      },
      {
        "astId": 2804,
        "contract": "contracts/SignatureFund.sol:SignatureFund",
        "label": "_tokenURIs",
        "offset": 0,
        "slot": "6",
        "type": "t_mapping(t_uint256,t_string_storage)"
      },
      {
        "astId": 1730,
        "contract": "contracts/SignatureFund.sol:SignatureFund",
        "label": "_royalties",
        "offset": 0,
        "slot": "7",
        "type": "t_struct(RoyaltyInfo)1806_storage"
      },
      {
        "astId": 2683,
        "contract": "contracts/SignatureFund.sol:SignatureFund",
        "label": "proxyRegistryAddress",
        "offset": 0,
        "slot": "8",
        "type": "t_address"
      },
      {
        "astId": 1164,
        "contract": "contracts/SignatureFund.sol:SignatureFund",
        "label": "_tokenIdCounter",
        "offset": 0,
        "slot": "9",
        "type": "t_struct(Counter)832_storage"
      },
      {
        "astId": 1169,
        "contract": "contracts/SignatureFund.sol:SignatureFund",
        "label": "arweaveBase",
        "offset": 0,
        "slot": "10",
        "type": "t_string_storage"
      },
      {
        "astId": 1176,
        "contract": "contracts/SignatureFund.sol:SignatureFund",
        "label": "values",
        "offset": 0,
        "slot": "11",
        "type": "t_array(t_uint256)2_storage"
      },
      {
        "astId": 1178,
        "contract": "contracts/SignatureFund.sol:SignatureFund",
        "label": "creator",
        "offset": 0,
        "slot": "13",
        "type": "t_address"
      },
      {
        "astId": 1180,
        "contract": "contracts/SignatureFund.sol:SignatureFund",
        "label": "weth",
        "offset": 0,
        "slot": "14",
        "type": "t_address"
      }
    ],
    "types": {
      "t_address": {
        "encoding": "inplace",
        "label": "address",
        "numberOfBytes": "20"
      },
      "t_array(t_uint256)2_storage": {
        "base": "t_uint256",
        "encoding": "inplace",
        "label": "uint256[2]",
        "numberOfBytes": "64"
      },
      "t_bool": {
        "encoding": "inplace",
        "label": "bool",
        "numberOfBytes": "1"
      },
      "t_mapping(t_address,t_bool)": {
        "encoding": "mapping",
        "key": "t_address",
        "label": "mapping(address => bool)",
        "numberOfBytes": "32",
        "value": "t_bool"
      },
      "t_mapping(t_address,t_mapping(t_address,t_bool))": {
        "encoding": "mapping",
        "key": "t_address",
        "label": "mapping(address => mapping(address => bool))",
        "numberOfBytes": "32",
        "value": "t_mapping(t_address,t_bool)"
      },
      "t_mapping(t_address,t_uint256)": {
        "encoding": "mapping",
        "key": "t_address",
        "label": "mapping(address => uint256)",
        "numberOfBytes": "32",
        "value": "t_uint256"
      },
      "t_mapping(t_uint256,t_address)": {
        "encoding": "mapping",
        "key": "t_uint256",
        "label": "mapping(uint256 => address)",
        "numberOfBytes": "32",
        "value": "t_address"
      },
      "t_mapping(t_uint256,t_string_storage)": {
        "encoding": "mapping",
        "key": "t_uint256",
        "label": "mapping(uint256 => string)",
        "numberOfBytes": "32",
        "value": "t_string_storage"
      },
      "t_string_storage": {
        "encoding": "bytes",
        "label": "string",
        "numberOfBytes": "32"
      },
      "t_struct(Counter)832_storage": {
        "encoding": "inplace",
        "label": "struct Counters.Counter",
        "members": [
          {
            "astId": 831,
            "contract": "contracts/SignatureFund.sol:SignatureFund",
            "label": "_value",
            "offset": 0,
            "slot": "0",
            "type": "t_uint256"
          }
        ],
        "numberOfBytes": "32"
      },
      "t_struct(RoyaltyInfo)1806_storage": {
        "encoding": "inplace",
        "label": "struct ERC2981Royalties.RoyaltyInfo",
        "members": [
          {
            "astId": 1803,
            "contract": "contracts/SignatureFund.sol:SignatureFund",
            "label": "recipient",
            "offset": 0,
            "slot": "0",
            "type": "t_address"
          },
          {
            "astId": 1805,
            "contract": "contracts/SignatureFund.sol:SignatureFund",
            "label": "amount",
            "offset": 20,
            "slot": "0",
            "type": "t_uint24"
          }
        ],
        "numberOfBytes": "32"
      },
      "t_uint24": {
        "encoding": "inplace",
        "label": "uint24",
        "numberOfBytes": "3"
      },
      "t_uint256": {
        "encoding": "inplace",
        "label": "uint256",
        "numberOfBytes": "32"
      }
    }
  }
}