{
  "address": "0x9fE46736679d2D9a65F0992F2272dE9f3c7fa6e0",
  "abi": [
    {
      "inputs": [
        {
          "internalType": "address",
          "name": "_proxyRegistryAddress",
          "type": "address"
        },
        {
          "internalType": "address",
          "name": "_creator",
          "type": "address"
        }
      ],
      "stateMutability": "nonpayable",
      "type": "constructor"
    },
    {
      "inputs": [],
      "name": "NotAuthorized",
      "type": "error"
    },
    {
      "anonymous": false,
      "inputs": [
        {
          "indexed": true,
          "internalType": "address",
          "name": "owner",
          "type": "address"
        },
        {
          "indexed": true,
          "internalType": "address",
          "name": "approved",
          "type": "address"
        },
        {
          "indexed": true,
          "internalType": "uint256",
          "name": "tokenId",
          "type": "uint256"
        }
      ],
      "name": "Approval",
      "type": "event"
    },
    {
      "anonymous": false,
      "inputs": [
        {
          "indexed": true,
          "internalType": "address",
          "name": "owner",
          "type": "address"
        },
        {
          "indexed": true,
          "internalType": "address",
          "name": "operator",
          "type": "address"
        },
        {
          "indexed": false,
          "internalType": "bool",
          "name": "approved",
          "type": "bool"
        }
      ],
      "name": "ApprovalForAll",
      "type": "event"
    },
    {
      "anonymous": false,
      "inputs": [
        {
          "indexed": false,
          "internalType": "address",
          "name": "signer",
          "type": "address"
        },
        {
          "indexed": true,
          "internalType": "uint256",
          "name": "tokenId",
          "type": "uint256"
        },
        {
          "indexed": false,
          "internalType": "uint16",
          "name": "start",
          "type": "uint16"
        },
        {
          "indexed": false,
          "internalType": "uint16",
          "name": "end",
          "type": "uint16"
        }
      ],
      "name": "NewSignature",
      "type": "event"
    },
    {
      "anonymous": false,
      "inputs": [
        {
          "indexed": true,
          "internalType": "address",
          "name": "from",
          "type": "address"
        },
        {
          "indexed": true,
          "internalType": "address",
          "name": "to",
          "type": "address"
        },
        {
          "indexed": true,
          "internalType": "uint256",
          "name": "tokenId",
          "type": "uint256"
        }
      ],
      "name": "Transfer",
      "type": "event"
    },
    {
      "inputs": [
        {
          "internalType": "address",
          "name": "to",
          "type": "address"
        },
        {
          "internalType": "uint256",
          "name": "tokenId",
          "type": "uint256"
        }
      ],
      "name": "approve",
      "outputs": [],
      "stateMutability": "nonpayable",
      "type": "function"
    },
    {
      "inputs": [],
      "name": "backup",
      "outputs": [
        {
          "internalType": "string",
          "name": "",
          "type": "string"
        }
      ],
      "stateMutability": "view",
      "type": "function"
    },
    {
      "inputs": [
        {
          "internalType": "address",
          "name": "owner",
          "type": "address"
        }
      ],
      "name": "balanceOf",
      "outputs": [
        {
          "internalType": "uint256",
          "name": "",
          "type": "uint256"
        }
      ],
      "stateMutability": "view",
      "type": "function"
    },
    {
      "inputs": [],
      "name": "contractURI",
      "outputs": [
        {
          "internalType": "string",
          "name": "",
          "type": "string"
        }
      ],
      "stateMutability": "pure",
      "type": "function"
    },
    {
      "inputs": [],
      "name": "creator",
      "outputs": [
        {
          "internalType": "address",
          "name": "",
          "type": "address"
        }
      ],
      "stateMutability": "view",
      "type": "function"
    },
    {
      "inputs": [],
      "name": "gateway",
      "outputs": [
        {
          "internalType": "string",
          "name": "",
          "type": "string"
        }
      ],
      "stateMutability": "view",
      "type": "function"
    },
    {
      "inputs": [
        {
          "internalType": "uint256",
          "name": "tokenId",
          "type": "uint256"
        }
      ],
      "name": "getApproved",
      "outputs": [
        {
          "internalType": "address",
          "name": "",
          "type": "address"
        }
      ],
      "stateMutability": "view",
      "type": "function"
    },
    {
      "inputs": [],
      "name": "imgHash",
      "outputs": [
        {
          "internalType": "string",
          "name": "",
          "type": "string"
        }
      ],
      "stateMutability": "view",
      "type": "function"
    },
    {
      "inputs": [
        {
          "internalType": "address",
          "name": "owner",
          "type": "address"
        },
        {
          "internalType": "address",
          "name": "operator",
          "type": "address"
        }
      ],
      "name": "isApprovedForAll",
      "outputs": [
        {
          "internalType": "bool",
          "name": "",
          "type": "bool"
        }
      ],
      "stateMutability": "view",
      "type": "function"
    },
    {
      "inputs": [
        {
          "internalType": "uint16",
          "name": "start",
          "type": "uint16"
        },
        {
          "internalType": "uint16",
          "name": "end",
          "type": "uint16"
        }
      ],
      "name": "mintSelected",
      "outputs": [],
      "stateMutability": "nonpayable",
      "type": "function"
    },
    {
      "inputs": [],
      "name": "name",
      "outputs": [
        {
          "internalType": "string",
          "name": "",
          "type": "string"
        }
      ],
      "stateMutability": "view",
      "type": "function"
    },
    {
      "inputs": [
        {
          "internalType": "uint256",
          "name": "tokenId",
          "type": "uint256"
        }
      ],
      "name": "ownerOf",
      "outputs": [
        {
          "internalType": "address",
          "name": "",
          "type": "address"
        }
      ],
      "stateMutability": "view",
      "type": "function"
    },
    {
      "inputs": [
        {
          "internalType": "uint256",
          "name": "",
          "type": "uint256"
        },
        {
          "internalType": "uint256",
          "name": "value",
          "type": "uint256"
        }
      ],
      "name": "royaltyInfo",
      "outputs": [
        {
          "internalType": "address",
          "name": "receiver",
          "type": "address"
        },
        {
          "internalType": "uint256",
          "name": "royaltyAmount",
          "type": "uint256"
        }
      ],
      "stateMutability": "view",
      "type": "function"
    },
    {
      "inputs": [
        {
          "internalType": "address",
          "name": "from",
          "type": "address"
        },
        {
          "internalType": "address",
          "name": "to",
          "type": "address"
        },
        {
          "internalType": "uint256",
          "name": "tokenId",
          "type": "uint256"
        }
      ],
      "name": "safeTransferFrom",
      "outputs": [],
      "stateMutability": "nonpayable",
      "type": "function"
    },
    {
      "inputs": [
        {
          "internalType": "address",
          "name": "from",
          "type": "address"
        },
        {
          "internalType": "address",
          "name": "to",
          "type": "address"
        },
        {
          "internalType": "uint256",
          "name": "tokenId",
          "type": "uint256"
        },
        {
          "internalType": "bytes",
          "name": "_data",
          "type": "bytes"
        }
      ],
      "name": "safeTransferFrom",
      "outputs": [],
      "stateMutability": "nonpayable",
      "type": "function"
    },
    {
      "inputs": [
        {
          "internalType": "uint256",
          "name": "",
          "type": "uint256"
        }
      ],
      "name": "selection",
      "outputs": [
        {
          "internalType": "uint16",
          "name": "start",
          "type": "uint16"
        },
        {
          "internalType": "uint16",
          "name": "end",
          "type": "uint16"
        }
      ],
      "stateMutability": "view",
      "type": "function"
    },
    {
      "inputs": [
        {
          "internalType": "address",
          "name": "operator",
          "type": "address"
        },
        {
          "internalType": "bool",
          "name": "approved",
          "type": "bool"
        }
      ],
      "name": "setApprovalForAll",
      "outputs": [],
      "stateMutability": "nonpayable",
      "type": "function"
    },
    {
      "inputs": [
        {
          "internalType": "address",
          "name": "recipient",
          "type": "address"
        },
        {
          "internalType": "uint256",
          "name": "value",
          "type": "uint256"
        }
      ],
      "name": "setRoyalties",
      "outputs": [],
      "stateMutability": "nonpayable",
      "type": "function"
    },
    {
      "inputs": [
        {
          "internalType": "bytes4",
          "name": "interfaceId",
          "type": "bytes4"
        }
      ],
      "name": "supportsInterface",
      "outputs": [
        {
          "internalType": "bool",
          "name": "",
          "type": "bool"
        }
      ],
      "stateMutability": "view",
      "type": "function"
    },
    {
      "inputs": [],
      "name": "symbol",
      "outputs": [
        {
          "internalType": "string",
          "name": "",
          "type": "string"
        }
      ],
      "stateMutability": "view",
      "type": "function"
    },
    {
      "inputs": [
        {
          "internalType": "uint256",
          "name": "id",
          "type": "uint256"
        }
      ],
      "name": "tokenURI",
      "outputs": [
        {
          "internalType": "string",
          "name": "",
          "type": "string"
        }
      ],
      "stateMutability": "view",
      "type": "function"
    },
    {
      "inputs": [
        {
          "internalType": "address",
          "name": "from",
          "type": "address"
        },
        {
          "internalType": "address",
          "name": "to",
          "type": "address"
        },
        {
          "internalType": "uint256",
          "name": "tokenId",
          "type": "uint256"
        }
      ],
      "name": "transferFrom",
      "outputs": [],
      "stateMutability": "nonpayable",
      "type": "function"
    },
    {
      "inputs": [
        {
          "internalType": "string",
          "name": "newGateway",
          "type": "string"
        }
      ],
      "name": "updateGateway",
      "outputs": [],
      "stateMutability": "nonpayable",
      "type": "function"
    }
  ],
  "transactionHash": "0xcea7847b59dceb14044c35816bff0da6a169c8f5a94d13956403ef8e47eb14f8",
  "args": [
    "0xa5409ec958c83c3f309868babaca7c86dcb077c1",
    "0x70997970C51812dc3A010C7d01b50e0d17dc79C8"
  ],
  "numDeployments": 1,
  "solcInputHash": "5044135578b2c472cc9077836f124e92",
  "bytecode": "0x60c0604052601560808190527f68747470733a2f2f697066732e696f2f697066732f000000000000000000000060a09081526200004091600b919062000193565b506040518060600160405280602e8152602001620023d4602e913980516200007191600c9160209091019062000193565b506040518060600160405280603f815260200162002402603f91398051620000a291600d9160209091019062000193565b50348015620000b057600080fd5b506040516200244138038062002441833981016040819052620000d39162000256565b6040518060400160405280601381526020017f5369676e61747572652045636f6e6f6d696573000000000000000000000000008152506040518060400160405280600481526020016329a4a3a760e11b81525083828281600090805190602001906200014192919062000193565b5080516200015790600190602084019062000193565b5050600880546001600160a01b039384166001600160a01b031991821617909155600e805496909316951694909417905550620002cb92505050565b828054620001a1906200028e565b90600052602060002090601f016020900481019282620001c5576000855562000210565b82601f10620001e057805160ff191683800117855562000210565b8280016001018555821562000210579182015b8281111562000210578251825591602001919060010190620001f3565b506200021e92915062000222565b5090565b5b808211156200021e576000815560010162000223565b80516001600160a01b03811681146200025157600080fd5b919050565b600080604083850312156200026a57600080fd5b620002758362000239565b9150620002856020840162000239565b90509250929050565b600181811c90821680620002a357607f821691505b60208210811415620002c557634e487b7160e01b600052602260045260246000fd5b50919050565b6120f980620002db6000396000f3fe608060405234801561001057600080fd5b506004361061014d5760003560e01c80636352211e116100c3578063b88d4fde1161007c578063b88d4fde146102c7578063c87b56dd146102da578063d016fc22146102ed578063e726168714610336578063e8a3d48514610349578063e985e9c51461035157600080fd5b80636352211e146102525780636f951f381461026557806370a08231146102785780638c7ea24b1461029957806395d89b41146102ac578063a22cb465146102b457600080fd5b8063116191b611610115578063116191b6146101e257806323b872dd146101ea5780632a55205a146101fd57806342842e0e1461022f57806350a9e127146102425780635a41c8551461024a57600080fd5b806301ffc9a71461015257806302d05d3f1461017a57806306fdde03146101a5578063081812fc146101ba578063095ea7b3146101cd575b600080fd5b610165610160366004611904565b610364565b60405190151581526020015b60405180910390f35b600e5461018d906001600160a01b031681565b6040516001600160a01b039091168152602001610171565b6101ad610375565b6040516101719190611ded565b61018d6101c83660046119d7565b610407565b6101e06101db3660046118d8565b6104a1565b005b6101ad6105b7565b6101e06101f83660046117e4565b610645565b61021061020b3660046119f0565b610676565b604080516001600160a01b039093168352602083019190915201610171565b6101e061023d3660046117e4565b6106cb565b6101ad6106e6565b6101ad6106f3565b61018d6102603660046119d7565b610700565b6101e06102733660046119a4565b610777565b61028b610286366004611787565b6108bd565b604051908152602001610171565b6101e06102a73660046118d8565b610944565b6101ad61097d565b6101e06102c23660046118a5565b61098c565b6101e06102d5366004611825565b610a51565b6101ad6102e83660046119d7565b610a89565b61031b6102fb3660046119d7565b600a6020526000908152604090205461ffff808216916201000090041682565b6040805161ffff938416815292909116602083015201610171565b6101e061034436600461195b565b610bfa565b6101ad610c38565b61016561035f3660046117ab565b610c58565b600061036f82610d28565b92915050565b60606000805461038490611f54565b80601f01602080910402602001604051908101604052809291908181526020018280546103b090611f54565b80156103fd5780601f106103d2576101008083540402835291602001916103fd565b820191906000526020600020905b8154815290600101906020018083116103e057829003601f168201915b5050505050905090565b6000818152600260205260408120546001600160a01b03166104855760405162461bcd60e51b815260206004820152602c60248201527f4552433732313a20617070726f76656420717565727920666f72206e6f6e657860448201526b34b9ba32b73a103a37b5b2b760a11b60648201526084015b60405180910390fd5b506000908152600460205260409020546001600160a01b031690565b60006104ac82610700565b9050806001600160a01b0316836001600160a01b0316141561051a5760405162461bcd60e51b815260206004820152602160248201527f4552433732313a20617070726f76616c20746f2063757272656e74206f776e656044820152603960f91b606482015260840161047c565b336001600160a01b038216148061053657506105368133610c58565b6105a85760405162461bcd60e51b815260206004820152603860248201527f4552433732313a20617070726f76652063616c6c6572206973206e6f74206f7760448201527f6e6572206e6f7220617070726f76656420666f7220616c6c0000000000000000606482015260840161047c565b6105b28383610d4d565b505050565b600b80546105c490611f54565b80601f01602080910402602001604051908101604052809291908181526020018280546105f090611f54565b801561063d5780601f106106125761010080835404028352916020019161063d565b820191906000526020600020905b81548152906001019060200180831161062057829003601f168201915b505050505081565b61064f3382610dbb565b61066b5760405162461bcd60e51b815260040161047c90611e52565b6105b2838383610e8a565b604080518082019091526007546001600160a01b038116808352600160a01b90910462ffffff16602083018190529091600091612710906106b79086611ecf565b6106c19190611ebb565b9150509250929050565b6105b283838360405180602001604052806000815250610a51565b600d80546105c490611f54565b600c80546105c490611f54565b6000818152600260205260408120546001600160a01b03168061036f5760405162461bcd60e51b815260206004820152602960248201527f4552433732313a206f776e657220717565727920666f72206e6f6e657869737460448201526832b73a103a37b5b2b760b91b606482015260840161047c565b8061ffff168261ffff1610801561078c575060015b801561079e57506130af8161ffff1611155b80156107b957506102056107b28383611eee565b61ffff1611155b6107f55760405162461bcd60e51b815260206004820152600d60248201526c092dcecc2d8d2c840d2dcc8caf609b1b604482015260640161047c565b600061080060095490565b60408051808201825261ffff808716825285811660208084019182526000868152600a909152939093209151825493518216620100000263ffffffff19909416911617919091179055600e54909150610863906001600160a01b0316338361102a565b610871600980546001019055565b6040805133815261ffff8581166020830152841681830152905182917f33544f5c3a1a056bc1ca444c63ba29f441dad27582b6fe53231f9ba7f197c52b919081900360600190a2505050565b60006001600160a01b0382166109285760405162461bcd60e51b815260206004820152602a60248201527f4552433732313a2062616c616e636520717565727920666f7220746865207a65604482015269726f206164647265737360b01b606482015260840161047c565b506001600160a01b031660009081526003602052604090205490565b600e546001600160a01b0316331461096f5760405163ea8e4eb560e01b815260040160405180910390fd5b6109798282611045565b5050565b60606001805461038490611f54565b6001600160a01b0382163314156109e55760405162461bcd60e51b815260206004820152601960248201527f4552433732313a20617070726f766520746f2063616c6c657200000000000000604482015260640161047c565b3360008181526005602090815260408083206001600160a01b03871680855290835292819020805460ff191686151590811790915590519081529192917f17307eab39ab6107e8899845ad3d59bd9653f200f220920489ca2b5937696c31910160405180910390a35050565b610a5b3383610dbb565b610a775760405162461bcd60e51b815260040161047c90611e52565b610a83848484846110e1565b50505050565b6000818152600260205260409020546060906001600160a01b0316610adc5760405162461bcd60e51b81526020600482015260096024820152681b9bdd08195e1a5cdd60ba1b604482015260640161047c565b6000828152600a6020908152604080832081518083019092525461ffff8082168084526201000090920416928201929092529190600b90600c90610b1f90611114565b610b30856020015161ffff16611114565b604051602001610b439493929190611af4565b60405160208183030381529060405290506000600d610b69846000015161ffff16611114565b610b7a856020015161ffff16611114565b604051602001610b8c93929190611b54565b6040516020818303038152906040529050610bd1610ba986611114565b8284604051602001610bbd93929190611baa565b604051602081830303815290604052611212565b604051602001610be19190611d75565b6040516020818303038152906040529350505050919050565b600e546001600160a01b03163314610c255760405163ea8e4eb560e01b815260040160405180910390fd5b805161097990600b906020840190611661565b60606040518060600160405280603f8152602001612085603f9139905090565b60085460405163c455279160e01b81526001600160a01b03848116600483015260009281169190841690829063c45527919060240160206040518083038186803b158015610ca557600080fd5b505afa158015610cb9573d6000803e3d6000fd5b505050506040513d601f19601f82011682018060405250810190610cdd919061193e565b6001600160a01b03161415610cf657600191505061036f565b6001600160a01b0380851660009081526005602090815260408083209387168352929052205460ff165b949350505050565b60006001600160e01b0319821663152a902d60e11b148061036f575061036f82611366565b600081815260046020526040902080546001600160a01b0319166001600160a01b0384169081179091558190610d8282610700565b6001600160a01b03167f8c5be1e5ebec7d5bd14f71427d1e84f3dd0314c0f7b2291e5b200ac8c7c3b92560405160405180910390a45050565b6000818152600260205260408120546001600160a01b0316610e345760405162461bcd60e51b815260206004820152602c60248201527f4552433732313a206f70657261746f7220717565727920666f72206e6f6e657860448201526b34b9ba32b73a103a37b5b2b760a11b606482015260840161047c565b6000610e3f83610700565b9050806001600160a01b0316846001600160a01b03161480610e7a5750836001600160a01b0316610e6f84610407565b6001600160a01b0316145b80610d205750610d208185610c58565b826001600160a01b0316610e9d82610700565b6001600160a01b031614610f055760405162461bcd60e51b815260206004820152602960248201527f4552433732313a207472616e73666572206f6620746f6b656e2074686174206960448201526839903737ba1037bbb760b91b606482015260840161047c565b6001600160a01b038216610f675760405162461bcd60e51b8152602060048201526024808201527f4552433732313a207472616e7366657220746f20746865207a65726f206164646044820152637265737360e01b606482015260840161047c565b610f72600082610d4d565b6001600160a01b0383166000908152600360205260408120805460019290610f9b908490611f11565b90915550506001600160a01b0382166000908152600360205260408120805460019290610fc9908490611ea3565b909155505060008181526002602052604080822080546001600160a01b0319166001600160a01b0386811691821790925591518493918716917fddf252ad1be2c89b69c2b068fc378daa952ba7f163c4a11628f55a4df523b3ef91a4505050565b6105b2838383604051806020016040528060008152506113b6565b6127108111156110975760405162461bcd60e51b815260206004820152601a60248201527f45524332393831526f79616c746965733a20546f6f2068696768000000000000604482015260640161047c565b604080518082019091526001600160a01b0390921680835262ffffff909116602090920182905260078054600160a01b9093026001600160b81b0319909316909117919091179055565b6110ec848484610e8a565b6110f8848484846113ca565b610a835760405162461bcd60e51b815260040161047c90611e00565b6060816111385750506040805180820190915260018152600360fc1b602082015290565b8160005b8115611162578061114c81611f8f565b915061115b9050600a83611ebb565b915061113c565b60008167ffffffffffffffff81111561117d5761117d612000565b6040519080825280601f01601f1916602001820160405280156111a7576020820181803683370190505b5090505b8415610d20576111bc600183611f11565b91506111c9600a86611faa565b6111d4906030611ea3565b60f81b8183815181106111e9576111e9611fea565b60200101906001600160f81b031916908160001a90535061120b600a86611ebb565b94506111ab565b606081516000141561123257505060408051602081019091526000815290565b600060405180606001604052806040815260200161204560409139905060006003845160026112619190611ea3565b61126b9190611ebb565b611276906004611ecf565b67ffffffffffffffff81111561128e5761128e612000565b6040519080825280601f01601f1916602001820160405280156112b8576020820181803683370190505b509050600182016020820185865187015b80821015611324576003820191508151603f8160121c168501518453600184019350603f81600c1c168501518453600184019350603f8160061c168501518453600184019350603f81168501518453506001830192506112c9565b505060038651066001811461134057600281146113535761135b565b603d6001830353603d600283035361135b565b603d60018303535b509195945050505050565b60006001600160e01b031982166380ac58cd60e01b148061139757506001600160e01b03198216635b5e139f60e01b145b8061036f57506301ffc9a760e01b6001600160e01b031983161461036f565b6113c18484846114d7565b6110f860008484845b60006001600160a01b0384163b156114cc57604051630a85bd0160e11b81526001600160a01b0385169063150b7a029061140e903390899088908890600401611dba565b602060405180830381600087803b15801561142857600080fd5b505af1925050508015611458575060408051601f3d908101601f1916820190925261145591810190611921565b60015b6114b2573d808015611486576040519150601f19603f3d011682016040523d82523d6000602084013e61148b565b606091505b5080516114aa5760405162461bcd60e51b815260040161047c90611e00565b805181602001fd5b6001600160e01b031916630a85bd0160e11b149050610d20565b506001949350505050565b6001600160a01b03821661152d5760405162461bcd60e51b815260206004820181905260248201527f4552433732313a206d696e7420746f20746865207a65726f2061646472657373604482015260640161047c565b6000818152600260205260409020546001600160a01b0316156115925760405162461bcd60e51b815260206004820152601c60248201527f4552433732313a20746f6b656e20616c7265616479206d696e74656400000000604482015260640161047c565b6001600160a01b03821660009081526003602052604081208054600192906115bb908490611ea3565b909155505060008181526002602052604080822080546001600160a01b0319166001600160a01b03868116919091179091559051839291861691907fddf252ad1be2c89b69c2b068fc378daa952ba7f163c4a11628f55a4df523b3ef908290a480826001600160a01b0316846001600160a01b03167fddf252ad1be2c89b69c2b068fc378daa952ba7f163c4a11628f55a4df523b3ef60405160405180910390a4505050565b82805461166d90611f54565b90600052602060002090601f01602090048101928261168f57600085556116d5565b82601f106116a857805160ff19168380011785556116d5565b828001600101855582156116d5579182015b828111156116d55782518255916020019190600101906116ba565b506116e19291506116e5565b5090565b5b808211156116e157600081556001016116e6565b600067ffffffffffffffff8084111561171557611715612000565b604051601f8501601f19908116603f0116810190828211818310171561173d5761173d612000565b8160405280935085815286868601111561175657600080fd5b858560208301376000602087830101525050509392505050565b803561ffff8116811461178257600080fd5b919050565b60006020828403121561179957600080fd5b81356117a481612016565b9392505050565b600080604083850312156117be57600080fd5b82356117c981612016565b915060208301356117d981612016565b809150509250929050565b6000806000606084860312156117f957600080fd5b833561180481612016565b9250602084013561181481612016565b929592945050506040919091013590565b6000806000806080858703121561183b57600080fd5b843561184681612016565b9350602085013561185681612016565b925060408501359150606085013567ffffffffffffffff81111561187957600080fd5b8501601f8101871361188a57600080fd5b611899878235602084016116fa565b91505092959194509250565b600080604083850312156118b857600080fd5b82356118c381612016565b9150602083013580151581146117d957600080fd5b600080604083850312156118eb57600080fd5b82356118f681612016565b946020939093013593505050565b60006020828403121561191657600080fd5b81356117a48161202e565b60006020828403121561193357600080fd5b81516117a48161202e565b60006020828403121561195057600080fd5b81516117a481612016565b60006020828403121561196d57600080fd5b813567ffffffffffffffff81111561198457600080fd5b8201601f8101841361199557600080fd5b610d20848235602084016116fa565b600080604083850312156119b757600080fd5b6119c083611770565b91506119ce60208401611770565b90509250929050565b6000602082840312156119e957600080fd5b5035919050565b60008060408385031215611a0357600080fd5b50508035926020909101359150565b60008151808452611a2a816020860160208601611f28565b601f01601f19169290920160200192915050565b60008151611a50818560208601611f28565b9290920192915050565b8054600090600181811c9080831680611a7457607f831692505b6020808410821415611a9657634e487b7160e01b600052602260045260246000fd5b818015611aaa5760018114611abb57611ae8565b60ff19861689528489019650611ae8565b60008881526020902060005b86811015611ae05781548b820152908501908301611ac7565b505084890196505b50505050505092915050565b6000611b09611b038388611a5a565b86611a5a565b612f2360f01b81528451611b24816002840160208901611f28565b602d60f81b600292909101918201528351611b46816003840160208801611f28565b016003019695505050505050565b6000611b608286611a5a565b612f2360f01b81528451611b7b816002840160208901611f28565b602d60f81b600292909101918201528351611b9d816003840160208801611f28565b0160030195945050505050565b7f7b226e616d65223a225369676e6174757265204e465420230000000000000000815260008451611be2816018850160208901611f28565b7f222c226465736372697074696f6e223a224120756e69717565207369676e206f6018918401918201527f66206f75722074696d65732c2073656c656374656420746f207265707265736560388201527f6e7420696e6372656173696e676c79207369676e69666963616e74206d6f6e6560588201527f7920696e207468697320696e66696e6974652067616d6520776520617265207060788201527f6c6179696e6720746f6765746865722e20417320796f7520636f6e736964657260988201527f20746865736520756e697175652073796d626f6c732c2072656d656d6265722060b88201527f74686174207765616c7468207472756c79206d65616e7320686176696e67206560d88201527f6e6f75676820746f2073686172652e222c2265787465726e616c5f75726c223a60f8820152601160f91b610118820152611d6b611d5d611d57611d38610119850189611a3e565b7211161130b734b6b0ba34b7b72fbab936111d1160691b815260130190565b86611a3e565b61227d60f01b815260020190565b9695505050505050565b7f646174613a6170706c69636174696f6e2f6a736f6e3b6261736536342c000000815260008251611dad81601d850160208701611f28565b91909101601d0192915050565b6001600160a01b0385811682528416602082015260408101839052608060608201819052600090611d6b90830184611a12565b6020815260006117a46020830184611a12565b60208082526032908201527f4552433732313a207472616e7366657220746f206e6f6e20455243373231526560408201527131b2b4bb32b91034b6b83632b6b2b73a32b960711b606082015260800190565b60208082526031908201527f4552433732313a207472616e736665722063616c6c6572206973206e6f74206f6040820152701ddb995c881b9bdc88185c1c1c9bdd9959607a1b606082015260800190565b60008219821115611eb657611eb6611fbe565b500190565b600082611eca57611eca611fd4565b500490565b6000816000190483118215151615611ee957611ee9611fbe565b500290565b600061ffff83811690831681811015611f0957611f09611fbe565b039392505050565b600082821015611f2357611f23611fbe565b500390565b60005b83811015611f43578181015183820152602001611f2b565b83811115610a835750506000910152565b600181811c90821680611f6857607f821691505b60208210811415611f8957634e487b7160e01b600052602260045260246000fd5b50919050565b6000600019821415611fa357611fa3611fbe565b5060010190565b600082611fb957611fb9611fd4565b500690565b634e487b7160e01b600052601160045260246000fd5b634e487b7160e01b600052601260045260246000fd5b634e487b7160e01b600052603260045260246000fd5b634e487b7160e01b600052604160045260246000fd5b6001600160a01b038116811461202b57600080fd5b50565b6001600160e01b03198116811461202b57600080fdfe4142434445464748494a4b4c4d4e4f505152535455565758595a6162636465666768696a6b6c6d6e6f707172737475767778797a303132333435363738392b2f68747470733a2f2f617277656176652e6e65742f686837414e4644665f4c767a6b747168774f7a4d6b49614f6c7664685f54325f57515259316b5173633159a26469706673582212206eb53c4c04eca415bac00eb6d4073921bea1760417bca5fbc9ca1a1c3df93ea264736f6c63430008070033516d5341526d6f6d6b41375269317975756e5a346479517a5a4468517a447345653553696a4c6d376446356b394d68747470733a2f2f617277656176652e6e65742f757233636d5168456d495941622d5359595231764c2d4f544b346c75544f73686b375770744a3256415a55",
  "devdoc": {
    "kind": "dev",
    "methods": {
      "approve(address,uint256)": {
        "details": "See {IERC721-approve}."
      },
      "balanceOf(address)": {
        "details": "See {IERC721-balanceOf}."
      },
      "getApproved(uint256)": {
        "details": "See {IERC721-getApproved}."
      },
      "mintSelected(uint16,uint16)": {
        "params": {
          "end": "the word index where the chosen highlight ends",
          "start": "the word index the chosen highlight starts on"
        }
      },
      "name()": {
        "details": "See {IERC721Metadata-name}."
      },
      "ownerOf(uint256)": {
        "details": "See {IERC721-ownerOf}."
      },
      "royaltyInfo(uint256,uint256)": {
        "params": {
          "_tokenId": "- the NFT asset queried for royalty information",
          "_value": "- the sale price of the NFT asset specified by _tokenId"
        },
        "returns": {
          "receiver": "- address of who should be sent the royalty payment",
          "royaltyAmount": "- the royalty payment amount for value sale price"
        }
      },
      "safeTransferFrom(address,address,uint256)": {
        "details": "See {IERC721-safeTransferFrom}."
      },
      "safeTransferFrom(address,address,uint256,bytes)": {
        "details": "See {IERC721-safeTransferFrom}."
      },
      "setApprovalForAll(address,bool)": {
        "details": "See {IERC721-setApprovalForAll}."
      },
      "setRoyalties(address,uint256)": {
        "params": {
          "recipient": "the royalties recipient - will always be pr1s0nart, for regulatory reasons.",
          "value": "royalties value (between 0 and 10000)"
        }
      },
      "symbol()": {
        "details": "See {IERC721Metadata-symbol}."
      },
      "tokenURI(uint256)": {
        "params": {
          "id": "the tokenId for which we are querying the metadata"
        }
      },
      "transferFrom(address,address,uint256)": {
        "details": "See {IERC721-transferFrom}."
      }
    },
    "version": 1
  },
  "userdoc": {
    "kind": "user",
    "methods": {
      "contractURI()": {
        "notice": "Link to contract metadata"
      },
      "isApprovedForAll(address,address)": {
        "notice": "Override isApprovedForAll to whitelist user's OpenSea proxy accounts to enable gas-less listings."
      },
      "mintSelected(uint16,uint16)": {
        "notice": "mints a unique NFT from some user-selected piece of text (which we make into an image & store in Arweave)"
      },
      "setRoyalties(address,uint256)": {
        "notice": "Set the royalties for the whole contract. Our intention is to set it to 10% in perpetuity."
      },
      "tokenURI(uint256)": {
        "notice": "this overrides the usual tokenURI to return base64 encoded metadata and, in particular, an animation_url rather than an           image field, because that is how secondary marketplaces will display the image generated by our little React img generator           living immutably on IPFS."
      },
      "updateGateway(string)": {
        "notice": "in case the IPFS gateway ever goes down and we need to move to another, more local, solution"
      }
    },
    "version": 1
  },
  "storageLayout": {
    "storage": [
      {
        "astId": 1877,
        "contract": "contracts/SignatureNFT.sol:SignatureNFT",
        "label": "_name",
        "offset": 0,
        "slot": "0",
        "type": "t_string_storage"
      },
      {
        "astId": 1879,
        "contract": "contracts/SignatureNFT.sol:SignatureNFT",
        "label": "_symbol",
        "offset": 0,
        "slot": "1",
        "type": "t_string_storage"
      },
      {
        "astId": 1883,
        "contract": "contracts/SignatureNFT.sol:SignatureNFT",
        "label": "_owners",
        "offset": 0,
        "slot": "2",
        "type": "t_mapping(t_uint256,t_address)"
      },
      {
        "astId": 1887,
        "contract": "contracts/SignatureNFT.sol:SignatureNFT",
        "label": "_balances",
        "offset": 0,
        "slot": "3",
        "type": "t_mapping(t_address,t_uint256)"
      },
      {
        "astId": 1891,
        "contract": "contracts/SignatureNFT.sol:SignatureNFT",
        "label": "_tokenApprovals",
        "offset": 0,
        "slot": "4",
        "type": "t_mapping(t_uint256,t_address)"
      },
      {
        "astId": 1897,
        "contract": "contracts/SignatureNFT.sol:SignatureNFT",
        "label": "_operatorApprovals",
        "offset": 0,
        "slot": "5",
        "type": "t_mapping(t_address,t_mapping(t_address,t_bool))"
      },
      {
        "astId": 2826,
        "contract": "contracts/SignatureNFT.sol:SignatureNFT",
        "label": "_tokenURIs",
        "offset": 0,
        "slot": "6",
        "type": "t_mapping(t_uint256,t_string_storage)"
      },
      {
        "astId": 1752,
        "contract": "contracts/SignatureNFT.sol:SignatureNFT",
        "label": "_royalties",
        "offset": 0,
        "slot": "7",
        "type": "t_struct(RoyaltyInfo)1828_storage"
      },
      {
        "astId": 2705,
        "contract": "contracts/SignatureNFT.sol:SignatureNFT",
        "label": "proxyRegistryAddress",
        "offset": 0,
        "slot": "8",
        "type": "t_address"
      },
      {
        "astId": 1477,
        "contract": "contracts/SignatureNFT.sol:SignatureNFT",
        "label": "_tokenIdCounter",
        "offset": 0,
        "slot": "9",
        "type": "t_struct(Counter)832_storage"
      },
      {
        "astId": 1489,
        "contract": "contracts/SignatureNFT.sol:SignatureNFT",
        "label": "selection",
        "offset": 0,
        "slot": "10",
        "type": "t_mapping(t_uint256,t_struct(Highlight)1484_storage)"
      },
      {
        "astId": 1492,
        "contract": "contracts/SignatureNFT.sol:SignatureNFT",
        "label": "gateway",
        "offset": 0,
        "slot": "11",
        "type": "t_string_storage"
      },
      {
        "astId": 1495,
        "contract": "contracts/SignatureNFT.sol:SignatureNFT",
        "label": "imgHash",
        "offset": 0,
        "slot": "12",
        "type": "t_string_storage"
      },
      {
        "astId": 1498,
        "contract": "contracts/SignatureNFT.sol:SignatureNFT",
        "label": "backup",
        "offset": 0,
        "slot": "13",
        "type": "t_string_storage"
      },
      {
        "astId": 1500,
        "contract": "contracts/SignatureNFT.sol:SignatureNFT",
        "label": "creator",
        "offset": 0,
        "slot": "14",
        "type": "t_address"
      }
    ],
    "types": {
      "t_address": {
        "encoding": "inplace",
        "label": "address",
        "numberOfBytes": "20"
      },
      "t_bool": {
        "encoding": "inplace",
        "label": "bool",
        "numberOfBytes": "1"
      },
      "t_mapping(t_address,t_bool)": {
        "encoding": "mapping",
        "key": "t_address",
        "label": "mapping(address => bool)",
        "numberOfBytes": "32",
        "value": "t_bool"
      },
      "t_mapping(t_address,t_mapping(t_address,t_bool))": {
        "encoding": "mapping",
        "key": "t_address",
        "label": "mapping(address => mapping(address => bool))",
        "numberOfBytes": "32",
        "value": "t_mapping(t_address,t_bool)"
      },
      "t_mapping(t_address,t_uint256)": {
        "encoding": "mapping",
        "key": "t_address",
        "label": "mapping(address => uint256)",
        "numberOfBytes": "32",
        "value": "t_uint256"
      },
      "t_mapping(t_uint256,t_address)": {
        "encoding": "mapping",
        "key": "t_uint256",
        "label": "mapping(uint256 => address)",
        "numberOfBytes": "32",
        "value": "t_address"
      },
      "t_mapping(t_uint256,t_string_storage)": {
        "encoding": "mapping",
        "key": "t_uint256",
        "label": "mapping(uint256 => string)",
        "numberOfBytes": "32",
        "value": "t_string_storage"
      },
      "t_mapping(t_uint256,t_struct(Highlight)1484_storage)": {
        "encoding": "mapping",
        "key": "t_uint256",
        "label": "mapping(uint256 => struct SignatureNFT.Highlight)",
        "numberOfBytes": "32",
        "value": "t_struct(Highlight)1484_storage"
      },
      "t_string_storage": {
        "encoding": "bytes",
        "label": "string",
        "numberOfBytes": "32"
      },
      "t_struct(Counter)832_storage": {
        "encoding": "inplace",
        "label": "struct Counters.Counter",
        "members": [
          {
            "astId": 831,
            "contract": "contracts/SignatureNFT.sol:SignatureNFT",
            "label": "_value",
            "offset": 0,
            "slot": "0",
            "type": "t_uint256"
          }
        ],
        "numberOfBytes": "32"
      },
      "t_struct(Highlight)1484_storage": {
        "encoding": "inplace",
        "label": "struct SignatureNFT.Highlight",
        "members": [
          {
            "astId": 1481,
            "contract": "contracts/SignatureNFT.sol:SignatureNFT",
            "label": "start",
            "offset": 0,
            "slot": "0",
            "type": "t_uint16"
          },
          {
            "astId": 1483,
            "contract": "contracts/SignatureNFT.sol:SignatureNFT",
            "label": "end",
            "offset": 2,
            "slot": "0",
            "type": "t_uint16"
          }
        ],
        "numberOfBytes": "32"
      },
      "t_struct(RoyaltyInfo)1828_storage": {
        "encoding": "inplace",
        "label": "struct ERC2981Royalties.RoyaltyInfo",
        "members": [
          {
            "astId": 1825,
            "contract": "contracts/SignatureNFT.sol:SignatureNFT",
            "label": "recipient",
            "offset": 0,
            "slot": "0",
            "type": "t_address"
          },
          {
            "astId": 1827,
            "contract": "contracts/SignatureNFT.sol:SignatureNFT",
            "label": "amount",
            "offset": 20,
            "slot": "0",
            "type": "t_uint24"
          }
        ],
        "numberOfBytes": "32"
      },
      "t_uint16": {
        "encoding": "inplace",
        "label": "uint16",
        "numberOfBytes": "2"
      },
      "t_uint24": {
        "encoding": "inplace",
        "label": "uint24",
        "numberOfBytes": "3"
      },
      "t_uint256": {
        "encoding": "inplace",
        "label": "uint256",
        "numberOfBytes": "32"
      }
    }
  }
}