{
  "address": "0x9fE46736679d2D9a65F0992F2272dE9f3c7fa6e0",
  "abi": [
    {
      "inputs": [
        {
          "internalType": "address",
          "name": "_proxyRegistryAddress",
          "type": "address"
        },
        {
          "internalType": "address",
          "name": "_creator",
          "type": "address"
        }
      ],
      "stateMutability": "nonpayable",
      "type": "constructor"
    },
    {
      "anonymous": false,
      "inputs": [
        {
          "indexed": true,
          "internalType": "address",
          "name": "owner",
          "type": "address"
        },
        {
          "indexed": true,
          "internalType": "address",
          "name": "approved",
          "type": "address"
        },
        {
          "indexed": true,
          "internalType": "uint256",
          "name": "tokenId",
          "type": "uint256"
        }
      ],
      "name": "Approval",
      "type": "event"
    },
    {
      "anonymous": false,
      "inputs": [
        {
          "indexed": true,
          "internalType": "address",
          "name": "owner",
          "type": "address"
        },
        {
          "indexed": true,
          "internalType": "address",
          "name": "operator",
          "type": "address"
        },
        {
          "indexed": false,
          "internalType": "bool",
          "name": "approved",
          "type": "bool"
        }
      ],
      "name": "ApprovalForAll",
      "type": "event"
    },
    {
      "anonymous": false,
      "inputs": [
        {
          "indexed": false,
          "internalType": "address",
          "name": "signer",
          "type": "address"
        },
        {
          "indexed": true,
          "internalType": "uint256",
          "name": "tokenId",
          "type": "uint256"
        },
        {
          "indexed": false,
          "internalType": "string",
          "name": "uri",
          "type": "string"
        }
      ],
      "name": "NewSignature",
      "type": "event"
    },
    {
      "anonymous": false,
      "inputs": [
        {
          "indexed": true,
          "internalType": "address",
          "name": "from",
          "type": "address"
        },
        {
          "indexed": true,
          "internalType": "address",
          "name": "to",
          "type": "address"
        },
        {
          "indexed": true,
          "internalType": "uint256",
          "name": "tokenId",
          "type": "uint256"
        }
      ],
      "name": "Transfer",
      "type": "event"
    },
    {
      "inputs": [
        {
          "internalType": "address",
          "name": "to",
          "type": "address"
        },
        {
          "internalType": "uint256",
          "name": "tokenId",
          "type": "uint256"
        }
      ],
      "name": "approve",
      "outputs": [],
      "stateMutability": "nonpayable",
      "type": "function"
    },
    {
      "inputs": [
        {
          "internalType": "address",
          "name": "owner",
          "type": "address"
        }
      ],
      "name": "balanceOf",
      "outputs": [
        {
          "internalType": "uint256",
          "name": "",
          "type": "uint256"
        }
      ],
      "stateMutability": "view",
      "type": "function"
    },
    {
      "inputs": [],
      "name": "contractURI",
      "outputs": [
        {
          "internalType": "string",
          "name": "",
          "type": "string"
        }
      ],
      "stateMutability": "pure",
      "type": "function"
    },
    {
      "inputs": [],
      "name": "creator",
      "outputs": [
        {
          "internalType": "address",
          "name": "",
          "type": "address"
        }
      ],
      "stateMutability": "view",
      "type": "function"
    },
    {
      "inputs": [
        {
          "internalType": "uint256",
          "name": "tokenId",
          "type": "uint256"
        }
      ],
      "name": "getApproved",
      "outputs": [
        {
          "internalType": "address",
          "name": "",
          "type": "address"
        }
      ],
      "stateMutability": "view",
      "type": "function"
    },
    {
      "inputs": [
        {
          "internalType": "address",
          "name": "owner",
          "type": "address"
        },
        {
          "internalType": "address",
          "name": "operator",
          "type": "address"
        }
      ],
      "name": "isApprovedForAll",
      "outputs": [
        {
          "internalType": "bool",
          "name": "",
          "type": "bool"
        }
      ],
      "stateMutability": "view",
      "type": "function"
    },
    {
      "inputs": [
        {
          "internalType": "string",
          "name": "uri",
          "type": "string"
        }
      ],
      "name": "mintSelected",
      "outputs": [],
      "stateMutability": "nonpayable",
      "type": "function"
    },
    {
      "inputs": [],
      "name": "name",
      "outputs": [
        {
          "internalType": "string",
          "name": "",
          "type": "string"
        }
      ],
      "stateMutability": "view",
      "type": "function"
    },
    {
      "inputs": [
        {
          "internalType": "uint256",
          "name": "tokenId",
          "type": "uint256"
        }
      ],
      "name": "ownerOf",
      "outputs": [
        {
          "internalType": "address",
          "name": "",
          "type": "address"
        }
      ],
      "stateMutability": "view",
      "type": "function"
    },
    {
      "inputs": [
        {
          "internalType": "uint256",
          "name": "",
          "type": "uint256"
        },
        {
          "internalType": "uint256",
          "name": "value",
          "type": "uint256"
        }
      ],
      "name": "royaltyInfo",
      "outputs": [
        {
          "internalType": "address",
          "name": "receiver",
          "type": "address"
        },
        {
          "internalType": "uint256",
          "name": "royaltyAmount",
          "type": "uint256"
        }
      ],
      "stateMutability": "view",
      "type": "function"
    },
    {
      "inputs": [
        {
          "internalType": "address",
          "name": "from",
          "type": "address"
        },
        {
          "internalType": "address",
          "name": "to",
          "type": "address"
        },
        {
          "internalType": "uint256",
          "name": "tokenId",
          "type": "uint256"
        }
      ],
      "name": "safeTransferFrom",
      "outputs": [],
      "stateMutability": "nonpayable",
      "type": "function"
    },
    {
      "inputs": [
        {
          "internalType": "address",
          "name": "from",
          "type": "address"
        },
        {
          "internalType": "address",
          "name": "to",
          "type": "address"
        },
        {
          "internalType": "uint256",
          "name": "tokenId",
          "type": "uint256"
        },
        {
          "internalType": "bytes",
          "name": "_data",
          "type": "bytes"
        }
      ],
      "name": "safeTransferFrom",
      "outputs": [],
      "stateMutability": "nonpayable",
      "type": "function"
    },
    {
      "inputs": [
        {
          "internalType": "address",
          "name": "operator",
          "type": "address"
        },
        {
          "internalType": "bool",
          "name": "approved",
          "type": "bool"
        }
      ],
      "name": "setApprovalForAll",
      "outputs": [],
      "stateMutability": "nonpayable",
      "type": "function"
    },
    {
      "inputs": [
        {
          "internalType": "address",
          "name": "recipient",
          "type": "address"
        },
        {
          "internalType": "uint256",
          "name": "value",
          "type": "uint256"
        }
      ],
      "name": "setRoyalties",
      "outputs": [],
      "stateMutability": "nonpayable",
      "type": "function"
    },
    {
      "inputs": [
        {
          "internalType": "bytes4",
          "name": "interfaceId",
          "type": "bytes4"
        }
      ],
      "name": "supportsInterface",
      "outputs": [
        {
          "internalType": "bool",
          "name": "",
          "type": "bool"
        }
      ],
      "stateMutability": "view",
      "type": "function"
    },
    {
      "inputs": [],
      "name": "symbol",
      "outputs": [
        {
          "internalType": "string",
          "name": "",
          "type": "string"
        }
      ],
      "stateMutability": "view",
      "type": "function"
    },
    {
      "inputs": [
        {
          "internalType": "uint256",
          "name": "tokenId",
          "type": "uint256"
        }
      ],
      "name": "tokenURI",
      "outputs": [
        {
          "internalType": "string",
          "name": "",
          "type": "string"
        }
      ],
      "stateMutability": "view",
      "type": "function"
    },
    {
      "inputs": [
        {
          "internalType": "address",
          "name": "from",
          "type": "address"
        },
        {
          "internalType": "address",
          "name": "to",
          "type": "address"
        },
        {
          "internalType": "uint256",
          "name": "tokenId",
          "type": "uint256"
        }
      ],
      "name": "transferFrom",
      "outputs": [],
      "stateMutability": "nonpayable",
      "type": "function"
    }
  ],
  "transactionHash": "0x73eca851215038656ed0ee8581e76ffea16c4024ccd1181a086c9b4a895303ce",
  "args": [
    "0xa5409ec958c83c3f309868babaca7c86dcb077c1",
    "0x70997970C51812dc3A010C7d01b50e0d17dc79C8"
  ],
  "numDeployments": 1,
  "solcInputHash": "cf8bdf3d2b0560faed6b2ec4ba18e0d8",
  "bytecode": "0x60806040523480156200001157600080fd5b5060405162001d6738038062001d678339810160408190526200003491620001b7565b6040518060400160405280601381526020017f5369676e61747572652045636f6e6f6d696573000000000000000000000000008152506040518060400160405280600481526020016329a4a3a760e11b8152508382828160009080519060200190620000a2929190620000f4565b508051620000b8906001906020840190620000f4565b5050600880546001600160a01b039384166001600160a01b031991821617909155600a8054969093169516949094179055506200022c92505050565b8280546200010290620001ef565b90600052602060002090601f01602090048101928262000126576000855562000171565b82601f106200014157805160ff191683800117855562000171565b8280016001018555821562000171579182015b828111156200017157825182559160200191906001019062000154565b506200017f92915062000183565b5090565b5b808211156200017f576000815560010162000184565b80516001600160a01b0381168114620001b257600080fd5b919050565b60008060408385031215620001cb57600080fd5b620001d6836200019a565b9150620001e6602084016200019a565b90509250929050565b600181811c908216806200020457607f821691505b602082108114156200022657634e487b7160e01b600052602260045260246000fd5b50919050565b611b2b806200023c6000396000f3fe608060405234801561001057600080fd5b50600436106101165760003560e01c80636352211e116100a2578063a22cb46511610071578063a22cb46514610265578063b88d4fde14610278578063c87b56dd1461028b578063e8a3d4851461029e578063e985e9c5146102a657600080fd5b80636352211e1461021657806370a08231146102295780638c7ea24b1461024a57806395d89b411461025d57600080fd5b8063095ea7b3116100e9578063095ea7b31461019657806323b872dd146101ab5780632a55205a146101be57806342842e0e146101f05780635729e9271461020357600080fd5b806301ffc9a71461011b57806302d05d3f1461014357806306fdde031461016e578063081812fc14610183575b600080fd5b61012e6101293660046116eb565b6102b9565b60405190151581526020015b60405180910390f35b600a54610156906001600160a01b031681565b6040516001600160a01b03909116815260200161013a565b6101766102ca565b60405161013a9190611882565b61015661019136600461178b565b61035c565b6101a96101a43660046116bf565b6103e9565b005b6101a96101b93660046115cb565b6104ff565b6101d16101cc3660046117a4565b610530565b604080516001600160a01b03909316835260208301919091520161013a565b6101a96101fe3660046115cb565b610585565b6101a9610211366004611742565b6105a0565b61015661022436600461178b565b61061b565b61023c610237366004611575565b610692565b60405190815260200161013a565b6101a96102583660046116bf565b610719565b6101766107a7565b6101a961027336600461168c565b6107b6565b6101a961028636600461160c565b61087b565b61017661029936600461178b565b6108b3565b6101766108be565b61012e6102b4366004611592565b6108de565b60006102c4826109ae565b92915050565b6060600080546102d9906119c6565b80601f0160208091040260200160405190810160405280929190818152602001828054610305906119c6565b80156103525780601f1061032757610100808354040283529160200191610352565b820191906000526020600020905b81548152906001019060200180831161033557829003601f168201915b5050505050905090565b6000610367826109d3565b6103cd5760405162461bcd60e51b815260206004820152602c60248201527f4552433732313a20617070726f76656420717565727920666f72206e6f6e657860448201526b34b9ba32b73a103a37b5b2b760a11b60648201526084015b60405180910390fd5b506000908152600460205260409020546001600160a01b031690565b60006103f48261061b565b9050806001600160a01b0316836001600160a01b031614156104625760405162461bcd60e51b815260206004820152602160248201527f4552433732313a20617070726f76616c20746f2063757272656e74206f776e656044820152603960f91b60648201526084016103c4565b336001600160a01b038216148061047e575061047e81336108de565b6104f05760405162461bcd60e51b815260206004820152603860248201527f4552433732313a20617070726f76652063616c6c6572206973206e6f74206f7760448201527f6e6572206e6f7220617070726f76656420666f7220616c6c000000000000000060648201526084016103c4565b6104fa83836109f0565b505050565b6105093382610a5e565b6105255760405162461bcd60e51b81526004016103c4906118e7565b6104fa838383610b20565b604080518082019091526007546001600160a01b038116808352600160a01b90910462ffffff16602083018190529091600091612710906105719086611964565b61057b9190611950565b9150509250929050565b6104fa8383836040518060200160405280600081525061087b565b60006105ab60095490565b600a549091506105c5906001600160a01b03163383610cc0565b6105cf8183610cdb565b6105dd600980546001019055565b807febe66bfc11c2e5988e8129cc449f5704366374a887addb99c36129b6d8739436338460405161060f92919061185e565b60405180910390a25050565b6000818152600260205260408120546001600160a01b0316806102c45760405162461bcd60e51b815260206004820152602960248201527f4552433732313a206f776e657220717565727920666f72206e6f6e657869737460448201526832b73a103a37b5b2b760b91b60648201526084016103c4565b60006001600160a01b0382166106fd5760405162461bcd60e51b815260206004820152602a60248201527f4552433732313a2062616c616e636520717565727920666f7220746865207a65604482015269726f206164647265737360b01b60648201526084016103c4565b506001600160a01b031660009081526003602052604090205490565b600a546001600160a01b031633146107995760405162461bcd60e51b815260206004820152603e60248201527f4f6e6c79207468652063726561746f72206f66207468697320636f6e7472616360448201527f742063616e2073657420616e64206368616e676520726f79616c69746573000060648201526084016103c4565b6107a38282610d66565b5050565b6060600180546102d9906119c6565b6001600160a01b03821633141561080f5760405162461bcd60e51b815260206004820152601960248201527f4552433732313a20617070726f766520746f2063616c6c65720000000000000060448201526064016103c4565b3360008181526005602090815260408083206001600160a01b03871680855290835292819020805460ff191686151590811790915590519081529192917f17307eab39ab6107e8899845ad3d59bd9653f200f220920489ca2b5937696c31910160405180910390a35050565b6108853383610a5e565b6108a15760405162461bcd60e51b81526004016103c4906118e7565b6108ad84848484610e02565b50505050565b60606102c482610e35565b60606040518060600160405280603f8152602001611ab7603f9139905090565b60085460405163c455279160e01b81526001600160a01b03848116600483015260009281169190841690829063c45527919060240160206040518083038186803b15801561092b57600080fd5b505afa15801561093f573d6000803e3d6000fd5b505050506040513d601f19601f820116820180604052508101906109639190611725565b6001600160a01b0316141561097c5760019150506102c4565b6001600160a01b0380851660009081526005602090815260408083209387168352929052205460ff165b949350505050565b60006001600160e01b0319821663152a902d60e11b14806102c457506102c482610fa4565b6000908152600260205260409020546001600160a01b0316151590565b600081815260046020526040902080546001600160a01b0319166001600160a01b0384169081179091558190610a258261061b565b6001600160a01b03167f8c5be1e5ebec7d5bd14f71427d1e84f3dd0314c0f7b2291e5b200ac8c7c3b92560405160405180910390a45050565b6000610a69826109d3565b610aca5760405162461bcd60e51b815260206004820152602c60248201527f4552433732313a206f70657261746f7220717565727920666f72206e6f6e657860448201526b34b9ba32b73a103a37b5b2b760a11b60648201526084016103c4565b6000610ad58361061b565b9050806001600160a01b0316846001600160a01b03161480610b105750836001600160a01b0316610b058461035c565b6001600160a01b0316145b806109a657506109a681856108de565b826001600160a01b0316610b338261061b565b6001600160a01b031614610b9b5760405162461bcd60e51b815260206004820152602960248201527f4552433732313a207472616e73666572206f6620746f6b656e2074686174206960448201526839903737ba1037bbb760b91b60648201526084016103c4565b6001600160a01b038216610bfd5760405162461bcd60e51b8152602060048201526024808201527f4552433732313a207472616e7366657220746f20746865207a65726f206164646044820152637265737360e01b60648201526084016103c4565b610c086000826109f0565b6001600160a01b0383166000908152600360205260408120805460019290610c31908490611983565b90915550506001600160a01b0382166000908152600360205260408120805460019290610c5f908490611938565b909155505060008181526002602052604080822080546001600160a01b0319166001600160a01b0386811691821790925591518493918716917fddf252ad1be2c89b69c2b068fc378daa952ba7f163c4a11628f55a4df523b3ef91a4505050565b6104fa83838360405180602001604052806000815250610ff4565b610ce4826109d3565b610d475760405162461bcd60e51b815260206004820152602e60248201527f45524337323155524953746f726167653a2055524920736574206f66206e6f6e60448201526d32bc34b9ba32b73a103a37b5b2b760911b60648201526084016103c4565b600082815260066020908152604090912082516104fa92840190611466565b612710811115610db85760405162461bcd60e51b815260206004820152601a60248201527f45524332393831526f79616c746965733a20546f6f206869676800000000000060448201526064016103c4565b604080518082019091526001600160a01b0390921680835262ffffff909116602090920182905260078054600160a01b9093026001600160b81b0319909316909117919091179055565b610e0d848484610b20565b610e1984848484611008565b6108ad5760405162461bcd60e51b81526004016103c490611895565b6060610e40826109d3565b610ea65760405162461bcd60e51b815260206004820152603160248201527f45524337323155524953746f726167653a2055524920717565727920666f72206044820152703737b732bc34b9ba32b73a103a37b5b2b760791b60648201526084016103c4565b60008281526006602052604081208054610ebf906119c6565b80601f0160208091040260200160405190810160405280929190818152602001828054610eeb906119c6565b8015610f385780601f10610f0d57610100808354040283529160200191610f38565b820191906000526020600020905b815481529060010190602001808311610f1b57829003601f168201915b505050505090506000610f5660408051602081019091526000815290565b9050805160001415610f69575092915050565b815115610f9b578082604051602001610f839291906117f2565b60405160208183030381529060405292505050919050565b6109a684611115565b60006001600160e01b031982166380ac58cd60e01b1480610fd557506001600160e01b03198216635b5e139f60e01b145b806102c457506301ffc9a760e01b6001600160e01b03198316146102c4565b610fff8484846111ed565b610e1960008484845b60006001600160a01b0384163b1561110a57604051630a85bd0160e11b81526001600160a01b0385169063150b7a029061104c903390899088908890600401611821565b602060405180830381600087803b15801561106657600080fd5b505af1925050508015611096575060408051601f3d908101601f1916820190925261109391810190611708565b60015b6110f0573d8080156110c4576040519150601f19603f3d011682016040523d82523d6000602084013e6110c9565b606091505b5080516110e85760405162461bcd60e51b81526004016103c490611895565b805181602001fd5b6001600160e01b031916630a85bd0160e11b1490506109a6565b506001949350505050565b6060611120826109d3565b6111845760405162461bcd60e51b815260206004820152602f60248201527f4552433732314d657461646174613a2055524920717565727920666f72206e6f60448201526e3732bc34b9ba32b73a103a37b5b2b760891b60648201526084016103c4565b600061119b60408051602081019091526000815290565b905060008151116111bb57604051806020016040528060008152506111e6565b806111c584611368565b6040516020016111d69291906117f2565b6040516020818303038152906040525b9392505050565b6001600160a01b0382166112435760405162461bcd60e51b815260206004820181905260248201527f4552433732313a206d696e7420746f20746865207a65726f206164647265737360448201526064016103c4565b61124c816109d3565b156112995760405162461bcd60e51b815260206004820152601c60248201527f4552433732313a20746f6b656e20616c7265616479206d696e7465640000000060448201526064016103c4565b6001600160a01b03821660009081526003602052604081208054600192906112c2908490611938565b909155505060008181526002602052604080822080546001600160a01b0319166001600160a01b03868116919091179091559051839291861691907fddf252ad1be2c89b69c2b068fc378daa952ba7f163c4a11628f55a4df523b3ef908290a480826001600160a01b0316846001600160a01b03167fddf252ad1be2c89b69c2b068fc378daa952ba7f163c4a11628f55a4df523b3ef60405160405180910390a4505050565b60608161138c5750506040805180820190915260018152600360fc1b602082015290565b8160005b81156113b657806113a081611a01565b91506113af9050600a83611950565b9150611390565b60008167ffffffffffffffff8111156113d1576113d1611a72565b6040519080825280601f01601f1916602001820160405280156113fb576020820181803683370190505b5090505b84156109a657611410600183611983565b915061141d600a86611a1c565b611428906030611938565b60f81b81838151811061143d5761143d611a5c565b60200101906001600160f81b031916908160001a90535061145f600a86611950565b94506113ff565b828054611472906119c6565b90600052602060002090601f01602090048101928261149457600085556114da565b82601f106114ad57805160ff19168380011785556114da565b828001600101855582156114da579182015b828111156114da5782518255916020019190600101906114bf565b506114e69291506114ea565b5090565b5b808211156114e657600081556001016114eb565b600067ffffffffffffffff8084111561151a5761151a611a72565b604051601f8501601f19908116603f0116810190828211818310171561154257611542611a72565b8160405280935085815286868601111561155b57600080fd5b858560208301376000602087830101525050509392505050565b60006020828403121561158757600080fd5b81356111e681611a88565b600080604083850312156115a557600080fd5b82356115b081611a88565b915060208301356115c081611a88565b809150509250929050565b6000806000606084860312156115e057600080fd5b83356115eb81611a88565b925060208401356115fb81611a88565b929592945050506040919091013590565b6000806000806080858703121561162257600080fd5b843561162d81611a88565b9350602085013561163d81611a88565b925060408501359150606085013567ffffffffffffffff81111561166057600080fd5b8501601f8101871361167157600080fd5b611680878235602084016114ff565b91505092959194509250565b6000806040838503121561169f57600080fd5b82356116aa81611a88565b9150602083013580151581146115c057600080fd5b600080604083850312156116d257600080fd5b82356116dd81611a88565b946020939093013593505050565b6000602082840312156116fd57600080fd5b81356111e681611aa0565b60006020828403121561171a57600080fd5b81516111e681611aa0565b60006020828403121561173757600080fd5b81516111e681611a88565b60006020828403121561175457600080fd5b813567ffffffffffffffff81111561176b57600080fd5b8201601f8101841361177c57600080fd5b6109a6848235602084016114ff565b60006020828403121561179d57600080fd5b5035919050565b600080604083850312156117b757600080fd5b50508035926020909101359150565b600081518084526117de81602086016020860161199a565b601f01601f19169290920160200192915050565b6000835161180481846020880161199a565b83519083019061181881836020880161199a565b01949350505050565b6001600160a01b0385811682528416602082015260408101839052608060608201819052600090611854908301846117c6565b9695505050505050565b6001600160a01b03831681526040602082018190526000906109a6908301846117c6565b6020815260006111e660208301846117c6565b60208082526032908201527f4552433732313a207472616e7366657220746f206e6f6e20455243373231526560408201527131b2b4bb32b91034b6b83632b6b2b73a32b960711b606082015260800190565b60208082526031908201527f4552433732313a207472616e736665722063616c6c6572206973206e6f74206f6040820152701ddb995c881b9bdc88185c1c1c9bdd9959607a1b606082015260800190565b6000821982111561194b5761194b611a30565b500190565b60008261195f5761195f611a46565b500490565b600081600019048311821515161561197e5761197e611a30565b500290565b60008282101561199557611995611a30565b500390565b60005b838110156119b557818101518382015260200161199d565b838111156108ad5750506000910152565b600181811c908216806119da57607f821691505b602082108114156119fb57634e487b7160e01b600052602260045260246000fd5b50919050565b6000600019821415611a1557611a15611a30565b5060010190565b600082611a2b57611a2b611a46565b500690565b634e487b7160e01b600052601160045260246000fd5b634e487b7160e01b600052601260045260246000fd5b634e487b7160e01b600052603260045260246000fd5b634e487b7160e01b600052604160045260246000fd5b6001600160a01b0381168114611a9d57600080fd5b50565b6001600160e01b031981168114611a9d57600080fdfe68747470733a2f2f617277656176652e6e65742f624b356b334f5632475a576d3131536733554c57426c53732d2d6f4669743178624b757346652d5333634da2646970667358221220a197e71d785d37477e47b0b44788b53fbe9db977921d4b32b851c155b32f70ce64736f6c63430008070033",
  "devdoc": {
    "kind": "dev",
    "methods": {
      "approve(address,uint256)": {
        "details": "See {IERC721-approve}."
      },
      "balanceOf(address)": {
        "details": "See {IERC721-balanceOf}."
      },
      "contractURI()": {
        "details": "Link to Contract metadata https://docs.opensea.io/docs/contract-level-metadata"
      },
      "getApproved(uint256)": {
        "details": "See {IERC721-getApproved}."
      },
      "mintSelected(string)": {
        "details": "mints a unique NFT from some user-selected piece of text (which we make into an image & store in Arweave)",
        "params": {
          "uri": "arweave url TODO: are there ways to protect this function while still ensuring readers pay gas fees and we don't use onlyOwner?"
        }
      },
      "name()": {
        "details": "See {IERC721Metadata-name}."
      },
      "ownerOf(uint256)": {
        "details": "See {IERC721-ownerOf}."
      },
      "royaltyInfo(uint256,uint256)": {
        "params": {
          "_tokenId": "- the NFT asset queried for royalty information",
          "_value": "- the sale price of the NFT asset specified by _tokenId"
        },
        "returns": {
          "receiver": "- address of who should be sent the royalty payment",
          "royaltyAmount": "- the royalty payment amount for value sale price"
        }
      },
      "safeTransferFrom(address,address,uint256)": {
        "details": "See {IERC721-safeTransferFrom}."
      },
      "safeTransferFrom(address,address,uint256,bytes)": {
        "details": "See {IERC721-safeTransferFrom}."
      },
      "setApprovalForAll(address,bool)": {
        "details": "See {IERC721-setApprovalForAll}."
      },
      "setRoyalties(address,uint256)": {
        "params": {
          "recipient": "the royalties recipient - will always be pr1s0nart, for regulatory reasons.",
          "value": "royalties value (between 0 and 10000)"
        }
      },
      "symbol()": {
        "details": "See {IERC721Metadata-symbol}."
      },
      "tokenURI(uint256)": {
        "details": "See {IERC721Metadata-tokenURI}."
      },
      "transferFrom(address,address,uint256)": {
        "details": "See {IERC721-transferFrom}."
      }
    },
    "version": 1
  },
  "userdoc": {
    "kind": "user",
    "methods": {
      "isApprovedForAll(address,address)": {
        "notice": "Override isApprovedForAll to whitelist user's OpenSea proxy accounts to enable gas-less listings."
      },
      "setRoyalties(address,uint256)": {
        "notice": "Set the royalties for the whole contract. Our intention is to set it to 10% in perpetuity."
      }
    },
    "version": 1
  },
  "storageLayout": {
    "storage": [
      {
        "astId": 1603,
        "contract": "contracts/SignatureNFT.sol:SignatureNFT",
        "label": "_name",
        "offset": 0,
        "slot": "0",
        "type": "t_string_storage"
      },
      {
        "astId": 1605,
        "contract": "contracts/SignatureNFT.sol:SignatureNFT",
        "label": "_symbol",
        "offset": 0,
        "slot": "1",
        "type": "t_string_storage"
      },
      {
        "astId": 1609,
        "contract": "contracts/SignatureNFT.sol:SignatureNFT",
        "label": "_owners",
        "offset": 0,
        "slot": "2",
        "type": "t_mapping(t_uint256,t_address)"
      },
      {
        "astId": 1613,
        "contract": "contracts/SignatureNFT.sol:SignatureNFT",
        "label": "_balances",
        "offset": 0,
        "slot": "3",
        "type": "t_mapping(t_address,t_uint256)"
      },
      {
        "astId": 1617,
        "contract": "contracts/SignatureNFT.sol:SignatureNFT",
        "label": "_tokenApprovals",
        "offset": 0,
        "slot": "4",
        "type": "t_mapping(t_uint256,t_address)"
      },
      {
        "astId": 1623,
        "contract": "contracts/SignatureNFT.sol:SignatureNFT",
        "label": "_operatorApprovals",
        "offset": 0,
        "slot": "5",
        "type": "t_mapping(t_address,t_mapping(t_address,t_bool))"
      },
      {
        "astId": 2552,
        "contract": "contracts/SignatureNFT.sol:SignatureNFT",
        "label": "_tokenURIs",
        "offset": 0,
        "slot": "6",
        "type": "t_mapping(t_uint256,t_string_storage)"
      },
      {
        "astId": 1478,
        "contract": "contracts/SignatureNFT.sol:SignatureNFT",
        "label": "_royalties",
        "offset": 0,
        "slot": "7",
        "type": "t_struct(RoyaltyInfo)1554_storage"
      },
      {
        "astId": 2431,
        "contract": "contracts/SignatureNFT.sol:SignatureNFT",
        "label": "proxyRegistryAddress",
        "offset": 0,
        "slot": "8",
        "type": "t_address"
      },
      {
        "astId": 1370,
        "contract": "contracts/SignatureNFT.sol:SignatureNFT",
        "label": "_tokenIdCounter",
        "offset": 0,
        "slot": "9",
        "type": "t_struct(Counter)785_storage"
      },
      {
        "astId": 1372,
        "contract": "contracts/SignatureNFT.sol:SignatureNFT",
        "label": "creator",
        "offset": 0,
        "slot": "10",
        "type": "t_address"
      }
    ],
    "types": {
      "t_address": {
        "encoding": "inplace",
        "label": "address",
        "numberOfBytes": "20"
      },
      "t_bool": {
        "encoding": "inplace",
        "label": "bool",
        "numberOfBytes": "1"
      },
      "t_mapping(t_address,t_bool)": {
        "encoding": "mapping",
        "key": "t_address",
        "label": "mapping(address => bool)",
        "numberOfBytes": "32",
        "value": "t_bool"
      },
      "t_mapping(t_address,t_mapping(t_address,t_bool))": {
        "encoding": "mapping",
        "key": "t_address",
        "label": "mapping(address => mapping(address => bool))",
        "numberOfBytes": "32",
        "value": "t_mapping(t_address,t_bool)"
      },
      "t_mapping(t_address,t_uint256)": {
        "encoding": "mapping",
        "key": "t_address",
        "label": "mapping(address => uint256)",
        "numberOfBytes": "32",
        "value": "t_uint256"
      },
      "t_mapping(t_uint256,t_address)": {
        "encoding": "mapping",
        "key": "t_uint256",
        "label": "mapping(uint256 => address)",
        "numberOfBytes": "32",
        "value": "t_address"
      },
      "t_mapping(t_uint256,t_string_storage)": {
        "encoding": "mapping",
        "key": "t_uint256",
        "label": "mapping(uint256 => string)",
        "numberOfBytes": "32",
        "value": "t_string_storage"
      },
      "t_string_storage": {
        "encoding": "bytes",
        "label": "string",
        "numberOfBytes": "32"
      },
      "t_struct(Counter)785_storage": {
        "encoding": "inplace",
        "label": "struct Counters.Counter",
        "members": [
          {
            "astId": 784,
            "contract": "contracts/SignatureNFT.sol:SignatureNFT",
            "label": "_value",
            "offset": 0,
            "slot": "0",
            "type": "t_uint256"
          }
        ],
        "numberOfBytes": "32"
      },
      "t_struct(RoyaltyInfo)1554_storage": {
        "encoding": "inplace",
        "label": "struct ERC2981Royalties.RoyaltyInfo",
        "members": [
          {
            "astId": 1551,
            "contract": "contracts/SignatureNFT.sol:SignatureNFT",
            "label": "recipient",
            "offset": 0,
            "slot": "0",
            "type": "t_address"
          },
          {
            "astId": 1553,
            "contract": "contracts/SignatureNFT.sol:SignatureNFT",
            "label": "amount",
            "offset": 20,
            "slot": "0",
            "type": "t_uint24"
          }
        ],
        "numberOfBytes": "32"
      },
      "t_uint24": {
        "encoding": "inplace",
        "label": "uint24",
        "numberOfBytes": "3"
      },
      "t_uint256": {
        "encoding": "inplace",
        "label": "uint256",
        "numberOfBytes": "32"
      }
    }
  }
}