{
  "address": "0xB8EAe71B269E98E3Fe7069912CadAc90B4927636",
  "abi": [
    {
      "inputs": [
        {
          "internalType": "address",
          "name": "_proxyRegistryAddress",
          "type": "address"
        },
        {
          "internalType": "address",
          "name": "_creator",
          "type": "address"
        },
        {
          "internalType": "address",
          "name": "_weth",
          "type": "address"
        }
      ],
      "stateMutability": "nonpayable",
      "type": "constructor"
    },
    {
      "anonymous": false,
      "inputs": [
        {
          "indexed": true,
          "internalType": "address",
          "name": "owner",
          "type": "address"
        },
        {
          "indexed": true,
          "internalType": "address",
          "name": "approved",
          "type": "address"
        },
        {
          "indexed": true,
          "internalType": "uint256",
          "name": "tokenId",
          "type": "uint256"
        }
      ],
      "name": "Approval",
      "type": "event"
    },
    {
      "anonymous": false,
      "inputs": [
        {
          "indexed": true,
          "internalType": "address",
          "name": "owner",
          "type": "address"
        },
        {
          "indexed": true,
          "internalType": "address",
          "name": "operator",
          "type": "address"
        },
        {
          "indexed": false,
          "internalType": "bool",
          "name": "approved",
          "type": "bool"
        }
      ],
      "name": "ApprovalForAll",
      "type": "event"
    },
    {
      "anonymous": false,
      "inputs": [
        {
          "indexed": true,
          "internalType": "address",
          "name": "donor",
          "type": "address"
        },
        {
          "indexed": false,
          "internalType": "uint256",
          "name": "amount",
          "type": "uint256"
        },
        {
          "indexed": true,
          "internalType": "uint256",
          "name": "tokenId",
          "type": "uint256"
        },
        {
          "indexed": false,
          "internalType": "string",
          "name": "uri",
          "type": "string"
        }
      ],
      "name": "SignCreated",
      "type": "event"
    },
    {
      "anonymous": false,
      "inputs": [
        {
          "indexed": true,
          "internalType": "address",
          "name": "from",
          "type": "address"
        },
        {
          "indexed": true,
          "internalType": "address",
          "name": "to",
          "type": "address"
        },
        {
          "indexed": true,
          "internalType": "uint256",
          "name": "tokenId",
          "type": "uint256"
        }
      ],
      "name": "Transfer",
      "type": "event"
    },
    {
      "inputs": [
        {
          "internalType": "address",
          "name": "to",
          "type": "address"
        },
        {
          "internalType": "uint256",
          "name": "tokenId",
          "type": "uint256"
        }
      ],
      "name": "approve",
      "outputs": [],
      "stateMutability": "nonpayable",
      "type": "function"
    },
    {
      "inputs": [
        {
          "internalType": "address",
          "name": "owner",
          "type": "address"
        }
      ],
      "name": "balanceOf",
      "outputs": [
        {
          "internalType": "uint256",
          "name": "",
          "type": "uint256"
        }
      ],
      "stateMutability": "view",
      "type": "function"
    },
    {
      "inputs": [],
      "name": "contractURI",
      "outputs": [
        {
          "internalType": "string",
          "name": "",
          "type": "string"
        }
      ],
      "stateMutability": "pure",
      "type": "function"
    },
    {
      "inputs": [
        {
          "internalType": "string",
          "name": "selectedNFT",
          "type": "string"
        }
      ],
      "name": "createSign",
      "outputs": [],
      "stateMutability": "payable",
      "type": "function"
    },
    {
      "inputs": [],
      "name": "creator",
      "outputs": [
        {
          "internalType": "address",
          "name": "",
          "type": "address"
        }
      ],
      "stateMutability": "view",
      "type": "function"
    },
    {
      "inputs": [
        {
          "internalType": "uint256",
          "name": "tokenId",
          "type": "uint256"
        }
      ],
      "name": "getApproved",
      "outputs": [
        {
          "internalType": "address",
          "name": "",
          "type": "address"
        }
      ],
      "stateMutability": "view",
      "type": "function"
    },
    {
      "inputs": [
        {
          "internalType": "address",
          "name": "owner",
          "type": "address"
        },
        {
          "internalType": "address",
          "name": "operator",
          "type": "address"
        }
      ],
      "name": "isApprovedForAll",
      "outputs": [
        {
          "internalType": "bool",
          "name": "",
          "type": "bool"
        }
      ],
      "stateMutability": "view",
      "type": "function"
    },
    {
      "inputs": [],
      "name": "name",
      "outputs": [
        {
          "internalType": "string",
          "name": "",
          "type": "string"
        }
      ],
      "stateMutability": "view",
      "type": "function"
    },
    {
      "inputs": [
        {
          "internalType": "uint256",
          "name": "tokenId",
          "type": "uint256"
        }
      ],
      "name": "ownerOf",
      "outputs": [
        {
          "internalType": "address",
          "name": "",
          "type": "address"
        }
      ],
      "stateMutability": "view",
      "type": "function"
    },
    {
      "inputs": [
        {
          "internalType": "uint256",
          "name": "",
          "type": "uint256"
        },
        {
          "internalType": "uint256",
          "name": "value",
          "type": "uint256"
        }
      ],
      "name": "royaltyInfo",
      "outputs": [
        {
          "internalType": "address",
          "name": "receiver",
          "type": "address"
        },
        {
          "internalType": "uint256",
          "name": "royaltyAmount",
          "type": "uint256"
        }
      ],
      "stateMutability": "view",
      "type": "function"
    },
    {
      "inputs": [
        {
          "internalType": "address",
          "name": "from",
          "type": "address"
        },
        {
          "internalType": "address",
          "name": "to",
          "type": "address"
        },
        {
          "internalType": "uint256",
          "name": "tokenId",
          "type": "uint256"
        }
      ],
      "name": "safeTransferFrom",
      "outputs": [],
      "stateMutability": "nonpayable",
      "type": "function"
    },
    {
      "inputs": [
        {
          "internalType": "address",
          "name": "from",
          "type": "address"
        },
        {
          "internalType": "address",
          "name": "to",
          "type": "address"
        },
        {
          "internalType": "uint256",
          "name": "tokenId",
          "type": "uint256"
        },
        {
          "internalType": "bytes",
          "name": "_data",
          "type": "bytes"
        }
      ],
      "name": "safeTransferFrom",
      "outputs": [],
      "stateMutability": "nonpayable",
      "type": "function"
    },
    {
      "inputs": [
        {
          "internalType": "address",
          "name": "operator",
          "type": "address"
        },
        {
          "internalType": "bool",
          "name": "approved",
          "type": "bool"
        }
      ],
      "name": "setApprovalForAll",
      "outputs": [],
      "stateMutability": "nonpayable",
      "type": "function"
    },
    {
      "inputs": [
        {
          "internalType": "address",
          "name": "recipient",
          "type": "address"
        },
        {
          "internalType": "uint256",
          "name": "value",
          "type": "uint256"
        }
      ],
      "name": "setRoyalties",
      "outputs": [],
      "stateMutability": "nonpayable",
      "type": "function"
    },
    {
      "inputs": [
        {
          "internalType": "bytes4",
          "name": "interfaceId",
          "type": "bytes4"
        }
      ],
      "name": "supportsInterface",
      "outputs": [
        {
          "internalType": "bool",
          "name": "",
          "type": "bool"
        }
      ],
      "stateMutability": "view",
      "type": "function"
    },
    {
      "inputs": [],
      "name": "symbol",
      "outputs": [
        {
          "internalType": "string",
          "name": "",
          "type": "string"
        }
      ],
      "stateMutability": "view",
      "type": "function"
    },
    {
      "inputs": [
        {
          "internalType": "uint256",
          "name": "tokenId",
          "type": "uint256"
        }
      ],
      "name": "tokenURI",
      "outputs": [
        {
          "internalType": "string",
          "name": "",
          "type": "string"
        }
      ],
      "stateMutability": "view",
      "type": "function"
    },
    {
      "inputs": [
        {
          "internalType": "address",
          "name": "from",
          "type": "address"
        },
        {
          "internalType": "address",
          "name": "to",
          "type": "address"
        },
        {
          "internalType": "uint256",
          "name": "tokenId",
          "type": "uint256"
        }
      ],
      "name": "transferFrom",
      "outputs": [],
      "stateMutability": "nonpayable",
      "type": "function"
    },
    {
      "inputs": [],
      "name": "weth",
      "outputs": [
        {
          "internalType": "address",
          "name": "",
          "type": "address"
        }
      ],
      "stateMutability": "view",
      "type": "function"
    }
  ],
  "transactionHash": "0x9064da9047b1ca0ce5aa21a6d41bdcd641b5c099976a4d4535e4c6b9293a8f20",
  "args": [
    "0xf57b2c51ded3a29e6891aba85459d600256cf317",
    "0x1D32F2aCB832AFc3D8c8ffB3BE20e8dC7Faac507",
    "0xc778417E063141139Fce010982780140Aa0cD5Ab"
  ],
  "numDeployments": 3,
  "solcInputHash": "d065978d335c2c83bbc476ade024676b",
  "bytecode": "0x60806040523480156200001157600080fd5b506040516200244a3803806200244a8339810160408190526200003491620001b8565b6040518060400160405280600e81526020016d14da59db985d1d5c9948119d5b9960921b8152506040518060400160405280600481526020016353494e4760e01b815250848282816000908051906020019062000093929190620000f5565b508051620000a9906001906020840190620000f5565b5050600880546001600160a01b03199081166001600160a01b0394851617909155600a805482169784169790971790965550600b8054909516931692909217909255506200023f915050565b828054620001039062000202565b90600052602060002090601f01602090048101928262000127576000855562000172565b82601f106200014257805160ff191683800117855562000172565b8280016001018555821562000172579182015b828111156200017257825182559160200191906001019062000155565b506200018092915062000184565b5090565b5b8082111562000180576000815560010162000185565b80516001600160a01b0381168114620001b357600080fd5b919050565b600080600060608486031215620001ce57600080fd5b620001d9846200019b565b9250620001e9602085016200019b565b9150620001f9604085016200019b565b90509250925092565b600181811c908216806200021757607f821691505b602082108114156200023957634e487b7160e01b600052602260045260246000fd5b50919050565b6121fb806200024f6000396000f3fe6080604052600436106101145760003560e01c80636352211e116100a0578063b88d4fde11610064578063b88d4fde1461032c578063c87b56dd1461034c578063d241c71a1461036c578063e8a3d4851461037f578063e985e9c51461039457600080fd5b80636352211e1461028957806370a08231146102a95780638c7ea24b146102d757806395d89b41146102f7578063a22cb4651461030c57600080fd5b8063095ea7b3116100e7578063095ea7b3146101c857806323b872dd146101ea5780632a55205a1461020a5780633fc8cef31461024957806342842e0e1461026957600080fd5b806301ffc9a71461011957806302d05d3f1461014e57806306fdde0314610186578063081812fc146101a8575b600080fd5b34801561012557600080fd5b50610139610134366004611c91565b6103b4565b60405190151581526020015b60405180910390f35b34801561015a57600080fd5b50600a5461016e906001600160a01b031681565b6040516001600160a01b039091168152602001610145565b34801561019257600080fd5b5061019b6103c5565b6040516101459190611eee565b3480156101b457600080fd5b5061016e6101c3366004611d31565b610457565b3480156101d457600080fd5b506101e86101e3366004611c48565b6104e4565b005b3480156101f657600080fd5b506101e8610205366004611b59565b6105fa565b34801561021657600080fd5b5061022a610225366004611d4a565b61062b565b604080516001600160a01b039093168352602083019190915201610145565b34801561025557600080fd5b50600b5461016e906001600160a01b031681565b34801561027557600080fd5b506101e8610284366004611b59565b610680565b34801561029557600080fd5b5061016e6102a4366004611d31565b61069b565b3480156102b557600080fd5b506102c96102c4366004611b03565b610712565b604051908152602001610145565b3480156102e357600080fd5b506101e86102f2366004611c48565b610799565b34801561030357600080fd5b5061019b610827565b34801561031857600080fd5b506101e8610327366004611c1a565b610836565b34801561033857600080fd5b506101e8610347366004611b9a565b6108fb565b34801561035857600080fd5b5061019b610367366004611d31565b610933565b6101e861037a366004611ce8565b61093e565b34801561038b57600080fd5b5061019b610afa565b3480156103a057600080fd5b506101396103af366004611b20565b610b1a565b60006103bf82610bea565b92915050565b6060600080546103d49061204b565b80601f01602080910402602001604051908101604052809291908181526020018280546104009061204b565b801561044d5780601f106104225761010080835404028352916020019161044d565b820191906000526020600020905b81548152906001019060200180831161043057829003601f168201915b5050505050905090565b600061046282610c0f565b6104c85760405162461bcd60e51b815260206004820152602c60248201527f4552433732313a20617070726f76656420717565727920666f72206e6f6e657860448201526b34b9ba32b73a103a37b5b2b760a11b60648201526084015b60405180910390fd5b506000908152600460205260409020546001600160a01b031690565b60006104ef8261069b565b9050806001600160a01b0316836001600160a01b0316141561055d5760405162461bcd60e51b815260206004820152602160248201527f4552433732313a20617070726f76616c20746f2063757272656e74206f776e656044820152603960f91b60648201526084016104bf565b336001600160a01b038216148061057957506105798133610b1a565b6105eb5760405162461bcd60e51b815260206004820152603860248201527f4552433732313a20617070726f76652063616c6c6572206973206e6f74206f7760448201527f6e6572206e6f7220617070726f76656420666f7220616c6c000000000000000060648201526084016104bf565b6105f58383610c2c565b505050565b6106043382610c9a565b6106205760405162461bcd60e51b81526004016104bf90611f53565b6105f5838383610d5c565b604080518082019091526007546001600160a01b038116808352600160a01b90910462ffffff166020830181905290916000916127109061066c9086611fe9565b6106769190611fd5565b9150509250929050565b6105f5838383604051806020016040528060008152506108fb565b6000818152600260205260408120546001600160a01b0316806103bf5760405162461bcd60e51b815260206004820152602960248201527f4552433732313a206f776e657220717565727920666f72206e6f6e657869737460448201526832b73a103a37b5b2b760b91b60648201526084016104bf565b60006001600160a01b03821661077d5760405162461bcd60e51b815260206004820152602a60248201527f4552433732313a2062616c616e636520717565727920666f7220746865207a65604482015269726f206164647265737360b01b60648201526084016104bf565b506001600160a01b031660009081526003602052604090205490565b600a546001600160a01b031633146108195760405162461bcd60e51b815260206004820152603e60248201527f4f6e6c79207468652063726561746f72206f66207468697320636f6e7472616360448201527f742063616e2073657420616e64206368616e676520726f79616c69746573000060648201526084016104bf565b6108238282610efc565b5050565b6060600180546103d49061204b565b6001600160a01b03821633141561088f5760405162461bcd60e51b815260206004820152601960248201527f4552433732313a20617070726f766520746f2063616c6c65720000000000000060448201526064016104bf565b3360008181526005602090815260408083206001600160a01b03871680855290835292819020805460ff191686151590811790915590519081529192917f17307eab39ab6107e8899845ad3d59bd9653f200f220920489ca2b5937696c31910160405180910390a35050565b6109053383610c9a565b6109215760405162461bcd60e51b81526004016104bf90611f53565b61092d84848484610f98565b50505050565b60606103bf82610fcb565b662386f26fc100003410156109a95760405162461bcd60e51b815260206004820152602b60248201527f5369676e617475726546756e643a204d696e696d756d20646f6e6174696f6e2060448201526a0d2e640605c6062408aa8960ab1b60648201526084016104bf565b60606000604051806060016040528060408152602001612147604091399050662386f26fc1000034101580156109e65750670de0b6b3a764000034105b15610a145780836040516020016109fe929190611e80565b6040516020818303038152906040529150610a70565b670de0b6b3a76400003410158015610a335750678ac7230489e8000034105b15610a4b5780836040516020016109fe929190611de3565b8083604051602001610a5e929190611e31565b60405160208183030381529060405291505b6000610a7b60095490565b600a54909150610a95906001600160a01b0316338361113a565b610a9f8184611155565b610aad600980546001019055565b80336001600160a01b03167f7b36cfa17a6d82b134b5acccdcaa6520bfda10ef841e3761108d817c4ac379173486604051610ae9929190611fa4565b60405180910390a361092d346111e0565b60606040518060600160405280603f8152602001612187603f9139905090565b60085460405163c455279160e01b81526001600160a01b03848116600483015260009281169190841690829063c45527919060240160206040518083038186803b158015610b6757600080fd5b505afa158015610b7b573d6000803e3d6000fd5b505050506040513d601f19601f82011682018060405250810190610b9f9190611ccb565b6001600160a01b03161415610bb85760019150506103bf565b6001600160a01b0380851660009081526005602090815260408083209387168352929052205460ff165b949350505050565b60006001600160e01b0319821663152a902d60e11b14806103bf57506103bf82611277565b6000908152600260205260409020546001600160a01b0316151590565b600081815260046020526040902080546001600160a01b0319166001600160a01b0384169081179091558190610c618261069b565b6001600160a01b03167f8c5be1e5ebec7d5bd14f71427d1e84f3dd0314c0f7b2291e5b200ac8c7c3b92560405160405180910390a45050565b6000610ca582610c0f565b610d065760405162461bcd60e51b815260206004820152602c60248201527f4552433732313a206f70657261746f7220717565727920666f72206e6f6e657860448201526b34b9ba32b73a103a37b5b2b760a11b60648201526084016104bf565b6000610d118361069b565b9050806001600160a01b0316846001600160a01b03161480610d4c5750836001600160a01b0316610d4184610457565b6001600160a01b0316145b80610be25750610be28185610b1a565b826001600160a01b0316610d6f8261069b565b6001600160a01b031614610dd75760405162461bcd60e51b815260206004820152602960248201527f4552433732313a207472616e73666572206f6620746f6b656e2074686174206960448201526839903737ba1037bbb760b91b60648201526084016104bf565b6001600160a01b038216610e395760405162461bcd60e51b8152602060048201526024808201527f4552433732313a207472616e7366657220746f20746865207a65726f206164646044820152637265737360e01b60648201526084016104bf565b610e44600082610c2c565b6001600160a01b0383166000908152600360205260408120805460019290610e6d908490612008565b90915550506001600160a01b0382166000908152600360205260408120805460019290610e9b908490611fbd565b909155505060008181526002602052604080822080546001600160a01b0319166001600160a01b0386811691821790925591518493918716917fddf252ad1be2c89b69c2b068fc378daa952ba7f163c4a11628f55a4df523b3ef91a4505050565b612710811115610f4e5760405162461bcd60e51b815260206004820152601a60248201527f45524332393831526f79616c746965733a20546f6f206869676800000000000060448201526064016104bf565b604080518082019091526001600160a01b0390921680835262ffffff909116602090920182905260078054600160a01b9093026001600160b81b0319909316909117919091179055565b610fa3848484610d5c565b610faf848484846112c7565b61092d5760405162461bcd60e51b81526004016104bf90611f01565b6060610fd682610c0f565b61103c5760405162461bcd60e51b815260206004820152603160248201527f45524337323155524953746f726167653a2055524920717565727920666f72206044820152703737b732bc34b9ba32b73a103a37b5b2b760791b60648201526084016104bf565b600082815260066020526040812080546110559061204b565b80601f01602080910402602001604051908101604052809291908181526020018280546110819061204b565b80156110ce5780601f106110a3576101008083540402835291602001916110ce565b820191906000526020600020905b8154815290600101906020018083116110b157829003601f168201915b5050505050905060006110ec60408051602081019091526000815290565b90508051600014156110ff575092915050565b815115611131578082604051602001611119929190611db4565b60405160208183030381529060405292505050919050565b610be2846113d4565b6105f5838383604051806020016040528060008152506114ac565b61115e82610c0f565b6111c15760405162461bcd60e51b815260206004820152602e60248201527f45524337323155524953746f726167653a2055524920736574206f66206e6f6e60448201526d32bc34b9ba32b73a103a37b5b2b760911b60648201526084016104bf565b600082815260066020908152604090912082516105f5928401906119f4565b6111e9816114c4565b61127457600b60009054906101000a90046001600160a01b03166001600160a01b031663d0e30db0826040518263ffffffff1660e01b81526004016000604051808303818588803b15801561123d57600080fd5b505af1158015611251573d6000803e3d6000fd5b5050600a54600b5461127494506001600160a01b03908116935016905083611543565b50565b60006001600160e01b031982166380ac58cd60e01b14806112a857506001600160e01b03198216635b5e139f60e01b145b806103bf57506301ffc9a760e01b6001600160e01b03198316146103bf565b60006001600160a01b0384163b156113c957604051630a85bd0160e11b81526001600160a01b0385169063150b7a029061130b903390899088908890600401611eb1565b602060405180830381600087803b15801561132557600080fd5b505af1925050508015611355575060408051601f3d908101601f1916820190925261135291810190611cae565b60015b6113af573d808015611383576040519150601f19603f3d011682016040523d82523d6000602084013e611388565b606091505b5080516113a75760405162461bcd60e51b81526004016104bf90611f01565b805181602001fd5b6001600160e01b031916630a85bd0160e11b149050610be2565b506001949350505050565b60606113df82610c0f565b6114435760405162461bcd60e51b815260206004820152602f60248201527f4552433732314d657461646174613a2055524920717565727920666f72206e6f60448201526e3732bc34b9ba32b73a103a37b5b2b760891b60648201526084016104bf565b600061145a60408051602081019091526000815290565b9050600081511161147a57604051806020016040528060008152506114a5565b8061148484611595565b604051602001611495929190611db4565b6040516020818303038152906040525b9392505050565b6114b7848484611693565b610faf60008484846112c7565b600a5460408051600080825260208201928390529283926001600160a01b03909116916175309186916114f691611d98565b600060405180830381858888f193505050503d8060008114611534576040519150601f19603f3d011682016040523d82523d6000602084013e611539565b606091505b5090949350505050565b604080516001600160a01b038416602482015260448082018490528251808303909101815260649091019091526020810180516001600160e01b031663a9059cbb60e01b1790526105f590849061180e565b6060816115b95750506040805180820190915260018152600360fc1b602082015290565b8160005b81156115e357806115cd81612086565b91506115dc9050600a83611fd5565b91506115bd565b60008167ffffffffffffffff8111156115fe576115fe6120f7565b6040519080825280601f01601f191660200182016040528015611628576020820181803683370190505b5090505b8415610be25761163d600183612008565b915061164a600a866120a1565b611655906030611fbd565b60f81b81838151811061166a5761166a6120e1565b60200101906001600160f81b031916908160001a90535061168c600a86611fd5565b945061162c565b6001600160a01b0382166116e95760405162461bcd60e51b815260206004820181905260248201527f4552433732313a206d696e7420746f20746865207a65726f206164647265737360448201526064016104bf565b6116f281610c0f565b1561173f5760405162461bcd60e51b815260206004820152601c60248201527f4552433732313a20746f6b656e20616c7265616479206d696e7465640000000060448201526064016104bf565b6001600160a01b0382166000908152600360205260408120805460019290611768908490611fbd565b909155505060008181526002602052604080822080546001600160a01b0319166001600160a01b03868116919091179091559051839291861691907fddf252ad1be2c89b69c2b068fc378daa952ba7f163c4a11628f55a4df523b3ef908290a480826001600160a01b0316846001600160a01b03167fddf252ad1be2c89b69c2b068fc378daa952ba7f163c4a11628f55a4df523b3ef60405160405180910390a4505050565b6000611863826040518060400160405280602081526020017f5361666545524332303a206c6f772d6c6576656c2063616c6c206661696c6564815250856001600160a01b03166118e09092919063ffffffff16565b8051909150156105f557808060200190518101906118819190611c74565b6105f55760405162461bcd60e51b815260206004820152602a60248201527f5361666545524332303a204552433230206f7065726174696f6e20646964206e6044820152691bdd081cdd58d8d9595960b21b60648201526084016104bf565b6060610be28484600085856001600160a01b0385163b6119425760405162461bcd60e51b815260206004820152601d60248201527f416464726573733a2063616c6c20746f206e6f6e2d636f6e747261637400000060448201526064016104bf565b600080866001600160a01b0316858760405161195e9190611d98565b60006040518083038185875af1925050503d806000811461199b576040519150601f19603f3d011682016040523d82523d6000602084013e6119a0565b606091505b50915091506119b08282866119bb565b979650505050505050565b606083156119ca5750816114a5565b8251156119da5782518084602001fd5b8160405162461bcd60e51b81526004016104bf9190611eee565b828054611a009061204b565b90600052602060002090601f016020900481019282611a225760008555611a68565b82601f10611a3b57805160ff1916838001178555611a68565b82800160010185558215611a68579182015b82811115611a68578251825591602001919060010190611a4d565b50611a74929150611a78565b5090565b5b80821115611a745760008155600101611a79565b600067ffffffffffffffff80841115611aa857611aa86120f7565b604051601f8501601f19908116603f01168101908282118183101715611ad057611ad06120f7565b81604052809350858152868686011115611ae957600080fd5b858560208301376000602087830101525050509392505050565b600060208284031215611b1557600080fd5b81356114a58161210d565b60008060408385031215611b3357600080fd5b8235611b3e8161210d565b91506020830135611b4e8161210d565b809150509250929050565b600080600060608486031215611b6e57600080fd5b8335611b798161210d565b92506020840135611b898161210d565b929592945050506040919091013590565b60008060008060808587031215611bb057600080fd5b8435611bbb8161210d565b93506020850135611bcb8161210d565b925060408501359150606085013567ffffffffffffffff811115611bee57600080fd5b8501601f81018713611bff57600080fd5b611c0e87823560208401611a8d565b91505092959194509250565b60008060408385031215611c2d57600080fd5b8235611c388161210d565b91506020830135611b4e81612122565b60008060408385031215611c5b57600080fd5b8235611c668161210d565b946020939093013593505050565b600060208284031215611c8657600080fd5b81516114a581612122565b600060208284031215611ca357600080fd5b81356114a581612130565b600060208284031215611cc057600080fd5b81516114a581612130565b600060208284031215611cdd57600080fd5b81516114a58161210d565b600060208284031215611cfa57600080fd5b813567ffffffffffffffff811115611d1157600080fd5b8201601f81018413611d2257600080fd5b610be284823560208401611a8d565b600060208284031215611d4357600080fd5b5035919050565b60008060408385031215611d5d57600080fd5b50508035926020909101359150565b60008151808452611d8481602086016020860161201f565b601f01601f19169290920160200192915050565b60008251611daa81846020870161201f565b9190910192915050565b60008351611dc681846020880161201f565b835190830190611dda81836020880161201f565b01949350505050565b60008351611df581846020880161201f565b61312f60f01b9083019081528351611e1481600284016020880161201f565b632e706e6760e01b60029290910191820152600601949350505050565b60008351611e4381846020880161201f565b6231302f60e81b9083019081528351611e6381600384016020880161201f565b632e706e6760e01b60039290910191820152600701949350505050565b60008351611e9281846020880161201f565b61302f60f01b9083019081528351611e1481600284016020880161201f565b6001600160a01b0385811682528416602082015260408101839052608060608201819052600090611ee490830184611d6c565b9695505050505050565b6020815260006114a56020830184611d6c565b60208082526032908201527f4552433732313a207472616e7366657220746f206e6f6e20455243373231526560408201527131b2b4bb32b91034b6b83632b6b2b73a32b960711b606082015260800190565b60208082526031908201527f4552433732313a207472616e736665722063616c6c6572206973206e6f74206f6040820152701ddb995c881b9bdc88185c1c1c9bdd9959607a1b606082015260800190565b828152604060208201526000610be26040830184611d6c565b60008219821115611fd057611fd06120b5565b500190565b600082611fe457611fe46120cb565b500490565b6000816000190483118215151615612003576120036120b5565b500290565b60008282101561201a5761201a6120b5565b500390565b60005b8381101561203a578181015183820152602001612022565b8381111561092d5750506000910152565b600181811c9082168061205f57607f821691505b6020821081141561208057634e487b7160e01b600052602260045260246000fd5b50919050565b600060001982141561209a5761209a6120b5565b5060010190565b6000826120b0576120b06120cb565b500690565b634e487b7160e01b600052601160045260246000fd5b634e487b7160e01b600052601260045260246000fd5b634e487b7160e01b600052603260045260246000fd5b634e487b7160e01b600052604160045260246000fd5b6001600160a01b038116811461127457600080fd5b801515811461127457600080fd5b6001600160e01b03198116811461127457600080fdfe68747470733a2f2f617277656176652e6e65742f646d472d2d6843526c794970666b576f39396531516b614658446d354c712d6b4b3874724863624c66736f2f68747470733a2f2f617277656176652e6e65742f43354e3562786d6d63584a6f4135514f306c776e5648763057527441456671343975566f57774a73725038a2646970667358221220089e7fa34d7f8e94187157ffc488c024e19af84c097a49126f2441a432ac26e664736f6c63430008070033",
  "devdoc": {
    "kind": "dev",
    "methods": {
      "approve(address,uint256)": {
        "details": "See {IERC721-approve}."
      },
      "balanceOf(address)": {
        "details": "See {IERC721-balanceOf}."
      },
      "contractURI()": {
        "details": "Link to Contract metadata https://docs.opensea.io/docs/contract-level-metadata"
      },
      "createSign(string)": {
        "details": "Receives donation and mints new NFT for donor",
        "params": {
          "selectedNFT": "a string that allows us to determine which NFT at which level to mint and return to the donor"
        }
      },
      "getApproved(uint256)": {
        "details": "See {IERC721-getApproved}."
      },
      "name()": {
        "details": "See {IERC721Metadata-name}."
      },
      "ownerOf(uint256)": {
        "details": "See {IERC721-ownerOf}."
      },
      "royaltyInfo(uint256,uint256)": {
        "params": {
          "_tokenId": "- the NFT asset queried for royalty information",
          "_value": "- the sale price of the NFT asset specified by _tokenId"
        },
        "returns": {
          "receiver": "- address of who should be sent the royalty payment",
          "royaltyAmount": "- the royalty payment amount for value sale price"
        }
      },
      "safeTransferFrom(address,address,uint256)": {
        "details": "See {IERC721-safeTransferFrom}."
      },
      "safeTransferFrom(address,address,uint256,bytes)": {
        "details": "See {IERC721-safeTransferFrom}."
      },
      "setApprovalForAll(address,bool)": {
        "details": "See {IERC721-setApprovalForAll}."
      },
      "setRoyalties(address,uint256)": {
        "params": {
          "recipient": "the royalties recipient - will always be pr1s0nart, for regulatory reasons.",
          "value": "royalties value (between 0 and 10000)"
        }
      },
      "symbol()": {
        "details": "See {IERC721Metadata-symbol}."
      },
      "tokenURI(uint256)": {
        "details": "See {IERC721Metadata-tokenURI}."
      },
      "transferFrom(address,address,uint256)": {
        "details": "See {IERC721-transferFrom}."
      }
    },
    "version": 1
  },
  "userdoc": {
    "kind": "user",
    "methods": {
      "isApprovedForAll(address,address)": {
        "notice": "Override isApprovedForAll to whitelist user's OpenSea proxy accounts to enable gas-less listings."
      },
      "setRoyalties(address,uint256)": {
        "notice": "Set the royalties for the whole contract. Our intention is to set it to 10% in perpetuity."
      }
    },
    "version": 1
  },
  "storageLayout": {
    "storage": [
      {
        "astId": 1608,
        "contract": "contracts/SignatureFund.sol:SignatureFund",
        "label": "_name",
        "offset": 0,
        "slot": "0",
        "type": "t_string_storage"
      },
      {
        "astId": 1610,
        "contract": "contracts/SignatureFund.sol:SignatureFund",
        "label": "_symbol",
        "offset": 0,
        "slot": "1",
        "type": "t_string_storage"
      },
      {
        "astId": 1614,
        "contract": "contracts/SignatureFund.sol:SignatureFund",
        "label": "_owners",
        "offset": 0,
        "slot": "2",
        "type": "t_mapping(t_uint256,t_address)"
      },
      {
        "astId": 1618,
        "contract": "contracts/SignatureFund.sol:SignatureFund",
        "label": "_balances",
        "offset": 0,
        "slot": "3",
        "type": "t_mapping(t_address,t_uint256)"
      },
      {
        "astId": 1622,
        "contract": "contracts/SignatureFund.sol:SignatureFund",
        "label": "_tokenApprovals",
        "offset": 0,
        "slot": "4",
        "type": "t_mapping(t_uint256,t_address)"
      },
      {
        "astId": 1628,
        "contract": "contracts/SignatureFund.sol:SignatureFund",
        "label": "_operatorApprovals",
        "offset": 0,
        "slot": "5",
        "type": "t_mapping(t_address,t_mapping(t_address,t_bool))"
      },
      {
        "astId": 2557,
        "contract": "contracts/SignatureFund.sol:SignatureFund",
        "label": "_tokenURIs",
        "offset": 0,
        "slot": "6",
        "type": "t_mapping(t_uint256,t_string_storage)"
      },
      {
        "astId": 1483,
        "contract": "contracts/SignatureFund.sol:SignatureFund",
        "label": "_royalties",
        "offset": 0,
        "slot": "7",
        "type": "t_struct(RoyaltyInfo)1559_storage"
      },
      {
        "astId": 2436,
        "contract": "contracts/SignatureFund.sol:SignatureFund",
        "label": "proxyRegistryAddress",
        "offset": 0,
        "slot": "8",
        "type": "t_address"
      },
      {
        "astId": 1117,
        "contract": "contracts/SignatureFund.sol:SignatureFund",
        "label": "_tokenIdCounter",
        "offset": 0,
        "slot": "9",
        "type": "t_struct(Counter)785_storage"
      },
      {
        "astId": 1119,
        "contract": "contracts/SignatureFund.sol:SignatureFund",
        "label": "creator",
        "offset": 0,
        "slot": "10",
        "type": "t_address"
      },
      {
        "astId": 1121,
        "contract": "contracts/SignatureFund.sol:SignatureFund",
        "label": "weth",
        "offset": 0,
        "slot": "11",
        "type": "t_address"
      }
    ],
    "types": {
      "t_address": {
        "encoding": "inplace",
        "label": "address",
        "numberOfBytes": "20"
      },
      "t_bool": {
        "encoding": "inplace",
        "label": "bool",
        "numberOfBytes": "1"
      },
      "t_mapping(t_address,t_bool)": {
        "encoding": "mapping",
        "key": "t_address",
        "label": "mapping(address => bool)",
        "numberOfBytes": "32",
        "value": "t_bool"
      },
      "t_mapping(t_address,t_mapping(t_address,t_bool))": {
        "encoding": "mapping",
        "key": "t_address",
        "label": "mapping(address => mapping(address => bool))",
        "numberOfBytes": "32",
        "value": "t_mapping(t_address,t_bool)"
      },
      "t_mapping(t_address,t_uint256)": {
        "encoding": "mapping",
        "key": "t_address",
        "label": "mapping(address => uint256)",
        "numberOfBytes": "32",
        "value": "t_uint256"
      },
      "t_mapping(t_uint256,t_address)": {
        "encoding": "mapping",
        "key": "t_uint256",
        "label": "mapping(uint256 => address)",
        "numberOfBytes": "32",
        "value": "t_address"
      },
      "t_mapping(t_uint256,t_string_storage)": {
        "encoding": "mapping",
        "key": "t_uint256",
        "label": "mapping(uint256 => string)",
        "numberOfBytes": "32",
        "value": "t_string_storage"
      },
      "t_string_storage": {
        "encoding": "bytes",
        "label": "string",
        "numberOfBytes": "32"
      },
      "t_struct(Counter)785_storage": {
        "encoding": "inplace",
        "label": "struct Counters.Counter",
        "members": [
          {
            "astId": 784,
            "contract": "contracts/SignatureFund.sol:SignatureFund",
            "label": "_value",
            "offset": 0,
            "slot": "0",
            "type": "t_uint256"
          }
        ],
        "numberOfBytes": "32"
      },
      "t_struct(RoyaltyInfo)1559_storage": {
        "encoding": "inplace",
        "label": "struct ERC2981Royalties.RoyaltyInfo",
        "members": [
          {
            "astId": 1556,
            "contract": "contracts/SignatureFund.sol:SignatureFund",
            "label": "recipient",
            "offset": 0,
            "slot": "0",
            "type": "t_address"
          },
          {
            "astId": 1558,
            "contract": "contracts/SignatureFund.sol:SignatureFund",
            "label": "amount",
            "offset": 20,
            "slot": "0",
            "type": "t_uint24"
          }
        ],
        "numberOfBytes": "32"
      },
      "t_uint24": {
        "encoding": "inplace",
        "label": "uint24",
        "numberOfBytes": "3"
      },
      "t_uint256": {
        "encoding": "inplace",
        "label": "uint256",
        "numberOfBytes": "32"
      }
    }
  }
}