{
  "address": "0x3488a78A9F5ac75486a1e179447682200DF4D637",
  "abi": [
    {
      "inputs": [
        {
          "internalType": "address",
          "name": "_proxyRegistryAddress",
          "type": "address"
        },
        {
          "internalType": "address",
          "name": "_creator",
          "type": "address"
        },
        {
          "internalType": "address",
          "name": "_signer",
          "type": "address"
        }
      ],
      "stateMutability": "nonpayable",
      "type": "constructor"
    },
    {
      "inputs": [],
      "name": "NotAuthorized",
      "type": "error"
    },
    {
      "inputs": [],
      "name": "WrongSignature",
      "type": "error"
    },
    {
      "anonymous": false,
      "inputs": [
        {
          "indexed": true,
          "internalType": "address",
          "name": "owner",
          "type": "address"
        },
        {
          "indexed": true,
          "internalType": "address",
          "name": "approved",
          "type": "address"
        },
        {
          "indexed": true,
          "internalType": "uint256",
          "name": "tokenId",
          "type": "uint256"
        }
      ],
      "name": "Approval",
      "type": "event"
    },
    {
      "anonymous": false,
      "inputs": [
        {
          "indexed": true,
          "internalType": "address",
          "name": "owner",
          "type": "address"
        },
        {
          "indexed": true,
          "internalType": "address",
          "name": "operator",
          "type": "address"
        },
        {
          "indexed": false,
          "internalType": "bool",
          "name": "approved",
          "type": "bool"
        }
      ],
      "name": "ApprovalForAll",
      "type": "event"
    },
    {
      "anonymous": false,
      "inputs": [
        {
          "indexed": false,
          "internalType": "address",
          "name": "signer",
          "type": "address"
        },
        {
          "indexed": true,
          "internalType": "uint256",
          "name": "tokenId",
          "type": "uint256"
        },
        {
          "indexed": false,
          "internalType": "string",
          "name": "uri",
          "type": "string"
        }
      ],
      "name": "NewSignature",
      "type": "event"
    },
    {
      "anonymous": false,
      "inputs": [
        {
          "indexed": true,
          "internalType": "address",
          "name": "from",
          "type": "address"
        },
        {
          "indexed": true,
          "internalType": "address",
          "name": "to",
          "type": "address"
        },
        {
          "indexed": true,
          "internalType": "uint256",
          "name": "tokenId",
          "type": "uint256"
        }
      ],
      "name": "Transfer",
      "type": "event"
    },
    {
      "inputs": [
        {
          "internalType": "address",
          "name": "to",
          "type": "address"
        },
        {
          "internalType": "uint256",
          "name": "tokenId",
          "type": "uint256"
        }
      ],
      "name": "approve",
      "outputs": [],
      "stateMutability": "nonpayable",
      "type": "function"
    },
    {
      "inputs": [
        {
          "internalType": "address",
          "name": "owner",
          "type": "address"
        }
      ],
      "name": "balanceOf",
      "outputs": [
        {
          "internalType": "uint256",
          "name": "",
          "type": "uint256"
        }
      ],
      "stateMutability": "view",
      "type": "function"
    },
    {
      "inputs": [],
      "name": "contractURI",
      "outputs": [
        {
          "internalType": "string",
          "name": "",
          "type": "string"
        }
      ],
      "stateMutability": "pure",
      "type": "function"
    },
    {
      "inputs": [],
      "name": "creator",
      "outputs": [
        {
          "internalType": "address",
          "name": "",
          "type": "address"
        }
      ],
      "stateMutability": "view",
      "type": "function"
    },
    {
      "inputs": [
        {
          "internalType": "uint256",
          "name": "tokenId",
          "type": "uint256"
        }
      ],
      "name": "getApproved",
      "outputs": [
        {
          "internalType": "address",
          "name": "",
          "type": "address"
        }
      ],
      "stateMutability": "view",
      "type": "function"
    },
    {
      "inputs": [
        {
          "internalType": "address",
          "name": "owner",
          "type": "address"
        },
        {
          "internalType": "address",
          "name": "operator",
          "type": "address"
        }
      ],
      "name": "isApprovedForAll",
      "outputs": [
        {
          "internalType": "bool",
          "name": "",
          "type": "bool"
        }
      ],
      "stateMutability": "view",
      "type": "function"
    },
    {
      "inputs": [
        {
          "internalType": "string",
          "name": "uri",
          "type": "string"
        },
        {
          "internalType": "uint256",
          "name": "tokenId",
          "type": "uint256"
        },
        {
          "internalType": "bytes",
          "name": "signature",
          "type": "bytes"
        }
      ],
      "name": "mintSelected",
      "outputs": [],
      "stateMutability": "nonpayable",
      "type": "function"
    },
    {
      "inputs": [],
      "name": "name",
      "outputs": [
        {
          "internalType": "string",
          "name": "",
          "type": "string"
        }
      ],
      "stateMutability": "view",
      "type": "function"
    },
    {
      "inputs": [
        {
          "internalType": "uint256",
          "name": "tokenId",
          "type": "uint256"
        }
      ],
      "name": "ownerOf",
      "outputs": [
        {
          "internalType": "address",
          "name": "",
          "type": "address"
        }
      ],
      "stateMutability": "view",
      "type": "function"
    },
    {
      "inputs": [
        {
          "internalType": "uint256",
          "name": "",
          "type": "uint256"
        },
        {
          "internalType": "uint256",
          "name": "value",
          "type": "uint256"
        }
      ],
      "name": "royaltyInfo",
      "outputs": [
        {
          "internalType": "address",
          "name": "receiver",
          "type": "address"
        },
        {
          "internalType": "uint256",
          "name": "royaltyAmount",
          "type": "uint256"
        }
      ],
      "stateMutability": "view",
      "type": "function"
    },
    {
      "inputs": [
        {
          "internalType": "address",
          "name": "from",
          "type": "address"
        },
        {
          "internalType": "address",
          "name": "to",
          "type": "address"
        },
        {
          "internalType": "uint256",
          "name": "tokenId",
          "type": "uint256"
        }
      ],
      "name": "safeTransferFrom",
      "outputs": [],
      "stateMutability": "nonpayable",
      "type": "function"
    },
    {
      "inputs": [
        {
          "internalType": "address",
          "name": "from",
          "type": "address"
        },
        {
          "internalType": "address",
          "name": "to",
          "type": "address"
        },
        {
          "internalType": "uint256",
          "name": "tokenId",
          "type": "uint256"
        },
        {
          "internalType": "bytes",
          "name": "_data",
          "type": "bytes"
        }
      ],
      "name": "safeTransferFrom",
      "outputs": [],
      "stateMutability": "nonpayable",
      "type": "function"
    },
    {
      "inputs": [
        {
          "internalType": "address",
          "name": "operator",
          "type": "address"
        },
        {
          "internalType": "bool",
          "name": "approved",
          "type": "bool"
        }
      ],
      "name": "setApprovalForAll",
      "outputs": [],
      "stateMutability": "nonpayable",
      "type": "function"
    },
    {
      "inputs": [
        {
          "internalType": "address",
          "name": "recipient",
          "type": "address"
        },
        {
          "internalType": "uint256",
          "name": "value",
          "type": "uint256"
        }
      ],
      "name": "setRoyalties",
      "outputs": [],
      "stateMutability": "nonpayable",
      "type": "function"
    },
    {
      "inputs": [
        {
          "internalType": "address",
          "name": "newSigner",
          "type": "address"
        }
      ],
      "name": "setSigner",
      "outputs": [],
      "stateMutability": "nonpayable",
      "type": "function"
    },
    {
      "inputs": [],
      "name": "signer",
      "outputs": [
        {
          "internalType": "address",
          "name": "",
          "type": "address"
        }
      ],
      "stateMutability": "view",
      "type": "function"
    },
    {
      "inputs": [
        {
          "internalType": "bytes4",
          "name": "interfaceId",
          "type": "bytes4"
        }
      ],
      "name": "supportsInterface",
      "outputs": [
        {
          "internalType": "bool",
          "name": "",
          "type": "bool"
        }
      ],
      "stateMutability": "view",
      "type": "function"
    },
    {
      "inputs": [],
      "name": "symbol",
      "outputs": [
        {
          "internalType": "string",
          "name": "",
          "type": "string"
        }
      ],
      "stateMutability": "view",
      "type": "function"
    },
    {
      "inputs": [
        {
          "internalType": "uint256",
          "name": "tokenId",
          "type": "uint256"
        }
      ],
      "name": "tokenURI",
      "outputs": [
        {
          "internalType": "string",
          "name": "",
          "type": "string"
        }
      ],
      "stateMutability": "view",
      "type": "function"
    },
    {
      "inputs": [
        {
          "internalType": "address",
          "name": "from",
          "type": "address"
        },
        {
          "internalType": "address",
          "name": "to",
          "type": "address"
        },
        {
          "internalType": "uint256",
          "name": "tokenId",
          "type": "uint256"
        }
      ],
      "name": "transferFrom",
      "outputs": [],
      "stateMutability": "nonpayable",
      "type": "function"
    }
  ],
  "transactionHash": "0xc7afd9fda026ac9b3140954e810c7596edeee25432946c785890ed056f0672f0",
  "args": [
    "0xf57b2c51ded3a29e6891aba85459d600256cf317",
    "0x1D32F2aCB832AFc3D8c8ffB3BE20e8dC7Faac507",
    "0x1F4Cb07192f96e2316d07A8ee2DBd503a74eD8dF"
  ],
  "numDeployments": 3,
  "solcInputHash": "cec800c40a975ad9f6464683a75a8565",
  "bytecode": "0x60806040523480156200001157600080fd5b50604051620022bc380380620022bc8339810160408190526200003491620001c7565b6040518060400160405280601381526020017f5369676e61747572652045636f6e6f6d696573000000000000000000000000008152506040518060400160405280600481526020016329a4a3a760e11b8152508482828160009080519060200190620000a292919062000104565b508051620000b890600190602084019062000104565b5050600880546001600160a01b03199081166001600160a01b03948516179091556009805482169784169790971790965550600a8054909516931692909217909255506200024e915050565b828054620001129062000211565b90600052602060002090601f01602090048101928262000136576000855562000181565b82601f106200015157805160ff191683800117855562000181565b8280016001018555821562000181579182015b828111156200018157825182559160200191906001019062000164565b506200018f92915062000193565b5090565b5b808211156200018f576000815560010162000194565b80516001600160a01b0381168114620001c257600080fd5b919050565b600080600060608486031215620001dd57600080fd5b620001e884620001aa565b9250620001f860208501620001aa565b91506200020860408501620001aa565b90509250925092565b600181811c908216806200022657607f821691505b602082108114156200024857634e487b7160e01b600052602260045260246000fd5b50919050565b61205e806200025e6000396000f3fe608060405234801561001057600080fd5b506004361061012c5760003560e01c80636c19e783116100ad578063a22cb46511610071578063a22cb465146102a1578063b88d4fde146102b4578063c87b56dd146102c7578063e8a3d485146102da578063e985e9c5146102e257600080fd5b80636c19e7831461023f57806370a082311461025257806389d47b83146102735780638c7ea24b1461028657806395d89b411461029957600080fd5b8063238ac933116100f4578063238ac933146101c157806323b872dd146101d45780632a55205a146101e757806342842e0e146102195780636352211e1461022c57600080fd5b806301ffc9a71461013157806302d05d3f1461015957806306fdde0314610184578063081812fc14610199578063095ea7b3146101ac575b600080fd5b61014461013f366004611b89565b6102f5565b60405190151581526020015b60405180910390f35b60095461016c906001600160a01b031681565b6040516001600160a01b039091168152602001610150565b61018c610306565b6040516101509190611d89565b61016c6101a7366004611c92565b610398565b6101bf6101ba366004611b5d565b610425565b005b600a5461016c906001600160a01b031681565b6101bf6101e2366004611a69565b61053b565b6101fa6101f5366004611cab565b61056c565b604080516001600160a01b039093168352602083019190915201610150565b6101bf610227366004611a69565b6105c1565b61016c61023a366004611c92565b6105dc565b6101bf61024d366004611a13565b610653565b610265610260366004611a13565b6106a0565b604051908152602001610150565b6101bf610281366004611be0565b610727565b6101bf610294366004611b5d565b610794565b61018c6107cd565b6101bf6102af366004611b2a565b6107dc565b6101bf6102c2366004611aaa565b6108a1565b61018c6102d5366004611c92565b6108d9565b61018c6108e4565b6101446102f0366004611a30565b610904565b6000610300826109d4565b92915050565b60606000805461031590611ee6565b80601f016020809104026020016040519081016040528092919081815260200182805461034190611ee6565b801561038e5780601f106103635761010080835404028352916020019161038e565b820191906000526020600020905b81548152906001019060200180831161037157829003601f168201915b5050505050905090565b60006103a3826109f9565b6104095760405162461bcd60e51b815260206004820152602c60248201527f4552433732313a20617070726f76656420717565727920666f72206e6f6e657860448201526b34b9ba32b73a103a37b5b2b760a11b60648201526084015b60405180910390fd5b506000908152600460205260409020546001600160a01b031690565b6000610430826105dc565b9050806001600160a01b0316836001600160a01b0316141561049e5760405162461bcd60e51b815260206004820152602160248201527f4552433732313a20617070726f76616c20746f2063757272656e74206f776e656044820152603960f91b6064820152608401610400565b336001600160a01b03821614806104ba57506104ba8133610904565b61052c5760405162461bcd60e51b815260206004820152603860248201527f4552433732313a20617070726f76652063616c6c6572206973206e6f74206f7760448201527f6e6572206e6f7220617070726f76656420666f7220616c6c00000000000000006064820152608401610400565b6105368383610a16565b505050565b6105453382610a84565b6105615760405162461bcd60e51b815260040161040090611dee565b610536838383610b46565b604080518082019091526007546001600160a01b038116808352600160a01b90910462ffffff16602083018190529091600091612710906105ad9086611e84565b6105b79190611e70565b9150509250929050565b610536838383604051806020016040528060008152506108a1565b6000818152600260205260408120546001600160a01b0316806103005760405162461bcd60e51b815260206004820152602960248201527f4552433732313a206f776e657220717565727920666f72206e6f6e657869737460448201526832b73a103a37b5b2b760b91b6064820152608401610400565b6009546001600160a01b0316331461067e5760405163ea8e4eb560e01b815260040160405180910390fd5b600a80546001600160a01b0319166001600160a01b0392909216919091179055565b60006001600160a01b03821661070b5760405162461bcd60e51b815260206004820152602a60248201527f4552433732313a2062616c616e636520717565727920666f7220746865207a65604482015269726f206164647265737360b01b6064820152608401610400565b506001600160a01b031660009081526003602052604090205490565b61073383858484610ce6565b60095461074a906001600160a01b03163385610de6565b6107548385610e01565b827febe66bfc11c2e5988e8129cc449f5704366374a887addb99c36129b6d87394363386604051610786929190611d65565b60405180910390a250505050565b6009546001600160a01b031633146107bf5760405163ea8e4eb560e01b815260040160405180910390fd5b6107c98282610e8c565b5050565b60606001805461031590611ee6565b6001600160a01b0382163314156108355760405162461bcd60e51b815260206004820152601960248201527f4552433732313a20617070726f766520746f2063616c6c6572000000000000006044820152606401610400565b3360008181526005602090815260408083206001600160a01b03871680855290835292819020805460ff191686151590811790915590519081529192917f17307eab39ab6107e8899845ad3d59bd9653f200f220920489ca2b5937696c31910160405180910390a35050565b6108ab3383610a84565b6108c75760405162461bcd60e51b815260040161040090611dee565b6108d384848484610f28565b50505050565b606061030082610f5b565b60606040518060600160405280603f8152602001611fea603f9139905090565b60085460405163c455279160e01b81526001600160a01b03848116600483015260009281169190841690829063c45527919060240160206040518083038186803b15801561095157600080fd5b505afa158015610965573d6000803e3d6000fd5b505050506040513d601f19601f820116820180604052508101906109899190611bc3565b6001600160a01b031614156109a2576001915050610300565b6001600160a01b0380851660009081526005602090815260408083209387168352929052205460ff165b949350505050565b60006001600160e01b0319821663152a902d60e11b14806103005750610300826110ca565b6000908152600260205260409020546001600160a01b0316151590565b600081815260046020526040902080546001600160a01b0319166001600160a01b0384169081179091558190610a4b826105dc565b6001600160a01b03167f8c5be1e5ebec7d5bd14f71427d1e84f3dd0314c0f7b2291e5b200ac8c7c3b92560405160405180910390a45050565b6000610a8f826109f9565b610af05760405162461bcd60e51b815260206004820152602c60248201527f4552433732313a206f70657261746f7220717565727920666f72206e6f6e657860448201526b34b9ba32b73a103a37b5b2b760a11b6064820152608401610400565b6000610afb836105dc565b9050806001600160a01b0316846001600160a01b03161480610b365750836001600160a01b0316610b2b84610398565b6001600160a01b0316145b806109cc57506109cc8185610904565b826001600160a01b0316610b59826105dc565b6001600160a01b031614610bc15760405162461bcd60e51b815260206004820152602960248201527f4552433732313a207472616e73666572206f6620746f6b656e2074686174206960448201526839903737ba1037bbb760b91b6064820152608401610400565b6001600160a01b038216610c235760405162461bcd60e51b8152602060048201526024808201527f4552433732313a207472616e7366657220746f20746865207a65726f206164646044820152637265737360e01b6064820152608401610400565b610c2e600082610a16565b6001600160a01b0383166000908152600360205260408120805460019290610c57908490611ea3565b90915550506001600160a01b0382166000908152600360205260408120805460019290610c85908490611e58565b909155505060008181526002602052604080822080546001600160a01b0319166001600160a01b0386811691821790925591518493918716917fddf252ad1be2c89b69c2b068fc378daa952ba7f163c4a11628f55a4df523b3ef91a4505050565b600a546001600160a01b0316156108d3576000610d6f8585604051602001610d0f929190611e3f565b60408051601f1981840301815282825280516020918201207f19457468657265756d205369676e6564204d6573736167653a0a33320000000084830152603c8085019190915282518085039091018152605c909301909152815191012090565b9050610db18184848080601f01602080910402602001604051908101604052809392919081815260200183838082843760009201919091525061111a92505050565b600a546001600160a01b03908116911614610ddf576040516306ad488360e31b815260040160405180910390fd5b5050505050565b6105368383836040518060200160405280600081525061113e565b610e0a826109f9565b610e6d5760405162461bcd60e51b815260206004820152602e60248201527f45524337323155524953746f726167653a2055524920736574206f66206e6f6e60448201526d32bc34b9ba32b73a103a37b5b2b760911b6064820152608401610400565b6000828152600660209081526040909120825161053692840190611904565b612710811115610ede5760405162461bcd60e51b815260206004820152601a60248201527f45524332393831526f79616c746965733a20546f6f20686967680000000000006044820152606401610400565b604080518082019091526001600160a01b0390921680835262ffffff909116602090920182905260078054600160a01b9093026001600160b81b0319909316909117919091179055565b610f33848484610b46565b610f3f84848484611152565b6108d35760405162461bcd60e51b815260040161040090611d9c565b6060610f66826109f9565b610fcc5760405162461bcd60e51b815260206004820152603160248201527f45524337323155524953746f726167653a2055524920717565727920666f72206044820152703737b732bc34b9ba32b73a103a37b5b2b760791b6064820152608401610400565b60008281526006602052604081208054610fe590611ee6565b80601f016020809104026020016040519081016040528092919081815260200182805461101190611ee6565b801561105e5780601f106110335761010080835404028352916020019161105e565b820191906000526020600020905b81548152906001019060200180831161104157829003601f168201915b50505050509050600061107c60408051602081019091526000815290565b905080516000141561108f575092915050565b8151156110c15780826040516020016110a9929190611cf9565b60405160208183030381529060405292505050919050565b6109cc8461125f565b60006001600160e01b031982166380ac58cd60e01b14806110fb57506001600160e01b03198216635b5e139f60e01b145b8061030057506301ffc9a760e01b6001600160e01b0319831614610300565b60008060006111298585611337565b91509150611136816113a7565b509392505050565b611149848484611565565b610f3f60008484845b60006001600160a01b0384163b1561125457604051630a85bd0160e11b81526001600160a01b0385169063150b7a0290611196903390899088908890600401611d28565b602060405180830381600087803b1580156111b057600080fd5b505af19250505080156111e0575060408051601f3d908101601f191682019092526111dd91810190611ba6565b60015b61123a573d80801561120e576040519150601f19603f3d011682016040523d82523d6000602084013e611213565b606091505b5080516112325760405162461bcd60e51b815260040161040090611d9c565b805181602001fd5b6001600160e01b031916630a85bd0160e11b1490506109cc565b506001949350505050565b606061126a826109f9565b6112ce5760405162461bcd60e51b815260206004820152602f60248201527f4552433732314d657461646174613a2055524920717565727920666f72206e6f60448201526e3732bc34b9ba32b73a103a37b5b2b760891b6064820152608401610400565b60006112e560408051602081019091526000815290565b905060008151116113055760405180602001604052806000815250611330565b8061130f846116e0565b604051602001611320929190611cf9565b6040516020818303038152906040525b9392505050565b60008082516041141561136e5760208301516040840151606085015160001a611362878285856117de565b945094505050506113a0565b825160401415611398576020830151604084015161138d8683836118cb565b9350935050506113a0565b506000905060025b9250929050565b60008160048111156113bb576113bb611f7c565b14156113c45750565b60018160048111156113d8576113d8611f7c565b14156114265760405162461bcd60e51b815260206004820152601860248201527f45434453413a20696e76616c6964207369676e617475726500000000000000006044820152606401610400565b600281600481111561143a5761143a611f7c565b14156114885760405162461bcd60e51b815260206004820152601f60248201527f45434453413a20696e76616c6964207369676e6174757265206c656e677468006044820152606401610400565b600381600481111561149c5761149c611f7c565b14156114f55760405162461bcd60e51b815260206004820152602260248201527f45434453413a20696e76616c6964207369676e6174757265202773272076616c604482015261756560f01b6064820152608401610400565b600481600481111561150957611509611f7c565b14156115625760405162461bcd60e51b815260206004820152602260248201527f45434453413a20696e76616c6964207369676e6174757265202776272076616c604482015261756560f01b6064820152608401610400565b50565b6001600160a01b0382166115bb5760405162461bcd60e51b815260206004820181905260248201527f4552433732313a206d696e7420746f20746865207a65726f20616464726573736044820152606401610400565b6115c4816109f9565b156116115760405162461bcd60e51b815260206004820152601c60248201527f4552433732313a20746f6b656e20616c7265616479206d696e746564000000006044820152606401610400565b6001600160a01b038216600090815260036020526040812080546001929061163a908490611e58565b909155505060008181526002602052604080822080546001600160a01b0319166001600160a01b03868116919091179091559051839291861691907fddf252ad1be2c89b69c2b068fc378daa952ba7f163c4a11628f55a4df523b3ef908290a480826001600160a01b0316846001600160a01b03167fddf252ad1be2c89b69c2b068fc378daa952ba7f163c4a11628f55a4df523b3ef60405160405180910390a4505050565b6060816117045750506040805180820190915260018152600360fc1b602082015290565b8160005b811561172e578061171881611f21565b91506117279050600a83611e70565b9150611708565b60008167ffffffffffffffff81111561174957611749611fa8565b6040519080825280601f01601f191660200182016040528015611773576020820181803683370190505b5090505b84156109cc57611788600183611ea3565b9150611795600a86611f3c565b6117a0906030611e58565b60f81b8183815181106117b5576117b5611f92565b60200101906001600160f81b031916908160001a9053506117d7600a86611e70565b9450611777565b6000807f7fffffffffffffffffffffffffffffff5d576e7357a4501ddfe92f46681b20a083111561181557506000905060036118c2565b8460ff16601b1415801561182d57508460ff16601c14155b1561183e57506000905060046118c2565b6040805160008082526020820180845289905260ff881692820192909252606081018690526080810185905260019060a0016020604051602081039080840390855afa158015611892573d6000803e3d6000fd5b5050604051601f1901519150506001600160a01b0381166118bb576000600192509250506118c2565b9150600090505b94509492505050565b6000806001600160ff1b038316816118e860ff86901c601b611e58565b90506118f6878288856117de565b935093505050935093915050565b82805461191090611ee6565b90600052602060002090601f0160209004810192826119325760008555611978565b82601f1061194b57805160ff1916838001178555611978565b82800160010185558215611978579182015b8281111561197857825182559160200191906001019061195d565b50611984929150611988565b5090565b5b808211156119845760008155600101611989565b600067ffffffffffffffff808411156119b8576119b8611fa8565b604051601f8501601f19908116603f011681019082821181831017156119e0576119e0611fa8565b816040528093508581528686860111156119f957600080fd5b858560208301376000602087830101525050509392505050565b600060208284031215611a2557600080fd5b813561133081611fbe565b60008060408385031215611a4357600080fd5b8235611a4e81611fbe565b91506020830135611a5e81611fbe565b809150509250929050565b600080600060608486031215611a7e57600080fd5b8335611a8981611fbe565b92506020840135611a9981611fbe565b929592945050506040919091013590565b60008060008060808587031215611ac057600080fd5b8435611acb81611fbe565b93506020850135611adb81611fbe565b925060408501359150606085013567ffffffffffffffff811115611afe57600080fd5b8501601f81018713611b0f57600080fd5b611b1e8782356020840161199d565b91505092959194509250565b60008060408385031215611b3d57600080fd5b8235611b4881611fbe565b915060208301358015158114611a5e57600080fd5b60008060408385031215611b7057600080fd5b8235611b7b81611fbe565b946020939093013593505050565b600060208284031215611b9b57600080fd5b813561133081611fd3565b600060208284031215611bb857600080fd5b815161133081611fd3565b600060208284031215611bd557600080fd5b815161133081611fbe565b60008060008060608587031215611bf657600080fd5b843567ffffffffffffffff80821115611c0e57600080fd5b818701915087601f830112611c2257600080fd5b611c318883356020850161199d565b9550602087013594506040870135915080821115611c4e57600080fd5b818701915087601f830112611c6257600080fd5b813581811115611c7157600080fd5b886020828501011115611c8357600080fd5b95989497505060200194505050565b600060208284031215611ca457600080fd5b5035919050565b60008060408385031215611cbe57600080fd5b50508035926020909101359150565b60008151808452611ce5816020860160208601611eba565b601f01601f19169290920160200192915050565b60008351611d0b818460208801611eba565b835190830190611d1f818360208801611eba565b01949350505050565b6001600160a01b0385811682528416602082015260408101839052608060608201819052600090611d5b90830184611ccd565b9695505050505050565b6001600160a01b03831681526040602082018190526000906109cc90830184611ccd565b6020815260006113306020830184611ccd565b60208082526032908201527f4552433732313a207472616e7366657220746f206e6f6e20455243373231526560408201527131b2b4bb32b91034b6b83632b6b2b73a32b960711b606082015260800190565b60208082526031908201527f4552433732313a207472616e736665722063616c6c6572206973206e6f74206f6040820152701ddb995c881b9bdc88185c1c1c9bdd9959607a1b606082015260800190565b8281526040602082015260006109cc6040830184611ccd565b60008219821115611e6b57611e6b611f50565b500190565b600082611e7f57611e7f611f66565b500490565b6000816000190483118215151615611e9e57611e9e611f50565b500290565b600082821015611eb557611eb5611f50565b500390565b60005b83811015611ed5578181015183820152602001611ebd565b838111156108d35750506000910152565b600181811c90821680611efa57607f821691505b60208210811415611f1b57634e487b7160e01b600052602260045260246000fd5b50919050565b6000600019821415611f3557611f35611f50565b5060010190565b600082611f4b57611f4b611f66565b500690565b634e487b7160e01b600052601160045260246000fd5b634e487b7160e01b600052601260045260246000fd5b634e487b7160e01b600052602160045260246000fd5b634e487b7160e01b600052603260045260246000fd5b634e487b7160e01b600052604160045260246000fd5b6001600160a01b038116811461156257600080fd5b6001600160e01b03198116811461156257600080fdfe68747470733a2f2f617277656176652e6e65742f4c6a7a72653044726e776862783844496f44494d5130756643314b755f4874765269394949784e756c4d51a2646970667358221220bf50455a0e2ddc4c7d3ddceab573a0844485ee254fb61ceb458b744f73fd7a9564736f6c63430008070033",
  "devdoc": {
    "kind": "dev",
    "methods": {
      "approve(address,uint256)": {
        "details": "See {IERC721-approve}."
      },
      "balanceOf(address)": {
        "details": "See {IERC721-balanceOf}."
      },
      "getApproved(uint256)": {
        "details": "See {IERC721-getApproved}."
      },
      "mintSelected(string,uint256,bytes)": {
        "details": "mints a unique NFT from some user-selected piece of text (which we make into an image & store in Arweave)",
        "params": {
          "signature": "from `signer` to ensure no race condition on token ids and ensures this open collection is not unnecessarily vulnerable",
          "tokenId": "the tokenId to mint",
          "uri": "arweave url"
        }
      },
      "name()": {
        "details": "See {IERC721Metadata-name}."
      },
      "ownerOf(uint256)": {
        "details": "See {IERC721-ownerOf}."
      },
      "royaltyInfo(uint256,uint256)": {
        "params": {
          "_tokenId": "- the NFT asset queried for royalty information",
          "_value": "- the sale price of the NFT asset specified by _tokenId"
        },
        "returns": {
          "receiver": "- address of who should be sent the royalty payment",
          "royaltyAmount": "- the royalty payment amount for value sale price"
        }
      },
      "safeTransferFrom(address,address,uint256)": {
        "details": "See {IERC721-safeTransferFrom}."
      },
      "safeTransferFrom(address,address,uint256,bytes)": {
        "details": "See {IERC721-safeTransferFrom}."
      },
      "setApprovalForAll(address,bool)": {
        "details": "See {IERC721-setApprovalForAll}."
      },
      "setRoyalties(address,uint256)": {
        "params": {
          "recipient": "the royalties recipient - will always be pr1s0nart, for regulatory reasons.",
          "value": "royalties value (between 0 and 10000)"
        }
      },
      "setSigner(address)": {
        "params": {
          "newSigner": "address of the new signer"
        }
      },
      "symbol()": {
        "details": "See {IERC721Metadata-symbol}."
      },
      "tokenURI(uint256)": {
        "details": "See {IERC721Metadata-tokenURI}."
      },
      "transferFrom(address,address,uint256)": {
        "details": "See {IERC721-transferFrom}."
      }
    },
    "version": 1
  },
  "userdoc": {
    "kind": "user",
    "methods": {
      "contractURI()": {
        "notice": "Link to contract metadata"
      },
      "isApprovedForAll(address,address)": {
        "notice": "Override isApprovedForAll to whitelist user's OpenSea proxy accounts to enable gas-less listings."
      },
      "setRoyalties(address,uint256)": {
        "notice": "Set the royalties for the whole contract. Our intention is to set it to 10% in perpetuity."
      },
      "setSigner(address)": {
        "notice": "allows creator to set a new signer for the mint"
      }
    },
    "version": 1
  },
  "storageLayout": {
    "storage": [
      {
        "astId": 2077,
        "contract": "contracts/SignatureNFT.sol:SignatureNFT",
        "label": "_name",
        "offset": 0,
        "slot": "0",
        "type": "t_string_storage"
      },
      {
        "astId": 2079,
        "contract": "contracts/SignatureNFT.sol:SignatureNFT",
        "label": "_symbol",
        "offset": 0,
        "slot": "1",
        "type": "t_string_storage"
      },
      {
        "astId": 2083,
        "contract": "contracts/SignatureNFT.sol:SignatureNFT",
        "label": "_owners",
        "offset": 0,
        "slot": "2",
        "type": "t_mapping(t_uint256,t_address)"
      },
      {
        "astId": 2087,
        "contract": "contracts/SignatureNFT.sol:SignatureNFT",
        "label": "_balances",
        "offset": 0,
        "slot": "3",
        "type": "t_mapping(t_address,t_uint256)"
      },
      {
        "astId": 2091,
        "contract": "contracts/SignatureNFT.sol:SignatureNFT",
        "label": "_tokenApprovals",
        "offset": 0,
        "slot": "4",
        "type": "t_mapping(t_uint256,t_address)"
      },
      {
        "astId": 2097,
        "contract": "contracts/SignatureNFT.sol:SignatureNFT",
        "label": "_operatorApprovals",
        "offset": 0,
        "slot": "5",
        "type": "t_mapping(t_address,t_mapping(t_address,t_bool))"
      },
      {
        "astId": 3026,
        "contract": "contracts/SignatureNFT.sol:SignatureNFT",
        "label": "_tokenURIs",
        "offset": 0,
        "slot": "6",
        "type": "t_mapping(t_uint256,t_string_storage)"
      },
      {
        "astId": 1952,
        "contract": "contracts/SignatureNFT.sol:SignatureNFT",
        "label": "_royalties",
        "offset": 0,
        "slot": "7",
        "type": "t_struct(RoyaltyInfo)2028_storage"
      },
      {
        "astId": 2905,
        "contract": "contracts/SignatureNFT.sol:SignatureNFT",
        "label": "proxyRegistryAddress",
        "offset": 0,
        "slot": "8",
        "type": "t_address"
      },
      {
        "astId": 1775,
        "contract": "contracts/SignatureNFT.sol:SignatureNFT",
        "label": "creator",
        "offset": 0,
        "slot": "9",
        "type": "t_address"
      },
      {
        "astId": 1777,
        "contract": "contracts/SignatureNFT.sol:SignatureNFT",
        "label": "signer",
        "offset": 0,
        "slot": "10",
        "type": "t_address"
      }
    ],
    "types": {
      "t_address": {
        "encoding": "inplace",
        "label": "address",
        "numberOfBytes": "20"
      },
      "t_bool": {
        "encoding": "inplace",
        "label": "bool",
        "numberOfBytes": "1"
      },
      "t_mapping(t_address,t_bool)": {
        "encoding": "mapping",
        "key": "t_address",
        "label": "mapping(address => bool)",
        "numberOfBytes": "32",
        "value": "t_bool"
      },
      "t_mapping(t_address,t_mapping(t_address,t_bool))": {
        "encoding": "mapping",
        "key": "t_address",
        "label": "mapping(address => mapping(address => bool))",
        "numberOfBytes": "32",
        "value": "t_mapping(t_address,t_bool)"
      },
      "t_mapping(t_address,t_uint256)": {
        "encoding": "mapping",
        "key": "t_address",
        "label": "mapping(address => uint256)",
        "numberOfBytes": "32",
        "value": "t_uint256"
      },
      "t_mapping(t_uint256,t_address)": {
        "encoding": "mapping",
        "key": "t_uint256",
        "label": "mapping(uint256 => address)",
        "numberOfBytes": "32",
        "value": "t_address"
      },
      "t_mapping(t_uint256,t_string_storage)": {
        "encoding": "mapping",
        "key": "t_uint256",
        "label": "mapping(uint256 => string)",
        "numberOfBytes": "32",
        "value": "t_string_storage"
      },
      "t_string_storage": {
        "encoding": "bytes",
        "label": "string",
        "numberOfBytes": "32"
      },
      "t_struct(RoyaltyInfo)2028_storage": {
        "encoding": "inplace",
        "label": "struct ERC2981Royalties.RoyaltyInfo",
        "members": [
          {
            "astId": 2025,
            "contract": "contracts/SignatureNFT.sol:SignatureNFT",
            "label": "recipient",
            "offset": 0,
            "slot": "0",
            "type": "t_address"
          },
          {
            "astId": 2027,
            "contract": "contracts/SignatureNFT.sol:SignatureNFT",
            "label": "amount",
            "offset": 20,
            "slot": "0",
            "type": "t_uint24"
          }
        ],
        "numberOfBytes": "32"
      },
      "t_uint24": {
        "encoding": "inplace",
        "label": "uint24",
        "numberOfBytes": "3"
      },
      "t_uint256": {
        "encoding": "inplace",
        "label": "uint256",
        "numberOfBytes": "32"
      }
    }
  }
}