{
  "address": "0xd9B6206D7001AEdC02CeA223D4E905fF3AD77e8c",
  "abi": [
    {
      "inputs": [
        {
          "internalType": "address",
          "name": "_proxyRegistryAddress",
          "type": "address"
        },
        {
          "internalType": "address",
          "name": "_creator",
          "type": "address"
        }
      ],
      "stateMutability": "nonpayable",
      "type": "constructor"
    },
    {
      "inputs": [],
      "name": "NotAuthorized",
      "type": "error"
    },
    {
      "anonymous": false,
      "inputs": [
        {
          "indexed": true,
          "internalType": "address",
          "name": "owner",
          "type": "address"
        },
        {
          "indexed": true,
          "internalType": "address",
          "name": "approved",
          "type": "address"
        },
        {
          "indexed": true,
          "internalType": "uint256",
          "name": "tokenId",
          "type": "uint256"
        }
      ],
      "name": "Approval",
      "type": "event"
    },
    {
      "anonymous": false,
      "inputs": [
        {
          "indexed": true,
          "internalType": "address",
          "name": "owner",
          "type": "address"
        },
        {
          "indexed": true,
          "internalType": "address",
          "name": "operator",
          "type": "address"
        },
        {
          "indexed": false,
          "internalType": "bool",
          "name": "approved",
          "type": "bool"
        }
      ],
      "name": "ApprovalForAll",
      "type": "event"
    },
    {
      "anonymous": false,
      "inputs": [
        {
          "indexed": false,
          "internalType": "address",
          "name": "signer",
          "type": "address"
        },
        {
          "indexed": true,
          "internalType": "uint256",
          "name": "tokenId",
          "type": "uint256"
        },
        {
          "indexed": false,
          "internalType": "uint16",
          "name": "start",
          "type": "uint16"
        },
        {
          "indexed": false,
          "internalType": "uint16",
          "name": "end",
          "type": "uint16"
        }
      ],
      "name": "NewSignature",
      "type": "event"
    },
    {
      "anonymous": false,
      "inputs": [
        {
          "indexed": true,
          "internalType": "address",
          "name": "from",
          "type": "address"
        },
        {
          "indexed": true,
          "internalType": "address",
          "name": "to",
          "type": "address"
        },
        {
          "indexed": true,
          "internalType": "uint256",
          "name": "tokenId",
          "type": "uint256"
        }
      ],
      "name": "Transfer",
      "type": "event"
    },
    {
      "inputs": [
        {
          "internalType": "address",
          "name": "to",
          "type": "address"
        },
        {
          "internalType": "uint256",
          "name": "tokenId",
          "type": "uint256"
        }
      ],
      "name": "approve",
      "outputs": [],
      "stateMutability": "nonpayable",
      "type": "function"
    },
    {
      "inputs": [],
      "name": "backup",
      "outputs": [
        {
          "internalType": "string",
          "name": "",
          "type": "string"
        }
      ],
      "stateMutability": "view",
      "type": "function"
    },
    {
      "inputs": [
        {
          "internalType": "address",
          "name": "owner",
          "type": "address"
        }
      ],
      "name": "balanceOf",
      "outputs": [
        {
          "internalType": "uint256",
          "name": "",
          "type": "uint256"
        }
      ],
      "stateMutability": "view",
      "type": "function"
    },
    {
      "inputs": [],
      "name": "contractURI",
      "outputs": [
        {
          "internalType": "string",
          "name": "",
          "type": "string"
        }
      ],
      "stateMutability": "pure",
      "type": "function"
    },
    {
      "inputs": [],
      "name": "creator",
      "outputs": [
        {
          "internalType": "address",
          "name": "",
          "type": "address"
        }
      ],
      "stateMutability": "view",
      "type": "function"
    },
    {
      "inputs": [],
      "name": "essay",
      "outputs": [
        {
          "internalType": "string",
          "name": "",
          "type": "string"
        }
      ],
      "stateMutability": "view",
      "type": "function"
    },
    {
      "inputs": [],
      "name": "gateway",
      "outputs": [
        {
          "internalType": "string",
          "name": "",
          "type": "string"
        }
      ],
      "stateMutability": "view",
      "type": "function"
    },
    {
      "inputs": [
        {
          "internalType": "uint256",
          "name": "tokenId",
          "type": "uint256"
        }
      ],
      "name": "getApproved",
      "outputs": [
        {
          "internalType": "address",
          "name": "",
          "type": "address"
        }
      ],
      "stateMutability": "view",
      "type": "function"
    },
    {
      "inputs": [],
      "name": "imgHash",
      "outputs": [
        {
          "internalType": "string",
          "name": "",
          "type": "string"
        }
      ],
      "stateMutability": "view",
      "type": "function"
    },
    {
      "inputs": [
        {
          "internalType": "address",
          "name": "owner",
          "type": "address"
        },
        {
          "internalType": "address",
          "name": "operator",
          "type": "address"
        }
      ],
      "name": "isApprovedForAll",
      "outputs": [
        {
          "internalType": "bool",
          "name": "",
          "type": "bool"
        }
      ],
      "stateMutability": "view",
      "type": "function"
    },
    {
      "inputs": [
        {
          "internalType": "uint16",
          "name": "start",
          "type": "uint16"
        },
        {
          "internalType": "uint16",
          "name": "end",
          "type": "uint16"
        }
      ],
      "name": "mintSelected",
      "outputs": [],
      "stateMutability": "nonpayable",
      "type": "function"
    },
    {
      "inputs": [],
      "name": "name",
      "outputs": [
        {
          "internalType": "string",
          "name": "",
          "type": "string"
        }
      ],
      "stateMutability": "view",
      "type": "function"
    },
    {
      "inputs": [
        {
          "internalType": "uint256",
          "name": "tokenId",
          "type": "uint256"
        }
      ],
      "name": "ownerOf",
      "outputs": [
        {
          "internalType": "address",
          "name": "",
          "type": "address"
        }
      ],
      "stateMutability": "view",
      "type": "function"
    },
    {
      "inputs": [
        {
          "internalType": "uint256",
          "name": "",
          "type": "uint256"
        },
        {
          "internalType": "uint256",
          "name": "value",
          "type": "uint256"
        }
      ],
      "name": "royaltyInfo",
      "outputs": [
        {
          "internalType": "address",
          "name": "receiver",
          "type": "address"
        },
        {
          "internalType": "uint256",
          "name": "royaltyAmount",
          "type": "uint256"
        }
      ],
      "stateMutability": "view",
      "type": "function"
    },
    {
      "inputs": [
        {
          "internalType": "address",
          "name": "from",
          "type": "address"
        },
        {
          "internalType": "address",
          "name": "to",
          "type": "address"
        },
        {
          "internalType": "uint256",
          "name": "tokenId",
          "type": "uint256"
        }
      ],
      "name": "safeTransferFrom",
      "outputs": [],
      "stateMutability": "nonpayable",
      "type": "function"
    },
    {
      "inputs": [
        {
          "internalType": "address",
          "name": "from",
          "type": "address"
        },
        {
          "internalType": "address",
          "name": "to",
          "type": "address"
        },
        {
          "internalType": "uint256",
          "name": "tokenId",
          "type": "uint256"
        },
        {
          "internalType": "bytes",
          "name": "_data",
          "type": "bytes"
        }
      ],
      "name": "safeTransferFrom",
      "outputs": [],
      "stateMutability": "nonpayable",
      "type": "function"
    },
    {
      "inputs": [
        {
          "internalType": "uint256",
          "name": "",
          "type": "uint256"
        }
      ],
      "name": "selection",
      "outputs": [
        {
          "internalType": "uint16",
          "name": "start",
          "type": "uint16"
        },
        {
          "internalType": "uint16",
          "name": "end",
          "type": "uint16"
        }
      ],
      "stateMutability": "view",
      "type": "function"
    },
    {
      "inputs": [
        {
          "internalType": "address",
          "name": "operator",
          "type": "address"
        },
        {
          "internalType": "bool",
          "name": "approved",
          "type": "bool"
        }
      ],
      "name": "setApprovalForAll",
      "outputs": [],
      "stateMutability": "nonpayable",
      "type": "function"
    },
    {
      "inputs": [
        {
          "internalType": "address",
          "name": "recipient",
          "type": "address"
        },
        {
          "internalType": "uint256",
          "name": "value",
          "type": "uint256"
        }
      ],
      "name": "setRoyalties",
      "outputs": [],
      "stateMutability": "nonpayable",
      "type": "function"
    },
    {
      "inputs": [
        {
          "internalType": "bytes4",
          "name": "interfaceId",
          "type": "bytes4"
        }
      ],
      "name": "supportsInterface",
      "outputs": [
        {
          "internalType": "bool",
          "name": "",
          "type": "bool"
        }
      ],
      "stateMutability": "view",
      "type": "function"
    },
    {
      "inputs": [],
      "name": "symbol",
      "outputs": [
        {
          "internalType": "string",
          "name": "",
          "type": "string"
        }
      ],
      "stateMutability": "view",
      "type": "function"
    },
    {
      "inputs": [
        {
          "internalType": "uint256",
          "name": "id",
          "type": "uint256"
        }
      ],
      "name": "tokenURI",
      "outputs": [
        {
          "internalType": "string",
          "name": "",
          "type": "string"
        }
      ],
      "stateMutability": "view",
      "type": "function"
    },
    {
      "inputs": [
        {
          "internalType": "address",
          "name": "from",
          "type": "address"
        },
        {
          "internalType": "address",
          "name": "to",
          "type": "address"
        },
        {
          "internalType": "uint256",
          "name": "tokenId",
          "type": "uint256"
        }
      ],
      "name": "transferFrom",
      "outputs": [],
      "stateMutability": "nonpayable",
      "type": "function"
    },
    {
      "inputs": [
        {
          "internalType": "string",
          "name": "newGateway",
          "type": "string"
        }
      ],
      "name": "updateGateway",
      "outputs": [],
      "stateMutability": "nonpayable",
      "type": "function"
    }
  ],
  "transactionHash": "0x53b898694b2ebaf6bd05485fad777e8976dd557839971512d5983d5600f977a4",
  "args": [
    "0xa5409ec958c83c3f309868babaca7c86dcb077c1",
    "0x7DAC9Fc15C1Db4379D75A6E3f330aE849dFfcE18"
  ],
  "numDeployments": 1,
  "solcInputHash": "236bd815119f009173c9fdc444b168a6",
  "bytecode": "0x60c0604052601560808190527f68747470733a2f2f697066732e696f2f697066732f000000000000000000000060a09081526200004091600b9190620001c4565b506040518060600160405280602e815260200162002425602e913980516200007191600c91602090910190620001c4565b506040518060600160405280603f815260200162002492603f91398051620000a291600d91602090910190620001c4565b506040518060600160405280603f815260200162002453603f91398051620000d391600e91602090910190620001c4565b50348015620000e157600080fd5b50604051620024d1380380620024d1833981016040819052620001049162000287565b6040518060400160405280601381526020017f5369676e61747572652045636f6e6f6d696573000000000000000000000000008152506040518060400160405280600481526020016329a4a3a760e11b815250838282816000908051906020019062000172929190620001c4565b50805162000188906001906020840190620001c4565b5050600880546001600160a01b039384166001600160a01b031991821617909155600f805496909316951694909417905550620002fc92505050565b828054620001d290620002bf565b90600052602060002090601f016020900481019282620001f6576000855562000241565b82601f106200021157805160ff191683800117855562000241565b8280016001018555821562000241579182015b828111156200024157825182559160200191906001019062000224565b506200024f92915062000253565b5090565b5b808211156200024f576000815560010162000254565b80516001600160a01b03811681146200028257600080fd5b919050565b600080604083850312156200029b57600080fd5b620002a6836200026a565b9150620002b6602084016200026a565b90509250929050565b600181811c90821680620002d457607f821691505b60208210811415620002f657634e487b7160e01b600052602260045260246000fd5b50919050565b612119806200030c6000396000f3fe608060405234801561001057600080fd5b50600436106101585760003560e01c80636352211e116100c3578063b88d4fde1161007c578063b88d4fde146102da578063c87b56dd146102ed578063d016fc2214610300578063e726168714610349578063e8a3d4851461035c578063e985e9c51461036457600080fd5b80636352211e146102655780636f951f381461027857806370a082311461028b5780638c7ea24b146102ac57806395d89b41146102bf578063a22cb465146102c757600080fd5b806323b872dd1161011557806323b872dd146101f55780632a55205a14610208578063427158f61461023a57806342842e0e1461024257806350a9e127146102555780635a41c8551461025d57600080fd5b806301ffc9a71461015d57806302d05d3f1461018557806306fdde03146101b0578063081812fc146101c5578063095ea7b3146101d8578063116191b6146101ed575b600080fd5b61017061016b366004611924565b610377565b60405190151581526020015b60405180910390f35b600f54610198906001600160a01b031681565b6040516001600160a01b03909116815260200161017c565b6101b8610388565b60405161017c9190611e0d565b6101986101d33660046119f7565b61041a565b6101eb6101e63660046118f8565b6104b4565b005b6101b86105ca565b6101eb610203366004611804565b610658565b61021b610216366004611a10565b610689565b604080516001600160a01b03909316835260208301919091520161017c565b6101b86106de565b6101eb610250366004611804565b6106eb565b6101b8610706565b6101b8610713565b6101986102733660046119f7565b610720565b6101eb6102863660046119c4565b610797565b61029e6102993660046117a7565b6108dd565b60405190815260200161017c565b6101eb6102ba3660046118f8565b610964565b6101b861099d565b6101eb6102d53660046118c5565b6109ac565b6101eb6102e8366004611845565b610a71565b6101b86102fb3660046119f7565b610aa9565b61032e61030e3660046119f7565b600a6020526000908152604090205461ffff808216916201000090041682565b6040805161ffff93841681529290911660208301520161017c565b6101eb61035736600461197b565b610c1a565b6101b8610c58565b6101706103723660046117cb565b610c78565b600061038282610d48565b92915050565b60606000805461039790611f74565b80601f01602080910402602001604051908101604052809291908181526020018280546103c390611f74565b80156104105780601f106103e557610100808354040283529160200191610410565b820191906000526020600020905b8154815290600101906020018083116103f357829003601f168201915b5050505050905090565b6000818152600260205260408120546001600160a01b03166104985760405162461bcd60e51b815260206004820152602c60248201527f4552433732313a20617070726f76656420717565727920666f72206e6f6e657860448201526b34b9ba32b73a103a37b5b2b760a11b60648201526084015b60405180910390fd5b506000908152600460205260409020546001600160a01b031690565b60006104bf82610720565b9050806001600160a01b0316836001600160a01b0316141561052d5760405162461bcd60e51b815260206004820152602160248201527f4552433732313a20617070726f76616c20746f2063757272656e74206f776e656044820152603960f91b606482015260840161048f565b336001600160a01b038216148061054957506105498133610c78565b6105bb5760405162461bcd60e51b815260206004820152603860248201527f4552433732313a20617070726f76652063616c6c6572206973206e6f74206f7760448201527f6e6572206e6f7220617070726f76656420666f7220616c6c0000000000000000606482015260840161048f565b6105c58383610d6d565b505050565b600b80546105d790611f74565b80601f016020809104026020016040519081016040528092919081815260200182805461060390611f74565b80156106505780601f1061062557610100808354040283529160200191610650565b820191906000526020600020905b81548152906001019060200180831161063357829003601f168201915b505050505081565b6106623382610ddb565b61067e5760405162461bcd60e51b815260040161048f90611e72565b6105c5838383610eaa565b604080518082019091526007546001600160a01b038116808352600160a01b90910462ffffff16602083018190529091600091612710906106ca9086611eef565b6106d49190611edb565b9150509250929050565b600e80546105d790611f74565b6105c583838360405180602001604052806000815250610a71565b600d80546105d790611f74565b600c80546105d790611f74565b6000818152600260205260408120546001600160a01b0316806103825760405162461bcd60e51b815260206004820152602960248201527f4552433732313a206f776e657220717565727920666f72206e6f6e657869737460448201526832b73a103a37b5b2b760b91b606482015260840161048f565b8061ffff168261ffff161080156107ac575060015b80156107be575061331b8161ffff1611155b80156107d957506101cf6107d28383611f0e565b61ffff1611155b6108155760405162461bcd60e51b815260206004820152600d60248201526c092dcecc2d8d2c840d2dcc8caf609b1b604482015260640161048f565b600061082060095490565b60408051808201825261ffff808716825285811660208084019182526000868152600a909152939093209151825493518216620100000263ffffffff19909416911617919091179055600f54909150610883906001600160a01b0316338361104a565b610891600980546001019055565b6040805133815261ffff8581166020830152841681830152905182917f33544f5c3a1a056bc1ca444c63ba29f441dad27582b6fe53231f9ba7f197c52b919081900360600190a2505050565b60006001600160a01b0382166109485760405162461bcd60e51b815260206004820152602a60248201527f4552433732313a2062616c616e636520717565727920666f7220746865207a65604482015269726f206164647265737360b01b606482015260840161048f565b506001600160a01b031660009081526003602052604090205490565b600f546001600160a01b0316331461098f5760405163ea8e4eb560e01b815260040160405180910390fd5b6109998282611065565b5050565b60606001805461039790611f74565b6001600160a01b038216331415610a055760405162461bcd60e51b815260206004820152601960248201527f4552433732313a20617070726f766520746f2063616c6c657200000000000000604482015260640161048f565b3360008181526005602090815260408083206001600160a01b03871680855290835292819020805460ff191686151590811790915590519081529192917f17307eab39ab6107e8899845ad3d59bd9653f200f220920489ca2b5937696c31910160405180910390a35050565b610a7b3383610ddb565b610a975760405162461bcd60e51b815260040161048f90611e72565b610aa384848484611101565b50505050565b6000818152600260205260409020546060906001600160a01b0316610afc5760405162461bcd60e51b81526020600482015260096024820152681b9bdd08195e1a5cdd60ba1b604482015260640161048f565b6000828152600a6020908152604080832081518083019092525461ffff8082168084526201000090920416928201929092529190600b90600c90610b3f90611134565b610b50856020015161ffff16611134565b604051602001610b639493929190611b14565b60405160208183030381529060405290506000600d610b89846000015161ffff16611134565b610b9a856020015161ffff16611134565b604051602001610bac93929190611b74565b6040516020818303038152906040529050610bf1610bc986611134565b8284604051602001610bdd93929190611bca565b604051602081830303815290604052611232565b604051602001610c019190611d95565b6040516020818303038152906040529350505050919050565b600f546001600160a01b03163314610c455760405163ea8e4eb560e01b815260040160405180910390fd5b805161099990600b906020840190611681565b60606040518060600160405280603f81526020016120a5603f9139905090565b60085460405163c455279160e01b81526001600160a01b03848116600483015260009281169190841690829063c45527919060240160206040518083038186803b158015610cc557600080fd5b505afa158015610cd9573d6000803e3d6000fd5b505050506040513d601f19601f82011682018060405250810190610cfd919061195e565b6001600160a01b03161415610d16576001915050610382565b6001600160a01b0380851660009081526005602090815260408083209387168352929052205460ff165b949350505050565b60006001600160e01b0319821663152a902d60e11b1480610382575061038282611386565b600081815260046020526040902080546001600160a01b0319166001600160a01b0384169081179091558190610da282610720565b6001600160a01b03167f8c5be1e5ebec7d5bd14f71427d1e84f3dd0314c0f7b2291e5b200ac8c7c3b92560405160405180910390a45050565b6000818152600260205260408120546001600160a01b0316610e545760405162461bcd60e51b815260206004820152602c60248201527f4552433732313a206f70657261746f7220717565727920666f72206e6f6e657860448201526b34b9ba32b73a103a37b5b2b760a11b606482015260840161048f565b6000610e5f83610720565b9050806001600160a01b0316846001600160a01b03161480610e9a5750836001600160a01b0316610e8f8461041a565b6001600160a01b0316145b80610d405750610d408185610c78565b826001600160a01b0316610ebd82610720565b6001600160a01b031614610f255760405162461bcd60e51b815260206004820152602960248201527f4552433732313a207472616e73666572206f6620746f6b656e2074686174206960448201526839903737ba1037bbb760b91b606482015260840161048f565b6001600160a01b038216610f875760405162461bcd60e51b8152602060048201526024808201527f4552433732313a207472616e7366657220746f20746865207a65726f206164646044820152637265737360e01b606482015260840161048f565b610f92600082610d6d565b6001600160a01b0383166000908152600360205260408120805460019290610fbb908490611f31565b90915550506001600160a01b0382166000908152600360205260408120805460019290610fe9908490611ec3565b909155505060008181526002602052604080822080546001600160a01b0319166001600160a01b0386811691821790925591518493918716917fddf252ad1be2c89b69c2b068fc378daa952ba7f163c4a11628f55a4df523b3ef91a4505050565b6105c5838383604051806020016040528060008152506113d6565b6127108111156110b75760405162461bcd60e51b815260206004820152601a60248201527f45524332393831526f79616c746965733a20546f6f2068696768000000000000604482015260640161048f565b604080518082019091526001600160a01b0390921680835262ffffff909116602090920182905260078054600160a01b9093026001600160b81b0319909316909117919091179055565b61110c848484610eaa565b611118848484846113ea565b610aa35760405162461bcd60e51b815260040161048f90611e20565b6060816111585750506040805180820190915260018152600360fc1b602082015290565b8160005b8115611182578061116c81611faf565b915061117b9050600a83611edb565b915061115c565b60008167ffffffffffffffff81111561119d5761119d612020565b6040519080825280601f01601f1916602001820160405280156111c7576020820181803683370190505b5090505b8415610d40576111dc600183611f31565b91506111e9600a86611fca565b6111f4906030611ec3565b60f81b8183815181106112095761120961200a565b60200101906001600160f81b031916908160001a90535061122b600a86611edb565b94506111cb565b606081516000141561125257505060408051602081019091526000815290565b600060405180606001604052806040815260200161206560409139905060006003845160026112819190611ec3565b61128b9190611edb565b611296906004611eef565b67ffffffffffffffff8111156112ae576112ae612020565b6040519080825280601f01601f1916602001820160405280156112d8576020820181803683370190505b509050600182016020820185865187015b80821015611344576003820191508151603f8160121c168501518453600184019350603f81600c1c168501518453600184019350603f8160061c168501518453600184019350603f81168501518453506001830192506112e9565b505060038651066001811461136057600281146113735761137b565b603d6001830353603d600283035361137b565b603d60018303535b509195945050505050565b60006001600160e01b031982166380ac58cd60e01b14806113b757506001600160e01b03198216635b5e139f60e01b145b8061038257506301ffc9a760e01b6001600160e01b0319831614610382565b6113e18484846114f7565b61111860008484845b60006001600160a01b0384163b156114ec57604051630a85bd0160e11b81526001600160a01b0385169063150b7a029061142e903390899088908890600401611dda565b602060405180830381600087803b15801561144857600080fd5b505af1925050508015611478575060408051601f3d908101601f1916820190925261147591810190611941565b60015b6114d2573d8080156114a6576040519150601f19603f3d011682016040523d82523d6000602084013e6114ab565b606091505b5080516114ca5760405162461bcd60e51b815260040161048f90611e20565b805181602001fd5b6001600160e01b031916630a85bd0160e11b149050610d40565b506001949350505050565b6001600160a01b03821661154d5760405162461bcd60e51b815260206004820181905260248201527f4552433732313a206d696e7420746f20746865207a65726f2061646472657373604482015260640161048f565b6000818152600260205260409020546001600160a01b0316156115b25760405162461bcd60e51b815260206004820152601c60248201527f4552433732313a20746f6b656e20616c7265616479206d696e74656400000000604482015260640161048f565b6001600160a01b03821660009081526003602052604081208054600192906115db908490611ec3565b909155505060008181526002602052604080822080546001600160a01b0319166001600160a01b03868116919091179091559051839291861691907fddf252ad1be2c89b69c2b068fc378daa952ba7f163c4a11628f55a4df523b3ef908290a480826001600160a01b0316846001600160a01b03167fddf252ad1be2c89b69c2b068fc378daa952ba7f163c4a11628f55a4df523b3ef60405160405180910390a4505050565b82805461168d90611f74565b90600052602060002090601f0160209004810192826116af57600085556116f5565b82601f106116c857805160ff19168380011785556116f5565b828001600101855582156116f5579182015b828111156116f55782518255916020019190600101906116da565b50611701929150611705565b5090565b5b808211156117015760008155600101611706565b600067ffffffffffffffff8084111561173557611735612020565b604051601f8501601f19908116603f0116810190828211818310171561175d5761175d612020565b8160405280935085815286868601111561177657600080fd5b858560208301376000602087830101525050509392505050565b803561ffff811681146117a257600080fd5b919050565b6000602082840312156117b957600080fd5b81356117c481612036565b9392505050565b600080604083850312156117de57600080fd5b82356117e981612036565b915060208301356117f981612036565b809150509250929050565b60008060006060848603121561181957600080fd5b833561182481612036565b9250602084013561183481612036565b929592945050506040919091013590565b6000806000806080858703121561185b57600080fd5b843561186681612036565b9350602085013561187681612036565b925060408501359150606085013567ffffffffffffffff81111561189957600080fd5b8501601f810187136118aa57600080fd5b6118b98782356020840161171a565b91505092959194509250565b600080604083850312156118d857600080fd5b82356118e381612036565b9150602083013580151581146117f957600080fd5b6000806040838503121561190b57600080fd5b823561191681612036565b946020939093013593505050565b60006020828403121561193657600080fd5b81356117c48161204e565b60006020828403121561195357600080fd5b81516117c48161204e565b60006020828403121561197057600080fd5b81516117c481612036565b60006020828403121561198d57600080fd5b813567ffffffffffffffff8111156119a457600080fd5b8201601f810184136119b557600080fd5b610d408482356020840161171a565b600080604083850312156119d757600080fd5b6119e083611790565b91506119ee60208401611790565b90509250929050565b600060208284031215611a0957600080fd5b5035919050565b60008060408385031215611a2357600080fd5b50508035926020909101359150565b60008151808452611a4a816020860160208601611f48565b601f01601f19169290920160200192915050565b60008151611a70818560208601611f48565b9290920192915050565b8054600090600181811c9080831680611a9457607f831692505b6020808410821415611ab657634e487b7160e01b600052602260045260246000fd5b818015611aca5760018114611adb57611b08565b60ff19861689528489019650611b08565b60008881526020902060005b86811015611b005781548b820152908501908301611ae7565b505084890196505b50505050505092915050565b6000611b29611b238388611a7a565b86611a7a565b612f2360f01b81528451611b44816002840160208901611f48565b602d60f81b600292909101918201528351611b66816003840160208801611f48565b016003019695505050505050565b6000611b808286611a7a565b612f2360f01b81528451611b9b816002840160208901611f48565b602d60f81b600292909101918201528351611bbd816003840160208801611f48565b0160030195945050505050565b7f7b226e616d65223a225369676e6174757265204e465420230000000000000000815260008451611c02816018850160208901611f48565b7f222c226465736372697074696f6e223a224120756e69717565207369676e206f6018918401918201527f66206f75722074696d65732c2073656c656374656420746f207265707265736560388201527f6e7420696e6372656173696e676c79207369676e69666963616e74206d6f6e6560588201527f7920696e207468697320696e66696e6974652067616d6520776520617265207060788201527f6c6179696e6720746f6765746865722e20417320796f7520636f6e736964657260988201527f20746865736520756e697175652073796d626f6c732c2072656d656d6265722060b88201527f74686174207765616c7468207472756c79206d65616e7320686176696e67206560d88201527f6e6f75676820746f2073686172652e222c2265787465726e616c5f75726c223a60f8820152601160f91b610118820152611d8b611d7d611d77611d58610119850189611a5e565b7211161130b734b6b0ba34b7b72fbab936111d1160691b815260130190565b86611a5e565b61227d60f01b815260020190565b9695505050505050565b7f646174613a6170706c69636174696f6e2f6a736f6e3b6261736536342c000000815260008251611dcd81601d850160208701611f48565b91909101601d0192915050565b6001600160a01b0385811682528416602082015260408101839052608060608201819052600090611d8b90830184611a32565b6020815260006117c46020830184611a32565b60208082526032908201527f4552433732313a207472616e7366657220746f206e6f6e20455243373231526560408201527131b2b4bb32b91034b6b83632b6b2b73a32b960711b606082015260800190565b60208082526031908201527f4552433732313a207472616e736665722063616c6c6572206973206e6f74206f6040820152701ddb995c881b9bdc88185c1c1c9bdd9959607a1b606082015260800190565b60008219821115611ed657611ed6611fde565b500190565b600082611eea57611eea611ff4565b500490565b6000816000190483118215151615611f0957611f09611fde565b500290565b600061ffff83811690831681811015611f2957611f29611fde565b039392505050565b600082821015611f4357611f43611fde565b500390565b60005b83811015611f63578181015183820152602001611f4b565b83811115610aa35750506000910152565b600181811c90821680611f8857607f821691505b60208210811415611fa957634e487b7160e01b600052602260045260246000fd5b50919050565b6000600019821415611fc357611fc3611fde565b5060010190565b600082611fd957611fd9611ff4565b500690565b634e487b7160e01b600052601160045260246000fd5b634e487b7160e01b600052601260045260246000fd5b634e487b7160e01b600052603260045260246000fd5b634e487b7160e01b600052604160045260246000fd5b6001600160a01b038116811461204b57600080fd5b50565b6001600160e01b03198116811461204b57600080fdfe4142434445464748494a4b4c4d4e4f505152535455565758595a6162636465666768696a6b6c6d6e6f707172737475767778797a303132333435363738392b2f68747470733a2f2f617277656176652e6e65742f686837414e4644665f4c767a6b747168774f7a4d6b49614f6c7664685f54325f57515259316b5173633159a2646970667358221220e39c27ea85b88e391d135c02ef5076ec05ac6c4109589180b4bcc7d561e4c9be64736f6c63430008070033516d59484747546271774674664c466868414b6f6a56626d4a776b564d4e7971726e694739484c4c31505970794468747470733a2f2f617277656176652e6e65742f776d6e363635716a43354a35385179467661534a4e455570436d7373317266462d3162367862547378703468747470733a2f2f617277656176652e6e65742f3062354874795477506774575937324f454e6649334a7a3775676b437a59444b636e526b70674c43783634",
  "devdoc": {
    "kind": "dev",
    "methods": {
      "approve(address,uint256)": {
        "details": "See {IERC721-approve}."
      },
      "balanceOf(address)": {
        "details": "See {IERC721-balanceOf}."
      },
      "getApproved(uint256)": {
        "details": "See {IERC721-getApproved}."
      },
      "mintSelected(uint16,uint16)": {
        "params": {
          "end": "the word index where the chosen highlight ends",
          "start": "the word index the chosen highlight starts on"
        }
      },
      "name()": {
        "details": "See {IERC721Metadata-name}."
      },
      "ownerOf(uint256)": {
        "details": "See {IERC721-ownerOf}."
      },
      "royaltyInfo(uint256,uint256)": {
        "params": {
          "_tokenId": "- the NFT asset queried for royalty information",
          "_value": "- the sale price of the NFT asset specified by _tokenId"
        },
        "returns": {
          "receiver": "- address of who should be sent the royalty payment",
          "royaltyAmount": "- the royalty payment amount for value sale price"
        }
      },
      "safeTransferFrom(address,address,uint256)": {
        "details": "See {IERC721-safeTransferFrom}."
      },
      "safeTransferFrom(address,address,uint256,bytes)": {
        "details": "See {IERC721-safeTransferFrom}."
      },
      "setApprovalForAll(address,bool)": {
        "details": "See {IERC721-setApprovalForAll}."
      },
      "setRoyalties(address,uint256)": {
        "params": {
          "recipient": "the royalties recipient - will always be pr1s0nart, for regulatory reasons.",
          "value": "royalties value (between 0 and 10000)"
        }
      },
      "symbol()": {
        "details": "See {IERC721Metadata-symbol}."
      },
      "tokenURI(uint256)": {
        "params": {
          "id": "the tokenId for which we are querying the metadata"
        }
      },
      "transferFrom(address,address,uint256)": {
        "details": "See {IERC721-transferFrom}."
      }
    },
    "version": 1
  },
  "userdoc": {
    "kind": "user",
    "methods": {
      "contractURI()": {
        "notice": "Link to contract metadata"
      },
      "isApprovedForAll(address,address)": {
        "notice": "Override isApprovedForAll to whitelist user's OpenSea proxy accounts to enable gas-less listings."
      },
      "mintSelected(uint16,uint16)": {
        "notice": "mints a unique NFT from some user-selected piece of text (which we make into an image & store in Arweave)"
      },
      "setRoyalties(address,uint256)": {
        "notice": "Set the royalties for the whole contract. Our intention is to set it to 10% in perpetuity."
      },
      "tokenURI(uint256)": {
        "notice": "this overrides the usual tokenURI to return base64 encoded metadata and, in particular, an animation_url rather than an           image field, because that is how secondary marketplaces will display the image generated by our little React img generator           living immutably on IPFS."
      },
      "updateGateway(string)": {
        "notice": "in case the IPFS gateway ever goes down and we need to move to another, more local, solution"
      }
    },
    "version": 1
  },
  "storageLayout": {
    "storage": [
      {
        "astId": 1880,
        "contract": "contracts/SignatureNFT.sol:SignatureNFT",
        "label": "_name",
        "offset": 0,
        "slot": "0",
        "type": "t_string_storage"
      },
      {
        "astId": 1882,
        "contract": "contracts/SignatureNFT.sol:SignatureNFT",
        "label": "_symbol",
        "offset": 0,
        "slot": "1",
        "type": "t_string_storage"
      },
      {
        "astId": 1886,
        "contract": "contracts/SignatureNFT.sol:SignatureNFT",
        "label": "_owners",
        "offset": 0,
        "slot": "2",
        "type": "t_mapping(t_uint256,t_address)"
      },
      {
        "astId": 1890,
        "contract": "contracts/SignatureNFT.sol:SignatureNFT",
        "label": "_balances",
        "offset": 0,
        "slot": "3",
        "type": "t_mapping(t_address,t_uint256)"
      },
      {
        "astId": 1894,
        "contract": "contracts/SignatureNFT.sol:SignatureNFT",
        "label": "_tokenApprovals",
        "offset": 0,
        "slot": "4",
        "type": "t_mapping(t_uint256,t_address)"
      },
      {
        "astId": 1900,
        "contract": "contracts/SignatureNFT.sol:SignatureNFT",
        "label": "_operatorApprovals",
        "offset": 0,
        "slot": "5",
        "type": "t_mapping(t_address,t_mapping(t_address,t_bool))"
      },
      {
        "astId": 2829,
        "contract": "contracts/SignatureNFT.sol:SignatureNFT",
        "label": "_tokenURIs",
        "offset": 0,
        "slot": "6",
        "type": "t_mapping(t_uint256,t_string_storage)"
      },
      {
        "astId": 1755,
        "contract": "contracts/SignatureNFT.sol:SignatureNFT",
        "label": "_royalties",
        "offset": 0,
        "slot": "7",
        "type": "t_struct(RoyaltyInfo)1831_storage"
      },
      {
        "astId": 2708,
        "contract": "contracts/SignatureNFT.sol:SignatureNFT",
        "label": "proxyRegistryAddress",
        "offset": 0,
        "slot": "8",
        "type": "t_address"
      },
      {
        "astId": 1477,
        "contract": "contracts/SignatureNFT.sol:SignatureNFT",
        "label": "_tokenIdCounter",
        "offset": 0,
        "slot": "9",
        "type": "t_struct(Counter)832_storage"
      },
      {
        "astId": 1489,
        "contract": "contracts/SignatureNFT.sol:SignatureNFT",
        "label": "selection",
        "offset": 0,
        "slot": "10",
        "type": "t_mapping(t_uint256,t_struct(Highlight)1484_storage)"
      },
      {
        "astId": 1492,
        "contract": "contracts/SignatureNFT.sol:SignatureNFT",
        "label": "gateway",
        "offset": 0,
        "slot": "11",
        "type": "t_string_storage"
      },
      {
        "astId": 1495,
        "contract": "contracts/SignatureNFT.sol:SignatureNFT",
        "label": "imgHash",
        "offset": 0,
        "slot": "12",
        "type": "t_string_storage"
      },
      {
        "astId": 1498,
        "contract": "contracts/SignatureNFT.sol:SignatureNFT",
        "label": "backup",
        "offset": 0,
        "slot": "13",
        "type": "t_string_storage"
      },
      {
        "astId": 1501,
        "contract": "contracts/SignatureNFT.sol:SignatureNFT",
        "label": "essay",
        "offset": 0,
        "slot": "14",
        "type": "t_string_storage"
      },
      {
        "astId": 1503,
        "contract": "contracts/SignatureNFT.sol:SignatureNFT",
        "label": "creator",
        "offset": 0,
        "slot": "15",
        "type": "t_address"
      }
    ],
    "types": {
      "t_address": {
        "encoding": "inplace",
        "label": "address",
        "numberOfBytes": "20"
      },
      "t_bool": {
        "encoding": "inplace",
        "label": "bool",
        "numberOfBytes": "1"
      },
      "t_mapping(t_address,t_bool)": {
        "encoding": "mapping",
        "key": "t_address",
        "label": "mapping(address => bool)",
        "numberOfBytes": "32",
        "value": "t_bool"
      },
      "t_mapping(t_address,t_mapping(t_address,t_bool))": {
        "encoding": "mapping",
        "key": "t_address",
        "label": "mapping(address => mapping(address => bool))",
        "numberOfBytes": "32",
        "value": "t_mapping(t_address,t_bool)"
      },
      "t_mapping(t_address,t_uint256)": {
        "encoding": "mapping",
        "key": "t_address",
        "label": "mapping(address => uint256)",
        "numberOfBytes": "32",
        "value": "t_uint256"
      },
      "t_mapping(t_uint256,t_address)": {
        "encoding": "mapping",
        "key": "t_uint256",
        "label": "mapping(uint256 => address)",
        "numberOfBytes": "32",
        "value": "t_address"
      },
      "t_mapping(t_uint256,t_string_storage)": {
        "encoding": "mapping",
        "key": "t_uint256",
        "label": "mapping(uint256 => string)",
        "numberOfBytes": "32",
        "value": "t_string_storage"
      },
      "t_mapping(t_uint256,t_struct(Highlight)1484_storage)": {
        "encoding": "mapping",
        "key": "t_uint256",
        "label": "mapping(uint256 => struct SignatureNFT.Highlight)",
        "numberOfBytes": "32",
        "value": "t_struct(Highlight)1484_storage"
      },
      "t_string_storage": {
        "encoding": "bytes",
        "label": "string",
        "numberOfBytes": "32"
      },
      "t_struct(Counter)832_storage": {
        "encoding": "inplace",
        "label": "struct Counters.Counter",
        "members": [
          {
            "astId": 831,
            "contract": "contracts/SignatureNFT.sol:SignatureNFT",
            "label": "_value",
            "offset": 0,
            "slot": "0",
            "type": "t_uint256"
          }
        ],
        "numberOfBytes": "32"
      },
      "t_struct(Highlight)1484_storage": {
        "encoding": "inplace",
        "label": "struct SignatureNFT.Highlight",
        "members": [
          {
            "astId": 1481,
            "contract": "contracts/SignatureNFT.sol:SignatureNFT",
            "label": "start",
            "offset": 0,
            "slot": "0",
            "type": "t_uint16"
          },
          {
            "astId": 1483,
            "contract": "contracts/SignatureNFT.sol:SignatureNFT",
            "label": "end",
            "offset": 2,
            "slot": "0",
            "type": "t_uint16"
          }
        ],
        "numberOfBytes": "32"
      },
      "t_struct(RoyaltyInfo)1831_storage": {
        "encoding": "inplace",
        "label": "struct ERC2981Royalties.RoyaltyInfo",
        "members": [
          {
            "astId": 1828,
            "contract": "contracts/SignatureNFT.sol:SignatureNFT",
            "label": "recipient",
            "offset": 0,
            "slot": "0",
            "type": "t_address"
          },
          {
            "astId": 1830,
            "contract": "contracts/SignatureNFT.sol:SignatureNFT",
            "label": "amount",
            "offset": 20,
            "slot": "0",
            "type": "t_uint24"
          }
        ],
        "numberOfBytes": "32"
      },
      "t_uint16": {
        "encoding": "inplace",
        "label": "uint16",
        "numberOfBytes": "2"
      },
      "t_uint24": {
        "encoding": "inplace",
        "label": "uint24",
        "numberOfBytes": "3"
      },
      "t_uint256": {
        "encoding": "inplace",
        "label": "uint256",
        "numberOfBytes": "32"
      }
    }
  }
}